:020000022000DC
:1060000000020020E18402007D8402003984020045
:106010008D8402009D840200AD8402000000000017
:106020000000000000000000000000001D840200CD
:10603000BD84020000000000D1830200CD84020074
:106040004D39030069500300A54403007189020023
:106050008D8902004D3903004D3903004D3903008D
:106060004D39030071420300774203004D390300AC
:106070004D3903004D3903004D3903004D390300FC
:106080004D390300B53E03004D3903004D3903007F
:106090004D3903004D3903004D3903004D390300DC
:1060A0004D3903004D3903007D4203008342030054
:1060B0004D3903004D3903000000000000000000CE
:1060C0004D3903004D3903004D390300A989020001
:1060D0004D3903004D3903004D3903004D4A03008B
:1060E0004D3903004D3903004D3903000000000015
:1060F000000000004D39030000000000C5890200C7
:10610000F7B50D4616461F46044608B901F0CCFA0D
:1061100000680DF08FFD0023CDE900732A46334659
:10612000392120680DF011FE054620680DF09EFD16
:10613000281C18BF0120404203B0F0BD30B5002339
:10614000DCB241FA04F5ED0703F10103F8D590F94B
:106150000030A2405A400A405A40027030BD73B528
:106160000D461646044608B901F09EFA00680DF087
:1061700061FD01230022CDE9003239212A46334650
:1061800020680DF081FD054620680DF06FFD281C8C
:1061900018BF0120404202B070BD2DE9F3411C46FA
:1061A00005460E46174600235FFA83F847FA08F2C1
:1061B000D20703F10103F7D501230DF107023146A0
:1061C0002846FFF79DFFA8B99DF9073004FA08F2A9
:1061D0005A403A405A408DF8072031460DF10702E7
:1061E0002846FFF7BCFF003018BF0120404202B034
:1061F000BDE8F0814FF0FF30F9E737B5044608B944
:1062000001F052FA0029FBD08B88B3F5807FF7D8D4
:106210004B89B3F5807FF3D8CB790F2BF0D80FC91A
:1062200040F2F51584E80F000020013D0ED158B969
:1062300000230DF10502802120468DF80530FFF77F
:106240008EFFA8B14FF0FF3003B030BD01230DF138
:10625000070292212046FFF753FF10B14FF0FF30A5
:10626000E3E79DF80730AB2BE2D06FF00100DCE7ED
:1062700023790DF106025B42812120468DF806301C
:10628000FFF76DFF0028DDD1A37903228F2120467F
:10629000FFF783FF0028D5D1E379002B51D1237A72
:1062A000C0228F212046FFF778FF0028CAD1637AE9
:1062B0000C228F212046FFF770FF0028C2D1A37A5D
:1062C0000DF107025B42832120468DF80730FFF76E
:1062D00046FF0028B6D1012211468DF805000DF1C8
:1062E0000500FFF72BFFA288003218BF0122022110
:1062F0000DF10500FFF722FFE279003218BF0122FD
:1063000004210DF10500FFF719FF6289003218BF63
:10631000012208210DF10500FFF710FF0DF1050224
:1063200080212046FFF71BFF00288BD1237B022210
:106330008D212046FFF731FF003018BF0120404279
:1063400082E7013BDBB23F228E212046FFF725FF8B
:106350000028A4D076E713B50C4608B901F0A4F9DB
:106360000029FBD0022301AA9421FFF7C9FE40B9FE
:106370009DF805209DF8043043EA0223238002B0F3
:1063800010BD6FF00300FAE713B50C4608B901F031
:106390008BF90029FBD000230093ADF804306A4646
:1063A00006239621FFF7ACFEB0B99DF801209DF8B9
:1063B000003043EA022323809DF803209DF8023039
:1063C00043EA022363809DF805209DF8043043EAE8
:1063D0000223A38002B010BD6FF00300FAE713B5EB
:1063E0000C4608B901F060F90029FBD00023ADF894
:1063F000043001AA01239C21FFF782FE40B99DF8D9
:1064000005209DF8043043EA0223238002B010BD2A
:106410006FF00300FAE710B50C46FFF7E0FF18B97C
:106420001A23E380012010BD6FF08B00FBE710B54D
:106430000C46FFF790FF18B91A23E380012010BD26
:106440006FF08B00FBE713B50C466946FFF79CFF26
:1064500068B9BDF800302380BDF802306380BDF814
:106460000430A3801A23E380032002B010BD6FF034
:106470008B00FAE713B504460FF0A2FC28B90948CF
:1064800021460CF0BFFA02B010BD69460FF0A6FC21
:10649000011E02DC21460448F3E7C9B268460FF04A
:1064A00041F9F0E74CBF030068BF030073B5054630
:1064B0000E460FF085FC28B90B4829460CF0A2FACD
:1064C00002B070BD69460FF089FC041E02DC29464B
:1064D0000648F3E7E1B268460FF024F93246214658
:1064E00068460EF0FDFFEBE74CBF030068BF0300FA
:1064F00070B500200FF064FC05460C480C4E0CF003
:10650000C1FA0C480CF0BEFA002425B90748BDE8D2
:1065100070400CF0B7BAAA682146304601340CF03E
:1065200071FA20460FF04CFC0546EEE78EF20300B0
:1065300043BF030034BF030010B5052207490446DA
:1065400015F0BAF840B104220549204615F0B4F818
:10655000B0FA80F0400910BD0220FCE7F3C103004F
:10656000C1CA03002DE9F0478EB0904607460E469B
:106570001C4615F005F87F28024604D90125284657
:106580000EB0BDE8F087394601A812F030FA814616
:106590000028F3D1BDF82A5003992A46204614F06A
:1065A00097FBBDF830A004F80590BAF1000F0CD0AD
:1065B000254418492046554414F076FD5246069964
:1065C000204615F04BF885F801902146304612F030
:1065D00085F80546D0B9F38A6BB9052201990E48B2
:1065E00015F06AF841F2346341F2336200280CBFBF
:1065F00018461046F082B8F1000F02D0079BC8F889
:1066000000303946204614F049FFB8E74FF0FF3517
:10661000B5E700BF68D00300F3C103002DE9F04FD8
:106620006C4B81460D460FCBE9B008AEB9F1010FB6
:1066300086E80F0000F083806F686749384614F0E1
:10664000C3FD0446D8B903F009FC41F233610546A5
:1066500062480CF0D7F9624B624819880CF0D2F905
:10666000294661480CF0CEF960480CF0CBF960483F
:10667000037813B10CF006FA30E05E48FAE75E49A1
:10668000384614F0A1FD68BBB9F1040F12D15B4983
:10669000A86814F099FD0246002850D1544B58497F
:1066A000E868FFF75FFF0446C0B156480CF0EAF90E
:1066B000012413E0B9F1030F41D15349A86814F044
:1066C00083FD044600283AD1014618224C4814F0B4
:1066D00099FB80222146464814F094FB204669B07D
:1066E000BDE8F08F002456F8041B384614F06CFD0A
:1066F000002808BFA04604F1010418BF4FF0FF387E
:10670000042C19D0B8F1FF3FEDD0B8F1010F35D10D
:10671000B9F1020F13DDAC683C49204614F054FD7A
:1067200000284BD03A49204614F04EFD002848D1AD
:1067300003264746C24624E0B8F1FF3FE5D1296869
:1067400034480CF05FF9296833480CF05BF929688C
:1067500032480CF057F9296831480CF053F9296890
:1067600030480CF04FF930480CF08CF92F480CF001
:1067700089F92F480CF086F92E4897E70027022662
:10678000BA464E45DBDA2C4955F8260014F01CFDBC
:10679000D8B118F1000B18BF4FF0010BB3000493F0
:1067A00007AA264B55F826000CA9FFF7DBFE044686
:1067B000002847D022480CF065F9C0E703260746B9
:1067C000B8E700270226BA46DDE70136B145B6DD57
:1067D0008346E3E78CBF03009CBF0300A1BF030017
:1067E000A4070020C6BF0300DEBF0300F6BF0300FE
:1067F0000007002009C003001CC0030028E00300BC
:10680000E80600200EC0030022C0030028C00300D9
:106810002BC003008DC00300C1C00300EAC0030009
:10682000FAC0030028C103003FC1030047C10300B1
:106830007EC10300AAC103002EC003006806002029
:1068400031C00300CDE9000043464FF4807228A90F
:1068500012A802F09BFEBAF1000F04D03A460621BE
:1068600012A80CF05DFC484B1A7898466AB9079A52
:106870005AB11046059214F083FE2F230093059A17
:1068800003460B2112A80CF01CFC129B1878013651
:1068900020F0300040EA0B1BB14583F800B064DD06
:1068A00000220C2112A80CF03BFC049BEB1858684A
:1068B00014F066FE064698F800301BB1334912A862
:1068C0000CF03DFC002E54D0012112A80CF04AFC23
:1068D000BDF85430B342814649D3049B13981D44FC
:1068E0003246696814F0F4F94E44129B28485988DE
:1068F00049BA324689B20CF085F82448FFF71CFEED
:1069000098F80030002B3AD01F48FFF715FE214AB7
:1069100021490290002300910193314628A802F0FA
:106920008FFE00282DDD1D4A138801331380BAF134
:10693000000F17D01A4D1B492A681B4802F066FE4B
:1069400087B91299174811F8042B0CAE02F00F0208
:106950002A6014F0BDF90FCE134D0FC596E8030061
:1069600085E8030000F026FCB8E60026A3E70F4800
:106970009CE6314612A80CF0F5FB0646B5E70CAADA
:10698000C6E70B4876E600BF000700206806002037
:1069900065C00300E8060020B5690200A4070020D6
:1069A000980700209C0700208007002045C00300B6
:1069B000D8C103002DE9F0470368042B94B00646C4
:1069C0000C46174609D10B686548598849BA89B2FF
:1069D0000CF018F814B0BDE8F087062B47D16148D9
:1069E0000CF050F8172204A920460CF054FB20B1FB
:1069F000059B13B95C480CF045F823685B485B784D
:106A00005B495A09022A08BF014603F01F0359488F
:106A10000BF0F8FFA389002B3AD020460CF006FAC1
:106A2000A28938B1282805D023685B785B09043B2C
:106A3000012B22D86368504811460BF0E3FF172260
:106A400004A920460CF027FB0028C3D09DF919307B
:106A5000002B00F08280236893F80090059BC9F317
:106A60000119CBB9454B1B78B3B9454802E0032B5C
:106A7000B8D044480CF006F8ACE7114642480BF099
:106A8000C1FF00231022A18960680EF0EFFBD6E75A
:106A90003E480BF0F7FFD2E738483D4D14F070FD4B
:106AA0003649024607A811F0A2FF2B78002B43D0ED
:106AB00000232168CDE900334FF480720123204682
:106AC00002F064FDB9F1020F01BF2268137823F0D0
:106AD00030031370059B9DF81820013342EA03121E
:106AE0001721204605930CF01BFB2B781BB107994F
:106AF00020460CF024FB002120460CF033FB244AF6
:106B00001E4B80462878002814BF10461846FFF711
:106B100013FD336B01931F4B029000933A46002301
:106B20004146206802F08CFD00287FF753AF1A4AD7
:106B30001388013313804DE7DDF83480D4F800A0CA
:106B40004046B8F1000F01D014F01AFDCDE90080E5
:106B500001234FF480725146B1E710488AE700BF25
:106B600007C2030027C203008BC20300F9C1030060
:106B700001C20300A3C20300C5C2030068060020CF
:106B8000E6C2030072C2030081C00300D6C2030044
:106B900000070020B5690200A40700200EC303000F
:106BA000704700002DE9F04303685C7804F01F048F
:106BB000631E01249C40A4B2012C93B0064636D13A
:106BC000452302F051FE00220C2130460CF0A8FAB9
:106BD000214630460CF0C6FA044600200FF0F0F8CB
:106BE0000027DFF8509080463D46B8F1000F03D1F2
:106BF000204613B0BDE8F08328460FF0E1F8836823
:106C000000934A462B46402102A801350BF01AFF9B
:106C100028460FF0D5F88046706802A9384402F083
:106C20005DF8044402A814F0ABFC0744DDE7002043
:106C3000DFE700BF8EC303002DE9F04303685E78F1
:106C400006F01F06731E01269E40B6B2012E91B0BB
:106C500005460F4690464FF0000405D0042E2BD079
:106C6000204611B0BDE8F0834368ADF800401B88B2
:106C7000ADF80030684613F055FD014681463348B3
:106C80000BF0C0FE69464846FFF710FC452342461C
:106C90003946284602F0E8FD22460C2128460CF031
:106CA0003FFA314628460CF05DFA694604466868AA
:106CB00002F014F82044D4E72549406814F088FD18
:106CC00013F030FD22490546204614F081FD13F0F3
:106CD00029FD1F490FFA80F8204614F079FD13F0C2
:106CE00021FD1B4907B2204614F072FD13F01AFD76
:106CF0002DB206B229461748ADF80080ADF80270F3
:106D0000ADF80460ADF806400BF07CFE4146124839
:106D10000BF078FE394611480BF074FE31461048EE
:106D20000BF070FE28460FF04BF869460FF05EF846
:106D3000214643232246204602F096FD014610B923
:106D40000CF010FA8DE74FF0FF308AE748C30300DC
:106D500066C3030068C3030070C303007AC3030063
:106D600084C303002DE9F047E0B0174606460D4600
:106D700014F006FC7F2802464F4C59D94F48504C1E
:106D80000BF080FE0023CDE900334FF480723B46C8
:106D900020A90AA802F0FAFB002802DA49480BF001
:106DA00071FE204614F0ECFB2F230093224603468D
:106DB0000B210AA80CF085F90A9A137823F0300306
:106DC00043F01003137001210AA80CF0CBF901461F
:106DD00006463D480BF016FE05223C49364814F0A5
:106DE0006BFC002865D004223949334814F064FC58
:106DF000B0FA80F46409284614F0C2FB2946024622
:106E000007460B9813F064FF0B980BF03BFE002332
:106E1000304A01930092B91904AA029420A802F002
:106E20000FFC014628480BF0EDFD60B0BDE8F0878F
:106E3000314620A811F0DBFD804600289ED1BDF828
:106E4000A6A022995246204613F042FFBDF8AC900E
:106E500004F80A80B9F1000F0CD01F49204614F045
:106E600023F9204654444C444A46259914F0F6FB35
:106E700084F80180104904A811F030FC00287FF448
:106E80007DAFBDF8263073B9052220990F4814F064
:106E900013FC41F2346341F2336200280CBF184600
:106EA0001046ADF8260031460348269C14F0F6FA49
:106EB00068E702249FE700BFA607002096C30300EF
:106EC00022F00300A7C30300B2C30300F3C1030011
:106ED000C1CA0300A16B020068D0030008B50322F9
:106EE00002490348FFF73EFF012008BDA5C5030086
:106EF000B2C5030008B508480BF0C4FD07480BF005
:106F0000C1FD07480BF0BEFD06480BF0BBFD06486F
:106F10000BF0B8FD002008BDEBC30300F7C303006E
:106F200023C4030064C40300A0C403002DE9F3419B
:106F3000054631480C460BF0A5FD022D10D12F4916
:106F4000606814F041F940B9FFF7D2FA2A480BF013
:106F500099FD012002B0BDE8F081FFF7CBFFF5E716
:106F6000032D0BD12649606814F02EF90028F4D1C6
:106F7000A06813F0D7FBFFF77DFAE7E7062DECD109
:106F80002049606814F020F906460028E5D1A06881
:106F900013F0C8FB0546E06813F0C4FB8046206987
:106FA00013F0C0FB0746606913F0BCFB2DB2ADF8CF
:106FB00004002846ADF80080ADF80270ADF8066018
:106FC0000EF0FEFE69460EF011FF10F1860F0CD098
:106FD00010F1130F04D08C300AD129460A4801E081
:106FE0000A4829460BF00EFDB0E729460848F9E7A4
:106FF00008480BF047FDA9E789F2030066C60300C5
:10700000E0C40300E5C4030030C50300EBC4030083
:1070100005C5030048C5030000B50421A1B0094817
:10702000094C00F041FE00F0E9F808480BF02AFD99
:1070300007480BF027FD80226946204611F096F89C
:10704000F9E700BF2808002060C50300BBC30300A8
:10705000CDC3030010B5044602F006FC014620B97A
:107060002046BDE810400CF07DB84FF0FF3010BD59
:107070002DE9F843884616461F4602F019F8041E0B
:107080001ADD0F4B7A6853F822509946A5B128466D
:1070900014F076FA361BB04202460DD2B8F1000F5A
:1070A00004D0294608EB040013F012FE7B6859F85F
:1070B000230014F065FA04442046BDE8F88300BFBD
:1070C000CCC50300F7B503685D7805F01F056B1E9E
:1070D00001259D40ADB2012D04460E46174604D051
:1070E000042D16D0002003B0F0BD452302F0BCFBF8
:1070F00000220C2120460CF013F8294620460CF003
:1071000031F8124B05461988606801F01FFE2844CB
:10711000E9E78389052B16D81A46002541680095B2
:107120006846ADF8045013F0D3FD0A22294668469C
:1071300014F01EFD054B3A46188031464423204684
:10714000FFF788FFCFE78023FAE700BFA4070020FE
:1071500070B5452304460D46164602F085FB002215
:107160000C2120460BF0DCFF012120460BF0FAFF3A
:10717000A3891E2B0FD90D4B626803F11C0153F834
:10718000044B42F8044B8B42F9D119889B7811804B
:1071900093701F3070BD06480BF074FC32462946D0
:1071A0002046A023BDE87040FFF754BF14C603007B
:1071B00045C0030010B5D6B04FF480720D4B16A930
:1071C000684602F0D5FD024690B90C2168460BF0E6
:1071D000A7FF012168460BF0C5FF074B044619883D
:1071E000019801F0B3FD034A011916A802F0FEFD53
:1071F00056B010BDD4C50300A4070020014802F01A
:10720000ADB900BF0002002070B5064E064CA41BAD
:10721000A4080025AC4200D170BD56F8253098472F
:107220000135F7E7D0F50300FCF5030013B50020A6
:107230000DF0F6FB014608B900F036FA084C20467E
:1072400012F0C0FB204611F07FFE0094054B06486B
:1072500001224FF4806112F0BFFB02B010BD00BFED
:10726000480C00206BC603004808002007B5002327
:10727000009313460A46017900680EF0B5F8003015
:1072800018BF0120404203B05DF804FB07B500239E
:10729000009313460A46017900680EF0AFF80030FB
:1072A00018BF0120404203B05DF804FB30B504462E
:1072B0008BB000B109B900F0F7F907C984E80700FD
:1072C0000CF0B8FC0DF10F02D0212046FFF7CEFFE5
:1072D00038B120680CF0CAFC6FF0010528460BB0ED
:1072E00030BD9DF80F30582BF3D1B622E021204657
:1072F000FFF7CCFF00283FD10DF10F02F32120460C
:10730000FFF7B4FF002837D19DF80F30002BF3D1E1
:10731000019318230093882204AB217920680CF094
:1073200014FD48BB049BE360059B2361069B6361DE
:10733000079BA361089BE361099B23626279A379A0
:10734000F5211A4320468DF80F20FFF79FFF98B9CB
:10735000627A237A920042EA4312E3791A43D2B264
:10736000F42120468DF80F20FFF790FF054618B94D
:1073700020680CF07BFCB1E720680CF077FC4FF044
:10738000FF35ABE71FB5044608B900F08DF900687A
:107390000CF050FCE379032B1AD0627A237A920026
:1073A00042EA431242F00102D2B2F42120468DF8A3
:1073B0000F20FFF76BFF00283DD10DF10F02F321E5
:1073C0002046FFF753FFB0BB9DF80F301907F4D4E8
:1073D00006230022CDE9003204F13403F72221799B
:1073E00020680CF0B2FC30BB20680CF03FFC94F835
:1073F000383094F837001B0143EA003394F8390021
:1074000043EA1013A089C0EB13124000C0EBD30372
:10741000B4F90E0052434343B4F910001213504321
:10742000801300EBE320206300EB8000803040F30A
:107430000F2004B010BD20680CF018FC0048F8E7DD
:107440000080FFFF2DE9F843044608B900F02CF94D
:10745000FFF798FF94F83530206B94F83420B4F996
:107460001A601B01B0F5FA3543EA02334FEAE071C6
:1074700094F8362041F1FF31A5FB058943EA121348
:1074800005FB01F209EB4209F71706FB01F205FBC8
:107490000722A6FB056717447A0442EAD632700435
:1074A000B4F91C6006FB09FCF71708FB07CCA6FB28
:1074B00008678019B4F91860674447EB02024FF07F
:1074C000000CF700B4F9146010EB0C0C47EB02024F
:1074D0007143F71705FB0711A6FB05670F44390336
:1074E00041EA16513003B4F91660003041F5004509
:1074F000F71706FB09F108FB0711A6FB0889894469
:107500004FEA182141EA096140184FEA292646EB63
:107510000505668AA0FB060106FB05114E10CF1774
:1075200056EA070157D0C3F580134FEAE379D8072D
:107530004FEAC971B0EB0C0041EA530140F6354304
:1075400061EB0202A0FB030103FB021132463B4642
:1075500012F016FF420B42EAC1424D13B4F9226009
:107560005543A2FB022303EB4503F71706FB03F584
:1075700002FB0755A6FB0223B4F92060B4F91E40B4
:107580002B44550E45EAC3154FEA636CF71706FB0B
:1075900001F300FB0733A6FB00671F44F30C43EA2B
:1075A00047331B184FEAE74241EB0202EB184CEB62
:1075B0000201180AE51740EA01602A0123011818A0
:1075C0004FEA212642EA147246EB0202000A40EA20
:1075D0000260BDE8F8834FF0FF30FAE710B50C46C3
:1075E000FFF7D0FE4FF602632080E380012010BD3C
:1075F00013B51723CB800C46FFF724FF012201901F
:1076000001A920460DF0F6FF012002B010BD41F6A1
:10761000C813584348BF00F2FF3040F38F20704733
:10762000704700004FF080435722C3F81C25BFF37A
:107630004F8F0549054BCA6802F4E0621343CB60E3
:10764000BFF34F8F00BFFDE700ED00E00400FA0537
:1076500030B5014405468D4201D1184630BD15F8BC
:10766000014B5C40E4B2082063B26400002BE4B23A
:10767000B8BF544001382346F6D1ECE708B5EFF324
:10768000058313F0FF0F08D1EFF310832BB90548E2
:107690000BF0F8F900F0FCFCFCE70249032000F0D5
:1076A0003BF800BF8CC6030008B5714602480BF0DA
:1076B000A9F9FFF7E3FF00BF9EC6030008B5FFF777
:1076C000A3FD03480BF0DEF9FFF7A6FC002008BD80
:1076D000ACC603001FB5EFF3108372B6074B0293DD
:1076E00000230193064B0093072204234FF4C0614B
:1076F000044800F029FD00F055FE00BFA7C60300B6
:10770000BD760200F80D002008B50DF08BFEBDE837
:10771000084011F013B8704708B50D4B1A680C46B5
:107720007AB901221A60FFF7F6FF214609480BF0EB
:1077300069F90EF0A7F80A200BF098F906480BF04B
:10774000A1F9EFF3108372B600F0BAFDFFF76AFFFC
:10775000F8130020D9C60300F5C6030070B50E4625
:107760000021044600F0B0FA0D4D70B9BFF35B8FF5
:10777000E288BFF35B8F2B8812B21BB29A4204D00F
:107780006EB90121204600F09FFA2B88BFF35B8F72
:10779000E380BFF35B8FA3880133A380012070BD1A
:1077A000001400200021FFF7D9BF000008B50F49E1
:1077B000BFF35B8FC388BFF35B8F09881BB209B22D
:1077C000994201D0FFF770FF8388002BFAD0013B6C
:1077D0009BB2838043B9BFF35B8FC380BFF35B8FE2
:1077E000BDE8084000F0A8BA08BD00BF00140020A2
:1077F0002DE9F04704460F469046EFF3108672B627
:107800000568C5B9DFF89090051DD4E90331A26879
:107810009A1A8A4223DC1F4A12883A80581C6269ED
:10782000E0600B4097E8030002EBC30383E803002A
:1078300086F3108810E055F80C390360D1E9000197
:107840002B6983E8030028460C2100F013FB6879BC
:1078500086F3108800F04CFB4FF0010816E0B8F1F9
:10786000000F11D0D9F800A00921504600F002FB0A
:107870005146284600F048FC86F3108800F024FCAE
:10788000EFF3108672B6C0E786F310884046BDE875
:10789000F08700BF0014002004140020F8B504464F
:1078A0000F46EFF3108672B6D0E9023199421AD032
:1078B000591C8160016942690B4002EBC30393E8E4
:1078C000030087E80300656815B355F80C39636059
:1078D00028460C2100F0CEFA687986F3108800F073
:1078E00007FB012212E07AB10B4B1D6809212846E3
:1078F0002F6100F0BFFA2946204600F005FC86F310
:10790000108800F0E1FBECE786F310881046F8BD24
:1079100086F31088E5E700BF041400202DE9F0414C
:107920000446EFF3108672B6344B1A6898460AB9CB
:10793000FFF7BAFE576A002F5AD0D2E906309842B4
:1079400056D0581C9061106A034041B9516931B951
:10795000591C04D186F310881846BDE8F081002B2D
:107960004ADB07EBC30103C984E80300556955B33B
:1079700055F80C195161002B0CDBD2E907419369D2
:10798000E31A9942A9BF631C4FF0FF340C40D36146
:1079900007EBC4042B6993E803002B79062B84E8DA
:1079A000030002D186F3108820E0002328462B61D3
:1079B0000C2100F05FFA687986F310880E2815D83C
:1079C00000F096FA12E0002BECDA0421104600F0E9
:1079D00051FA86F310880A4B4FF080525A60BFF379
:1079E0006F8FD8F800301B79042BA1D00123B3E7A7
:1079F0004FF0FF330029A9D01461B7E70414002029
:107A000000ED00E00346D0E9072010B59C69141B87
:107A1000A04201DA002010BD541C0240DC61F9D400
:107A2000586A00EBC20203C982E803001A896FEAB0
:107A300042426FEA52421A81184600F0C1FA012010
:107A4000E9E7000008B50E4B53F82130A3B11A79CD
:107A5000042A0BD103C81A6982E8030018460C21D6
:107A600000F008FA074B0120186008BD01461846CF
:107A7000BDE80840FFF7C6BF4FF0FF30F5E700BF95
:107A800050140020081400202DE9F0411D46294B18
:107A900053F82140284B1B880380064690462CB99A
:107AA00085F310884FF0FF30BDE8F0812379042B77
:107AB00036D0224B014620461F68FFF7A3FF78B15E
:107AC00085F310883B79062B02D01D4B1B682BB128
:107AD0001C4B4FF080525A60BFF36F8F0120E3E7D9
:107AE000B8F1000F02D185F31088DDE73B793E61E4
:107AF000062B0CBF06210521384600F0BBF904F126
:107B00001400394600F000FB23896FEA43436FEA13
:107B100053432381204600F053FA85F31088D7E7BA
:107B2000D0E90001236983E803000C21204600F01E
:107B3000A1F9F2E7501400200014002004140020E2
:107B40000814002000ED00E010B50146EFF31084AA
:107B500072B6054B1B880380044B1868FFF752FF71
:107B600084F3108810BD00BF00140020041400200E
:107B700021230380FFF766BFEFF3058313F0FF0FA8
:107B800001D0FFF7F5BF064B1B881BB2994201D10C
:107B9000FFF7DABFEFF3108372B60122FFF774BF6D
:107BA0000014002010B4EFF3058212F0FF0203D09E
:107BB0005DF8044BFFF7DCBF074B1B881BB29942F3
:107BC00003D15DF8044BFFF7BFBFEFF3108372B62C
:107BD0005DF8044BFFF758BF00140020104B1B88C2
:107BE0001BB29A422DE9F04106460C46154601D1DA
:107BF000FFF75AFDEFF3108872B60A4B1F68062193
:107C0000384600F037F996E803003C61434684E8C3
:107C10000300012229462046BDE8F041FFF734BFAA
:107C2000001400200414002038B5EFF3108572B65C
:107C30000F4BB0F9002053F822400CB9FFF734FD88
:107C40002379062B04D085F310884FF0FF3038BD20
:107C500003C9236983E8030020460C2100F00AF9D8
:107C6000607985F3108800F043F90120EFE700BF49
:107C7000501400200021FFF751BE0121FFF74EBE36
:107C800008B5EFF3108272B6064B1B680BB9FFF70D
:107C90000BFD586A10B1D3E90630C01A82F3108880
:107CA00008BD00BF0414002008B5064B4A1E1B681F
:107CB0001140586201D0FFF7F7FCC3E906111A62C0
:107CC00008BD00BF04140020F8B504460E46EFF3CB
:107CD000108772B603683BB94FF0FF33036087F338
:107CE000108801263046F8BD11B987F31088F9E7EE
:107CF0000F4B1D680DB9FFF7D7FC0321284600F094
:107D0000B9F8236801330DD105F10C03236000237A
:107D1000EB6087F31088074B4FF080525A60BFF337
:107D20006F8FDFE72946204600F0EEF9F1E700BF4C
:107D30000414002000ED00E038B50446EFF3108590
:107D400072B6006810B985F3108838BD431C02D1A3
:107D500000232360F7E750F80C3923600C2100F072
:107D600089F8236813B94FF0FF33236085F3108837
:107D7000034B4FF080525A60BFF36F8FE5E700BFAF
:107D800000ED00E0026810B592B113688B4208D193
:107D90008A4202D10023036001E00B6813600846A9
:107DA00010BD13461B681C68A14203D09A42F9D14A
:107DB0000021F4E72BB10A681A6002688A42EED10A
:107DC000E9E71946EBE7000008B503790B2B04BF80
:107DD0000C230371836A1A68934208D0B0F9061025
:107DE00003480AF00FFE03490D20FFF795FC08BD7C
:107DF00002C7030031C7030070B5184C184D236843
:107E00002E6843BB16B13046FFF7DEFF00F00EFBD5
:107E10002368002BFAD00020124B00221A6023683E
:107E2000114AB3FA83F352F823301C680C3C0B233D
:107E3000B44223710DD008B1FFF7C6FF0B4BA16A06
:107E4000B4F906201A801F31094A2C60022000F084
:107E50002BFA204670BD3046DEE700BFFC13002041
:107E60000414002008140020101400200014002026
:107E7000080006160A2970B5037904460D461AD97A
:107E80000A2B14D84679184A31B20C3052F82130F6
:107E90007BB11B68E36052F82130186042F8210082
:107EA000124A4FF000431168F3400B4313602571F1
:107EB00070BDE060F2E70A2BF9D90B4E407904F16E
:107EC0000C0106EB8000FFF75DFF627956F8223067
:107ED000002BECD105494FF0004323FA02F20B6866
:107EE00023EA02030B60E2E710140020FC130020D9
:107EF0000B4B1B681A790A2A02D95B7983420ED987
:107F0000EFF3058313F0FF0F03D0064B01221A6035
:107F10007047054B4FF080525A60BFF36F8F704728
:107F2000041400200814002000ED00E008B5EFF371
:107F3000108372B6094B0A4A1B880A4D1BB20024F3
:107F400042F82340084A286813682146013B136021
:107F5000FFF790FF2C6000F025FA00BF001400200E
:107F600050140020041400200C1400200C4B10B5F9
:107F70001B68EFF3108472B61A8910420DD1186194
:107F800007211846FFF776FF84F31088054B4FF062
:107F900080525A60BFF36F8F10BD84F31088FBE7E7
:107FA0000414002000ED00E0EFF3108272B60388A5
:107FB000194023EA0103038082F3108808467047C2
:107FC0000379072B10B5048A04D0082B0DD00024A8
:107FD000204610BD03891C40002CF9D00C21FFF76E
:107FE00049FF054B01221A60F2E7038934EA0303D3
:107FF0000CBF01240024EFE70814002038B5064B1D
:108000001C680546FFF7B2FF294604F10800BDE8E9
:108010003840FFF7C9BF00BF0414002010B5EFF3CC
:10802000108472B6038902791943072A0181038AF1
:1080300004D0082A14D084F3108810E019400029D5
:10804000F9D00C21FFF716FF084B01221A6084F3C8
:108050001088074B4FF080525A60BFF36F8F10BDEE
:108060008B430CBF01210021E9E700BF0814002069
:1080700000ED00E0431E9BB21F2B05D8034B53F8C5
:10808000200010B1C06A70470020704750140020D3
:1080900010B5EFF3058313F0FF0F0FD1EFF310844A
:1080A00072B6074B02211868FFF7E4FE84F31088CC
:1080B000044B4FF080525A60BFF36F8F10BD00BF6A
:1080C0000414002000ED00E0EFF3108072B60B4BBB
:1080D0001B681A790A2A07D95A79094B53F82210D2
:1080E00011B1096843F8221080F31088054B4FF056
:1080F00080525A60BFF36F8F704700BF0414002096
:108100001014002000ED00E038B50B790A2B01D9DE
:10811000FFF7CAFA4C7901F10C02036813B9CB607E
:10812000026038BD13F8075CAC42F8D31846F4E798
:1081300003460144814202D90268824201D0C01A3A
:1081400070470430F6E700000F2A2DE9F84F054686
:108150008B4691469A4633D810F003031DBFC3F1F6
:1081600004025B18043B0B46A3F1340318BFAD189F
:1081700033F0030324D41AF0080F05EB030416D0E0
:108180002D60EFF3108872B62749012251F8226062
:1081900017B2C6B10132212AF8D188F310886FF0E6
:1081A0008A073DE012600432A242FBD3E9E72A4687
:1081B000FAE702212046FFF75DFE88F310882FE0E2
:1081C0006FF015072CE041F822402A46E780DDE9F0
:1081D0000A0100F09BF80C9B144AE3624FF0FF3356
:1081E000C4E908361368206001331AF0010FA56254
:1081F000C4F830B084F805902671C4E90366C4E978
:108200000566E6611360D4D10C212046FFF732FEEB
:108210001AF0040FD1D188F310884846FFF768FEA2
:108220003846BDE8F88F00BF501400200C14002021
:108230000C2808B503D8034B53F8200008B9FFF702
:1082400033FA08BD40C703000C4B0D4A10B540215E
:108250009A600C4CE02283F82220D9770022A018E3
:108260000132302A80F80013F9D11A6942F0100265
:108270001A615A6942F400725A6110BD00ED00E0C3
:108280000060020000E100E0064A536843F0050385
:10829000536052F86C3C43F4803342F86C3C00204D
:1082A000704700BF90ED00E0044B21F01F0142F049
:1082B00001029860D96000201A61704790ED00E0DB
:1082C00008B5EFF30581C1F3080119B1103904486D
:1082D0000AF098FB034B1B68DB0700D500BE08BD06
:1082E000DEC70300F0ED00E0BFF34F8F0549064BFA
:1082F000CA6802F4E0621343CB60BFF34F8F00BF44
:10830000FDE700BF00ED00E00400FA05134423F090
:10831000030310B54FF077321C1F43F8042C62079B
:1083200042BF4FF0883243F8082CA3F108044FF005
:10833000807344E902030D4B44F80C3C00220323F4
:1083400044E9053202200123224644E907306FF058
:10835000020344F8201C42F8243D0B2342F8043D5C
:10836000013B032BFAD1A4F1440010BD2D7F020084
:108370000548064A064B0168914201D1984201D353
:10838000181A70470430F6E700000020FEE7FEE709
:1083900000020020EFF3088070470000004870479B
:1083A000000000200023E1EE103AEFF3148323F0E5
:1083B000040383F31488BFF36F8FEFF3108362B667
:1083C000024B4FF080525A60BFF36F8F00ED00E018
:1083D000114910B50C6872B6FFF70EFD62B6A042E7
:1083E00008BF10BD2146BDE8104049B1EFF3098236
:1083F0001EF0100F08BF22ED108A22E9F04F0A602C
:108400000068B0E8F04F1EF0100F08BFB0EC108A03
:1084100080F309887047000004140020024B4FF0DD
:1084200080525A60704700BF00ED00E030BF62B676
:10843000BFF36F8F72B670470D4B0E4A0E496846F8
:10844000904203D8984201D9002102E009468D46A6
:10845000012104207246024202D1EFF3088001E0BC
:10846000EFF309802DE9F00F6B4600F087F800BFAD
:1084700058010020000004200002002008B5024935
:108480000620FFF749F900BF79CA030008B5024981
:108490000520FFF741F900BF66CA030008B502498D
:1084A0000820FFF739F900BFEDC7030008B50249FE
:1084B0000920FFF731F900BF85CA030008B502495A
:1084C0000A20FFF729F900BFFFC7030008B50249DA
:1084D0000B20FFF721F900BF11C803007047704758
:1084E0001C4AD2F8883043F4700310B5C2F88830C3
:1084F000FFF7F4FF6A46184B1848194693421DD3FC
:10850000174B184A184883421BD3184B184A0020AF
:1085100093421BD321B1174A17490120FFF7C4FE2C
:10852000FFF7B2FEFFF7DBFF00F082F9FFF778F804
:1085300012F06AFBBDE81040FFF7CCB843F8040B1B
:10854000DCE752F8044B43F8044BDCE743F8040B38
:10855000DEE700BF00ED00E000000020FEE7FEE7E0
:1085600000020020A0F60300680600206806002034
:10857000DC510020080006161F0000202DE9F04FF6
:108580009B46564B8FB090469A6B03925A6B04925F
:108590009F6ADA6A05921A6BDB6B0793504B06925F
:1085A0001A68504B9A420446894602D04E480AF057
:1085B00069FAB9F1000F61D04C480AF063FA4C4BEC
:1085C0004C48198809B20AF01DFA00252E464A487F
:1085D0000AF058FA394649480AF014FA0599484809
:1085E0000AF010FA069947480AF00CFA079946482B
:1085F0000AF008FA3A0403D5039944480AF002FA4B
:108600003B0603D5049942480AF0FCF941480AF0B8
:1086100039FA414640480AF0F5F9B9F1000F29D17D
:1086200018F0080F53D0324B1F883FB23846FFF77F
:1086300021FD3946024639480AF0E4F938480AF083
:1086400021FA314637480AF0DDF96946364BC91A36
:1086500003D5494235480AF0D5F920468268C368F7
:1086600001698C4641698E46AD46594691E8F00F46
:10867000416800682E490720FFF74EF8D4E9023020
:10868000D4E9066AD4E9001208902069099060696B
:108690000A901AF4007F27480B91CDE90C230CBFF8
:1086A00004F1200504F124050AF0ECF9089B00937D
:1086B0000B992148DDE90C230AF0A4F9CDF800A0BC
:1086C0003346DDE909121D480AF09CF97FE7217F56
:1086D0001B4810390AF096F9B0E700BF00ED00E042
:1086E00000000020FEE7FEE71FC8030035C80300B6
:1086F0000014002064C803000EC9030017C903005A
:1087000027C9030037C9030047C9030057C903003D
:1087100067C9030077C903007CC903008EC9030041
:10872000CDC90300FEC903005801002026CA03007A
:1087300053CA030078C8030093C80300D0C80300DD
:10874000A7C9030070470000EFF3108172B6094B10
:108750001A680132012A1A6009D14FF080430020C3
:10876000C3F800011A60D3F80021002AFBD081F37E
:1087700010887047D4140020094A08B513680BB953
:10878000FEF792FFEFF3108172B61368013B13609E
:108790001BB94FF0804301225A6081F3108808BD55
:1087A000D4140020114A117838B5F1B94FF0804344
:1087B0001C46C3F81815C3F8041101219960D4F8B8
:1087C0000431002BFBD001251570FFF7BDFF0023FE
:1087D000C4F80C314FF080422561D2F80C31002BE7
:1087E000FBD0BDE83840FFF7C7BF38BDD814002024
:1087F0000C4B1B78062B12D10B4B186810F00F0096
:108800000DD104331B6803F0F003302B08D1074B64
:108810001B6813F0F00F0CBF0120002070470020F0
:10882000704700BFE00F00F0E40F00F0EC0F00F025
:1088300008B5FFF7DDFF20B1114AD36823F080733C
:10884000D360FFF7D5FF10B10E4B03221A60FFF77C
:10885000CFFF30B14FF080430022C3F80C21C3F8A2
:108860001021FFF76FFF084B0122C3F84025FFF7E7
:10887000EBFCFEF749FFBDE808400CF0E9BD00BF86
:10888000F0ED00E0A005004000E00140044B1B6853
:108890002BB1044B4FF080525A60BFF36F8F70477B
:1088A0000814002000ED00E008B50C4B98420CD0F5
:1088B000B0F1402F0BD003F50033984209D003F5F7
:1088C0004043984207D0FEF7EFFE002008BD01208C
:1088D000FCE70220FAE70320F8E700BF0030004081
:1088E00038B50D461446FFF7DFFF0A4B43F820501A
:1088F000094B43F82040094B1B56002B08DB012293
:10890000590903F01F0302FA03F3054A42F8213024
:1089100038BD00BFDC140020EC14002099CA03000D
:1089200000E100E070B50E461546FFF7BDFF0446B6
:108930000648012100EB8400FFF7C6F9044B43F819
:108940002460044B43F8245070BD00BFFC14002089
:10895000DC140020EC14002008B5FFF7A5FF034B42
:1089600003EB8000BDE80840FFF7E6B9FC140020E7
:1089700008B5044A044B10681B689847BDE80840D6
:10898000FFF784BFEC140020DC14002008B5044A73
:10899000044B50685B689847BDE80840FFF776BF16
:1089A000EC140020DC14002008B5044A044B906845
:1089B0009B689847BDE80840FFF768BFEC140020AB
:1089C000DC14002008B5044A044BD068DB689847E3
:1089D000BDE80840FFF75ABFEC140020DC1400206B
:1089E00009F0D8BCD0E9023018470000002303602A
:1089F000024BC260C0E90131704700BFE589020047
:108A0000036843B11A6893420BBF002311680360E7
:108A10001960104670471A46FBE708B500B109B95E
:108A2000FEF742FE4B68002BFAD0EFF3108272B6CD
:108A30000B6833B903686BB11B680B60036819607E
:108A40000160406882F3108830B10121BDE8084020
:108A5000FFF7E4BA0960F3E708BD10B5EFF310843F
:108A600072B6FFF7CDFF84F3108808B100230360CE
:108A700010BD2DE9F0418846074600B109B9FEF75F
:108A800013FEEFF3108672B600253C466368002B98
:108A9000F5D02046FFF7B4FF083440B90135A845AA
:108AA000F4D186F310880120FFF7A8FAE9E7002245
:108AB000026086F31088BDE8F081D0E90501FFF778
:108AC000ACBF000001600349C0E90523C0E9031001
:108AD000704700BFBB8A02000A4619B9D0E90501F8
:108AE000FFF79BBF011D006811F0ACBA03681BB112
:108AF000011D184611F08CBA7047000038B5856921
:108B0000044685B10A4B1868436901330CD011F053
:108B100042FA23696A68C11A8A4226BF9B181B1A47
:108B200000236B60206138BD83685B689847F0E77D
:108B3000C0F3030013B50A4A836912680192044620
:108B40003BB101465A68019811F07CFA206102B0ED
:108B500010BD0146019802B0BDE8104011F058BAAE
:108B6000C0F303008369002210B504465A60A0696F
:108B700030B1436823B90368A36163699847F6E796
:108B80002046BDE81040FFF7D5BF000070B5054690
:108B90000C46EFF3108672B6FFF7B0FF05F118032D
:108BA0001A68EAB922601A681AB151686068091A2D
:108BB00051601C60AB69A34206D10D4B6268186816
:108BC000294611F03FFA286186F31088094B1B688B
:108BD0002BB1094B4FF080525A60BFF36F8F70BDBD
:108BE000616850688142DDD3091A61601346D7E796
:108BF000C0F303000814002000ED00E070B5044647
:108C00000D46EFF3108672B6FFF778FFA26904F104
:108C100018002AB92046FFF78DFF86F3108870BD33
:108C20009542136802D010461A46F2E70360002B03
:108C3000F0D05A6869680A445A60EBE7034B416117
:108C4000C0E9023000238361704700BF658B0200DA
:108C500058B1037843B1013810F8013F0BB9012036
:108C60007047303B092BF7D90020704738B1054BCE
:108C70000A0901F00F019A5C5B5C027043700220EC
:108C8000704700BF9DCA0300F8B50D465700064661
:108C900010B18C18A54201D13846F8BD304615F800
:108CA000011BFFF7E3FF0644F4E7F8B50E46570053
:108CB000054610B18C18B44201D13846F8BD28469B
:108CC00014F8011DFFF7D2FF0544F4E703461A46E6
:108CD000013311780029FAD1101A704748B90846B3
:108CE000FFF7F4BFC2540133CA5C002AFAD1184618
:108CF00070470023F8E707B5042201910DEB02014C
:108D0000FFF7D3FF03B05DF804FB00000E4B994260
:108D100030B515D80A22012314468A420DD950B124
:108D200018440A25B1FBF5F405FB14123032092969
:108D300000F8012D06D8184630BD62430133ECE738
:108D40000A23ECE72146EDE7FFC99A3BFFF7DEBFB8
:108D5000002910B50B464FEAD17404DA10B12D2268
:108D600000F8012B5942FFF7D1FF204410BD2DE937
:108D7000FF41161E05460F4604D1FFF7E9FF04B078
:108D8000BDE8F0810ADDFFF7E3FF044625B1324676
:108D90003021281812F036F8A019F0E781EAE171C5
:108DA000A1EBE77101A8FFF7B1FF002FC6F10008A2
:108DB000044604DA0DB12D232B70012700E00027B3
:108DC000A0450ADBC6F10108A8EB040825B142461C
:108DD0003021E81912F016F8474425B1224601A9BE
:108DE000E81911F075FF3C4435B130192B195A1BA5
:108DF000824203D22E232B54601CC0E713F8012CAF
:108E000003F80129F3E7FFF7B2BF10B503460144A9
:108E10000A2400208B4200D110BD13F8012B303AF8
:108E2000092AF9D804FB0020F4E7000038B5064B06
:108E30001B6804460D46986811F050FD29462046EF
:108E4000BDE838400FF092BC0006002007B501468F
:108E500001A8FFF70BFF022101A8FFF7E7FF03B00E
:108E60005DF804FB07B501466846FFF744FF08219B
:108E70006846FFF7DBFF03B05DF804FB10B504465E
:108E8000FFF724FF01462046BDE81040FFF7CEBFA4
:108E900090B1D9B1002340EA0102D2070ED5C20732
:108EA00010D5CA0710D581423EBF0246084611467A
:108EB000091AF6D100FA03F108467047400849083C
:108EC0000133E8E74008EAE74908EAE70146F3E743
:108ED0002DE9F04780460D4614460AB9FEF7E4FB3B
:108EE00011462846FFF7D4FF8442F7D3A84241D861
:108EF000B5FBF0F1B4FBF0F2B1FA81FC4FF0004E9B
:108F00000020CCF120072EFA0CFE00230646002498
:108F10000025CCF15F0C14EB040A45EB050911EABE
:108F20000E0F54464D461EBF4AF0010A4D465446A8
:108F30009D4208BF94424FEA46064FEA5E0E12D3A6
:108F4000A41A65EB030546F00106002E0EDA54EA7A
:108F5000050300D00136C7F12007C8F8006088F883
:108F60000470BDE8F087002EEFD1013F013060456D
:108F7000D1D3ECE700273E46EDE700000C4A10B5E0
:108F8000D2F83C41002303601CB1D2F84441A14215
:108F900007D0D2F8603153B1D2F86831994206D186
:108FA0000123242101FB032303F59E73036010BDFD
:108FB00018020020F8B50546174671B108B9FEF74A
:108FC00073FB04688C42FAD8436804EB031399429C
:108FD000F5D20C1B2411013400E00C466B68A3424F
:108FE00001D8002009E0286826013946304409F0FC
:108FF000F3FD0028EFD128683044F8BDF0B593B0F8
:1090000014462F23009306460D46402302AA0B2147
:10901000204609F00EFF00281BDD23685C7804F071
:109020001F04631E01249C400023A4B22B6002276E
:1090300002AA29683046FFF7BDFF286010B93846FC
:1090400013B0F0BD83881C424FF00107F0D0002719
:10905000F5E70227F3E71FB514461A460378012BFC
:109060000AD10023CDE901314068069B039401A990
:1090700007F043FD04B010BD4FF0FF30FAE70000E9
:109080000A4B10B504461868436901330AD010F042
:1090900082FF20F07F42626520460621BDE8104035
:1090A0000AF03EB883685B689847F2E7C0F30300B4
:1090B0002DE9F0411C46074600680D46904612F027
:1090C0005FFA2389DC4304F00104023406460444B9
:1090D000ADB1444516D8DB075BBF2C232B700023B2
:1090E00001233C2203F10108EA543968024605EBEA
:1090F000080011F0EDFDA8193E2300F808302046C5
:10910000BDE8F0814FF0FF30FAE730B54268002A41
:1091100085B0034610DB826872B1106851689568AB
:1091200001AC03C40021117001AA03CA4FF0FF3241
:109130009860D9601D615A6005B030BD30B50368D4
:10914000013B012B97B004461CD8C56A0423036079
:109150009DB1502200210DEB030011F053FE4FF0A2
:10916000FF331593636801330CBF04F10803A36850
:109170000093002269462046A8472046FFF7C5FF16
:109180000023236017B030BD70B5164CA3680546A8
:109190000E4683B1E36801330BD104F110035B8801
:1091A000B34208D1294610480FF0AEFA18B100209A
:1091B00014E02369F3E7236F0BB9002070BD636FE0
:1091C000013314BFA36F094B5B88B342F5D1294625
:1091D00007480FF099FA0028EFD0682008302044A3
:1091E000ECE700BF180200203402002090020020AB
:1091F0009C02002043685A1C012A13B5044605D876
:10920000204602B0BDE81040FFF798BF013B436025
:1092100040F6B831C3F104034FF4FA609940984026
:109220000CF0D0FB014604F13400FFF755FC236835
:10923000022B0BD000230093D4E9021204F1140393
:1092400004F16000FFF707FF0028D9DD02B010BD70
:109250002DE9F041104CD4F80C5100230646884605
:109260000360274635B104F586700FF04DFA4FF0D4
:10927000FF3560B9D7F8243163B1414607480FF094
:1092800043FA08B1054C34602846BDE8F08104F586
:109290008674F8E70125F7E7180200203C03002058
:1092A00010B586B01222002101A811F0ABFD0423F5
:1092B000009341F23363ADF8163000231A46694635
:1092C0000D4807F035FB00284FF0000310DB0B4A78
:1092D0000B4C12680848C4E900322146094A0FF0D5
:1092E00049F901212046FFF7C4FB43689847F8E796
:1092F000184606B010BD00BF701A002004140020EC
:10930000681A0020D1980200F8B5254CA3680646DB
:109310000F461546DBB1E368013339D104F1100182
:109320000B7803F00F039D4211D12A4604313846D1
:1093300011F09EFC58B931461A480FF0E5F968BBA8
:10934000E369042B26D194F82030FF2B26D0236F1D
:1093500013B3636F013314BFA16F13490B7803F08C
:109360000F03AB4218D12A460431384611F080FC75
:1093700090B931460D480FF0C7F938B9D4F88430A8
:10938000042B07D194F88830FF2B05D1084804E05E
:109390002169C5E7FEF788F90020F8BD0548FCE71C
:1093A0001802002034020020900200209C020020BD
:1093B00088020020200200202DE9F041104CD4F852
:1093C000DC500023064688460360274635B104F189
:1093D000DC000FF099F94FF0FF3560B9D7F8F430A1
:1093E0005BB1414607480FF08FF908B1054C346076
:1093F0002846BDE8F081DC34F9E70125F8E700BF35
:10940000180200200C0300202DE9F74F9B46002393
:10941000074614460360CDE9003311B16846FFF7F3
:10942000CBFF1CB1214601A8FFF712FF214CDDE95B
:10943000009A00254FF0FF382346D4F83C2122B98A
:10944000A8462434B5B90125F7E74A4502D0B9F159
:10945000000FF6D1D4F84021524502D0BAF1000FE6
:10946000EFD1BBF1000F09D1242606FB053505F528
:109470009E753D60404603B0BDE8F08FDBF80010FC
:10948000D4F85421087800F00F008242D9D1002A84
:10949000D7D02423043104F5A47003FB05F611F0A2
:1094A000E7FB044B0028CCD106F59E7633443B60A5
:1094B000E0E700BF180200207FB51B4EB6F9004060
:1094C0007CBB1A4B1A481B4DCDE901431A4B009344
:1094D000062223464FF48B61FEF736FE3080284685
:1094E000D022214640F8084B11F08CFC3022214656
:1094F00005F1DC0011F086FC4822214605F59E703E
:1095000011F080FC4FF40072214605F5C27011F095
:1095100079FC0CF033FAC5F8D800B6F9000004B0B5
:1095200070BD6FF01000FAE7641A0020C0CA030093
:109530000C16002018020020A1920200064BBFF377
:109540005B8F53E8000F421C43E800210029F8D14B
:10955000BFF35B8F80B27047F002002008B503694B
:109560000BB1FEF7A1F8064B5A685860C368026158
:109570000BB9044BC36043690BB9034B436108BD8E
:1095800018020020B1900200FD8F02002DE9FF4774
:10959000DDE90C670546884692461C4626B13378BD
:1095A0002F2B01D0FEF780F8C5F80080FFF7C6FF2B
:1095B000814624B30CF0E2F9CDE90049ADF80C0086
:1095C000022303AA0121286809F08CFC52460446B4
:1095D00003464146284609F0E8FC002C0ADD4EB15E
:1095E00047B12F23009332463B460B21284609F012
:1095F00068FD044604EAE47004B0BDE8F087CDE9F4
:109600000040234622462146DDE7000070B50446AF
:109610000D46164601210948FEF756FB32462946FB
:109620002046FFF771FE30B1002404600348FEF7C6
:1096300083FB204670BD6FF00104F7E7180200209D
:109640002DE9F04F91B00DF11C090478039300232C
:1096500080468A461A9F0793C9F80430C4F3011460
:1096600093460AB9FEF720F89DF87030012B4AD8CE
:1096700001238DF81C30774B0893049317B9002C05
:1096800040F0E080744D01212846FEF71DFBAE68D6
:109690002B463EB12A6F22B12846FEF74DFB00252E
:1096A00033E00126682575435A19022191601B9900
:1096B000916305F11C0157630B445A460BF1180CDA
:1096C000106851681F4603C7083262453B46F7D110
:1096D000614A682399E8030006FB0337174487E8CB
:1096E00003007343174634B1012C00F099801344F2
:1096F00000249C6037E0BAF5807F0AD913441046F5
:109700009C60FEF719FB6FF01505284611B0BDE807
:10971000F08F13441C6192F88431002B79D092F8B9
:109720008432002B77D10120682303FB067307EBFB
:10973000002000F5C270186152464146059311F0B1
:10974000C7FA059B1A69C3F814A0002A63D0042243
:10975000DA6040F6B8314FF4FA600CF033F9059B4B
:10976000044601229A603C48FEF7E6FA682303FBB0
:109770000676B368002B92D008352F4401238DF86C
:109780001C30049B0893AFB107F13405002C5BD06B
:1097900007F150063A4631493046FFF727F930497C
:1097A000304A096828463346FFF78CF92146284697
:1097B000FFF792F909AD1C220021284611F022FB87
:1097C000039B6BB12E4603F1180C1868596832469A
:1097D00003C2083363451646F7D108238DF83C30A1
:1097E00000955B46524641464846FFF734FC051E4D
:1097F0008BDC4FB13846FFF788FC1CB107F1340011
:10980000FFF774F900233B6015F1800F7FF447AF39
:109810007BE7204688E7682303FB06730022A1E765
:1098200013444FF0FF32DA60D8F80000D8F8041083
:1098300005F110033B4403C3D8F80800186041F257
:10984000883490E73C4699E71C222146284611F0CF
:10985000D9FAAFE7701A002018020020F591020033
:10986000C0F30300681A0020F7B50F46002419461C
:109870001646134600943A46054609F04FFB002869
:109880000CDD361AAE816E6DEC8107446F6046B90F
:109890002846FFF7F5FB304603B0F0BD4FF0FF3030
:1098A000FAE72046F8E7000010B50B464FF4807247
:1098B00006490446FFF7D8FF014620B92046BDE817
:1098C000104009F04FBC4FF0FF3010BD0C150020C8
:1098D0002DE9F04FCA06B9B082464ED500250DF1EC
:1098E00050091C22294648460395AD4E11F08AFACC
:1098F00001238DF868302F460EACCDF8049000940B
:10990000002303AA02A9504607F078F8B0F1000B33
:1099100033DB10D00BEB0503B3F5807F88BFC5F5B3
:10992000807B06EB05005A46029988BF01275D44FB
:1099300011F0CEF9E0E7CC46BCE80F001BAE0FC635
:1099400008239CE803008DF88430149B042B86E8E0
:10995000030015D19DF854309149CDF824A00DF1A4
:109960006C08FF2B08BFD8462A46012322A88DF891
:10997000203009F0B7F9002804DA39B0BDE8F08FDB
:10998000FDF792FE229A1378C3F30113032B4DD1F6
:1099900051882046FFF7F8FB054628B13430FFF721
:1099A000A5F82846FFF7CAFB229B214606A85D883A
:1099B000FFF702FD0698002838D07A4A69BAD2F833
:1099C0003C51002389B207932DB1854203D1B2F8EF
:1099D00050518D4209D0D2F8603163B198420AD11A
:1099E000B2F874318B4206D10123242101FB0323F9
:1099F00003F59E730793079AC2B1002313601946BB
:109A000052680A930AA8FFF7FFFC0A9B079A0BB952
:109A100051680B6000235360069907931A4607A804
:109A2000FFF7F2FC079B0BB9069A136022994A785C
:109A30005609052EA1D801A353F826F0559A020025
:109A40007B990200EF9C02007B990200EF9C0200D0
:109A5000EF9C02000B781B119ABB13F0030515D184
:109A60004FF00309229A137823F0300343EA0913D5
:109A70001370229B00225A70229A137823F00F034E
:109A80001370CDF80080234604222BE1022D7FF4D1
:109A900074AF20464988FFF777FB044600283FF45F
:109AA0006CAF436801333FF468AFC36A0560002BB5
:109AB0007FF463AF3430FFF719F82046FFF73EFB21
:109AC0005BE79B073FF559AF3FB18D2122A8FFF718
:109AD000EBFE00283FF451AF00E1324BCDE90477B3
:109AE000CDE906775D6802269A4695B10A976B69BB
:109AF00022AA0AA928469847022801D12D69F4E72D
:109B0000012802D12D690646EFE700284CD10A9DB5
:109B10000646012E4BD0022E4BD0002E3ED12946B8
:109B200007A8FFF72BFA379B002B40F0A48022AB4D
:109B30003246214606A8FFF767FC079B0746002B25
:109B400045D0069A002A36D0934203D006964FF0AD
:109B5000FF333793069B8BB1229F9D6008A93A780B
:109B600003C902F00F0203F11C069A6186E80300A4
:109B700022B1391D03F10C0011F0AAF89DF8203034
:109B80000D93CDE90A54CDF83080AD6804490AAB95
:109B90004FF4807222A8A84700289ADAA02195E7FE
:109BA0000C1500201802002000250320B0E78521B5
:109BB0008CE784218AE79DF820101A7F914209D111
:109BC000196820460EF0A0FD08B1079B0693069B7E
:109BD000002BBFD1379B0133BCD0002FB7DB079BD5
:109BE000002BB4D1214604A8FFF7E6FB049B33B950
:109BF0000028A1BF182303FB00A0DC3004904146DD
:109C000005A8FFF725FB059B3BB90028A1BF18233A
:109C100003FB00A000F586700590049B33B3059A02
:109C200022B32646324603CA4A4518605960164692
:109C300003F10803F6D1059A464608F1180C33469D
:109C400003CB6345106051601E4602F10802F6D155
:109C50002420784300F59E73534482440693059B69
:109C6000CAF84031049BCAF83C3173E7069B002BCD
:109C70007FF470AF6BE7012B2BD122AB324621462C
:109C800006A8FFF7C1FB069BFBB11E6032463346B8
:109C900021460AA80A96FFF7B7FB0A9B33B921466B
:109CA00004A8FFF789FB049B03B11E60069A0023FA
:109CB00052680A9319460AA8FFF7A6FB0A9A069B60
:109CC0000AB959680A6000225A604FF0FF3337938F
:109CD00054E701333FF452AF4FF0FF30CDF800802E
:109CE00023460246214908A8FFF7B5F945E611F8D1
:109CF000042B204602F00F02FFF706FB229B0546CD
:109D00001B7850B3C3F3011323B3022B3FF635AED8
:109D10004FF0FF39AB6C1BB105F13400FEF7E6FEE6
:109D2000002F14BF062303232B60EB6A379F1BB160
:109D3000224622A9284698472846FFF7E6F9013728
:109D400001D0022E01D000232B60B9F1FF3F7FF438
:109D500089AE12E64FF00209DCE713F0300F3FF452
:109D60007FAE379B01337FF47BAE06E60C150020F7
:109D70002DE9FF411E4605460F46002401211A48E1
:109D800003949046FDF7A0FF314603A8FFF7F6F8CD
:109D9000039B3BB91448FDF7CFFF6FF0010004B0FF
:109DA000BDE8F0812F60FFF7C9FB039A01904523BE
:109DB0000093936906460C320121286809F092F855
:109DC000031E05DC0848FDF7B7FF4FF0FF30E6E75C
:109DD00042463946284609F0E8F82846FFF750F988
:109DE000039B20469E82DAE7180200202DE9F0410D
:109DF0008AB006460F464FF00008114602A8CDF87B
:109E00000880FFF7BBF8029CF4B103AD1C22414669
:109E1000284610F0F7FF63686BB1AC4603F1180EEB
:109E200018685968624603C2083373459446F7D1EF
:109E300008238DF824302046009550F81C3B3A4604
:109E40003146FFF708F904460348FDF775FF24EA99
:109E5000E4700AB0BDE8F08118020020044B986855
:109E60001B6F003018BF012003B10130704700BFE5
:109E7000180200202DE9F043282A85B006460F4637
:109E800001D0FDF711FC184B01925C6800250123FD
:109E9000ADF80C30A8461CB9284605B0BDE8F083E3
:109EA000E3682BB1CDF80880029B6268934201D32E
:109EB0002469F0E72068D4F80C9000EB031001ABA4
:109EC0007EB17A1B7119C8470028F1DDBDF80C304E
:109ED00023F00103ADF80C30029B013305440293DB
:109EE000E2E732463146EEE718020020F8B50446B4
:109EF0001F464523FFF7B8FC28220C21204609F015
:109F00000FF90121204609F02DF90546384666680B
:109F1000A48909F03DF92822C3B221463046FFF753
:109F2000A9FF2844F8BD4269013201D010F033B8CE
:109F300083685B6818472DE9F041DDF81880154605
:109F400000220E461F46014608F10803104600F0A5
:109F50007BF9044650B1406876BA6DBA8680C580F8
:109F600027B142463946083010F0B2FE2046BDE81F
:109F7000F0810000F7B505460C46002A3FD0072BBC
:109F80003DD99188D088083B40BA49BA009389B23C
:109F900002F1080382B28120FFF7CDFF074670B3BC
:109FA000237EFF2B04F108020CBF002104F11801ED
:109FB00000F0B5FC064630B90146384603B0BDE8AE
:109FC000F04004F0F3BA00231A461946184603F08D
:109FD000AFFF044610B901463046EFE743680DB1C4
:109FE000B5F972515D8007492660234640F202228E
:109FF000022002F02BFF014608B92046DEE703B03D
:10A00000F0BD00BF0000FFFFF7B5099D0C461146EB
:10A010001A464FF6FB739D4207464AD80095002327
:10A020008020FFF788FF002846D02246002146689E
:10A0300000F075FC044620B9214808F023FD0025F6
:10A040002EE043689DF82020DA7167B100231A469C
:10A050001946184603F06CFF40B34368B7F9722104
:10A060005A8004600446174B1868FFF75CFF032D05
:10A0700089BFB0600836043D0C3600239D42DAB239
:10A0800011D1234640F202220F49022002F0DEFEE7
:10A090000028D4D16FF008050021204604F086FA8C
:10A0A000284603B0F0BDF2540133E7E76FF00B052B
:10A0B000F2E76FF01505F3E76FF00B05F0E700BF6F
:10A0C000D8CA0300C4F303000000FFFF2DE9F047E6
:10A0D0001E46224B0446186815460F46FFF723FF1D
:10A0E00002218146204604F0A3FC0321824620463B
:10A0F00004F09EFC8046BAF1000F2BD050B3DAF882
:10A100000400083001F0FDFBD8F80430032F03F100
:10A1100008011CD99A68043FA9EB02020C331F44C2
:10A120006FEA030CBB4202D14FF0FF3109E001336B
:10A1300003EB0C0013F801ECC0B28645F2D0591ABB
:10A14000013933462046AC46BDE8F04760470B4630
:10A150000022E4E76FF01500BDE8F087C4F30300C8
:10A16000F8B5064604890F46154600200DB1AE42EB
:10A1700018D132897168002307F0FEFA04F13A031E
:10A180000344B3F5803F24BF013080B239682044D6
:10A190003A3000232022083180B207F0EDFAC043A4
:10A1A00080B2F8BD23462A89696807F0E5FAAB68F2
:10A1B0002D681C44A4B2D9E72DE9F0410E46804633
:10A1C0000321304604F034FC044608B9FDF76CFA6C
:10A1D000022104F02DFC07460028F7D0A368032BCA
:10A1E00005D830460021BDE8F04104F0DFB9011D7B
:10A1F000324620466568FFF7B3FF0028F1D12B787F
:10A2000083F080031E2B0BD801220E499A400A428C
:10A2100011D12BB9238979682A464046FFF7AAFE57
:10A22000334640F201222978032002F00FFE002875
:10A23000D7D0BDE8F081A36879682A46404601F08E
:10A24000E5FDEDE7E003006038B50D46144600215A
:10A250001A46032304F0F0FA28B1436800221D7067
:10A260005C709A70DA7038BD10B5044668B190F928
:10A270000C30032B0CD102680431FFF771FF50B191
:10A28000636840BA5880002010BD6FF00D00FBE7F6
:10A290006FF04C00F8E76FF00100F5E7002104F0E3
:10A2A00085B9000008B51022034910F0E1FCB0FAAE
:10A2B00080F0400908BD00BF06CE030010B508229B
:10A2C0000949044610F0D4FC48B12378FF2B08D18B
:10A2D000607800F00F00831E5842584110BD0120E5
:10A2E000FCE70020FAE700BFF6CD03002DE9F843B4
:10A2F0000F46D1E9001405460A4600232ABB5BBA83
:10A30000A380A379FF2B02D119BB3B23A371E3796F
:10A3100013B94DBB4023E37104F1080610223E49F6
:10A32000304610F0A5FC04F11808814670BB404689
:10A33000FFF7B8FF0246D0B110224946304610F070
:10A3400061FD0123E3753C464EE0906812680344CA
:10A35000D4E70B7B023BDBB2022BD6D82F4AD35C6F
:10A36000A371FF2BD3D1D0E795F87031D3E74146E5
:10A37000284603F057FA0028E5D000F1100350F802
:10A38000042B46F8042B9842F9D1DCE7284603F069
:10A3900001F84046FFF786FF98B10024284603F0F5
:10A3A00000F8002CCFD00321384604F041FB28B13F
:10A3B00043681B7803F0FD03852BC4D06FF07C004D
:10A3C00022E03146284603F019FA0028E5DB28444C
:10A3D000047D04F01F04103C18BF0124DEE704F0E4
:10A3E00047FA98B12060044694F90C30022B02D150
:10A3F00020680028F3D13946204604F0C6F800282A
:10A4000007DA831C08BF0020BDE8F8836FF00B005B
:10A41000FAE70020F8E700BF26CE0300F2CA0300E7
:10A4200010B50C46FFF762FF002804DA2046FFF75C
:10A4300035FF002010BD0120FCE7000038B50C46B8
:10A440000B68054608B9FDF72FF96268B0F972117B
:10A45000518000224BB9B5F8A030934209D2204672
:10A460007A21BDE8384004F0A1B899681B680A4415
:10A47000F0E7284602F066FF60B1234640F2022270
:10A480000949012002F0E2FC68B92046BDE83840E5
:10A49000FFF704BF40F202222146B5F9720102F033
:10A4A000CAFC0028F1DD38BD0000FFFF002370B5B5
:10A4B00004460D4642F0400619461A46184603F077
:10A4C00037FD014620B92046BDE87040FFF7E6BEE3
:10A4D00043681E7104602846BDE87040FFF7AEBFB8
:10A4E00080B590B01022002105A810F08BFCB64B6F
:10A4F000B6481B88B64FADF8203008210697FDF707
:10A50000D3FB05A9022003F0A9FF40F20523ADF813
:10A510000E3044F6C57844F6C97401A8FDF7ADFBCA
:10A52000BDF80610A14234D841452ED2B1F5017FC5
:10A5300026D840F20323994280F0A78140F20123FC
:10A54000994241D040F202239942E6D1029E96F907
:10A550000C30013340F0F3807468BCB3B4F90200EE
:10A5600002F00DFF0546304694F8049004F080F99F
:10A5700009F03F090146002840F0D780304641E00D
:10A58000A1F59F43403B032BC7D8029801F058FF29
:10A59000C1E744F6D273994208D844F6D173994280
:10A5A000F3D2A1F59F434B3B042BEDE744F6D47364
:10A5B000994200F0728144F6D5739942ADD10021E1
:10A5C000029801F0FBFAA6E7029D0DB9FDF76CF8C1
:10A5D0004FF0FF31284604F02BFA814638B143682A
:10A5E000002BF3D0B3F9020002F0C9FE81466B687C
:10A5F0003BB1AA68272A04D91B7803F0F003602B2B
:10A6000003D02846FFF74AFE85E7284604F030F9D4
:10A6100004460028F5D00222282104F04BF900233B
:10A62000237308B92046EDE74668F37923B974210E
:10A63000204603F0BBFF6EE7B188B57949BA89B20D
:10A6400009B93B2DEED18442A36855D099422046EA
:10A6500052D204F09DF918363046FFF723FE78B940
:10A660003046FFF72BFE10B1B9F1000F53D1304641
:10A6700003F0BDF98146B0FA80F040090028D1D13D
:10A68000292D4CD03A2D4CD0112D0CBF0423002382
:10A6900023732946022003F060FF002801DC3A2DD5
:10A6A00041D10121204604F03BF80126234640F227
:10A6B0000122394694F90C0002F0C8FB10B920467B
:10A6C000FFF7ECFD86B13A2D03D10121204604F0BD
:10A6D00027F8234640F201222946022002F0B6FB69
:10A6E00010B92046FFF7DAFD3A2D7FF414AF21466A
:10A6F0004846FFF761FD0EE7002283681A4490F98F
:10A700000C30022B02D000680028F6D1283A8A4289
:10A71000A1D216218CE7304603F069F9ABE702239A
:10A72000B6E70323B4E70026C0E703F08DFF064633
:10A7300096F90C30022B06D01621304679E74FF0FF
:10A7400000094D46F4E7706822491022183010F0D5
:10A750008FFA0028F0D0304604F08AF8044600282A
:10A760003FF40CAF4668337EFF2B35D1002D40F00F
:10A77000988002F0F7FD00283FF454AF411E2046B8
:10A7800003F0CEFF04E04A4629463046FFF78EFE2E
:10A79000284602F0E5FD054600283FF4BCAE204601
:10A7A00004F066F8064600283FF43CAF0146284610
:10A7B000FFF79CFD0028E6DAB4423FF433AF3046A1
:10A7C000FFF76CFD2EE700BF00140020381B0020AF
:10A7D0000000FFFF26CE03001836304603F007F9CD
:10A7E0008542824606D03046FFF768FD002818BF34
:10A7F0004FF0000A3046FFF755FD10B9BAF1000FCF
:10A8000017D021465046FFF70BFE00283FF483AED9
:10A81000204603F0F5FE00287FF404AF234640F203
:10A8200001223946022002F011FB00287FF473AEAA
:10A83000F8E609AB22462946304601F006FA002820
:10A84000FFF669AEBDF83C00C0F3041002F097FDBE
:10A85000054600283FF4BAAE2146FFF7E1FD002887
:10A860003FF459AE51469DF83E300DAA504603F0D4
:10A870005FFB014600283FF4D5AE436883F804909F
:10A8800004602846FFF7DAFD45E66FF0850303A96B
:10A8900001A80493FDF7C8F93DE6029801F064F9B8
:10A8A00039E601462846FFF7BBFD00283FF433AEEA
:10A8B0004A4629462046FFF7F9FD2CE61FB50A4C0B
:10A8C000B4F900305BB9094A0948CDE90132094AB7
:10A8D00000924FF470710422FDF736FC2080B4F929
:10A8E000000004B010BD00BF381F0020F5CA0300EF
:10A8F000781B0020E1A4020008B5022104F098F8BA
:10A9000060B143680BB9FCF7CFFE8268272AFAD9F9
:10A910001A7802F0F002602AF5D1184608BDF8B5A1
:10A920000C46174602232822002103F085FF064625
:10A93000F0B1456805F10800E4B1214604F11003C7
:10A9400051F8042B40F8042B9942F9D105F1180075
:10A95000AFB13A4607F1100352F8041B40F8041B4C
:10A960009A42F9D160232B60FF23AB710023EB7176
:10A970003046F8BD1022214610F044FAE6E71022D6
:10A98000394610F03FFA012385F82730EAE7000046
:10A99000F8B5044615460E4609B90020F8BDD1F8B1
:10A9A000A470FA04F9D50822184910F061F938B1F9
:10A9B0002378FF2BF1D1637803F00F03022BECD146
:10A9C000FB0704F1080105F1100201D4FCF76CFE4D
:10A9D00096F8710107F04EF9C0B20028DDD0A876D4
:10A9E0002B4604F1100254F8041B43F8041B944254
:10A9F000F9D1B6F972311B0103F4F87343F48063A3
:10AA000043F006032B830120C8E700BFF6CD030007
:10AA10002DE9F843054602F0EAFF044600285AD023
:10AA200002F0B8FCB4F97211002000F09FFC00287D
:10AA300044D00368B4F972119A8EC2F304129142A1
:10AA400001D0FCF731FE043318462A46214600F0B7
:10AA500007F92946204602F0D1FE061EF1DBA119B6
:10AA60000B7D03F01F02102A32D003F00702013AD7
:10AA7000012A28D80133D4F898700B75751C2D0164
:10AA800005F1060868352544144B1548B3F90090C4
:10AA90002946FEF7B3F804EB06100023C0E91E3781
:10AAA000A04444F6CF73A0F88230C0F88480A0F8A8
:10AAB000809029460A48FEF769F804E084F89C0073
:10AAC000204601F077FC2046BDE8F84302F069BC5F
:10AAD0004EF66027D2E7BDE8F88300BF381F00209C
:10AAE000D42000202DE9F3470D461F46044608B93F
:10AAF000FCF7DAFDD0F8A430D90403D4042002B066
:10AB0000BDE8F08779780229F8D11278882AF5D142
:10AB1000DB07F3D56B4690F8CC2000F1C40102F0BE
:10AB2000F8F90828EAD1DDE90023F968B8688B4212
:10AB300008BF8242E2D1BB78012B4AD01BB1022B65
:10AB40004DD0B878DBE705F118012046B7F806804C
:10AB500002F054FE061ED1DB98FA98F81FFA88F32B
:10AB6000012B04EB06021CBF4EF6602808FB03F81D
:10AB7000137D2A4806F101054FEA051523F01F034E
:10AB800043F0100305F1060905F168052544137526
:10AB9000234B18BFA8F56A482946B3F900A014BF93
:10ABA000A8F1600847F23058A144FEF727F804EBFB
:10ABB00006140023C4E91E3844F6CF73A4F882308B
:10ABC000C4F88490A4F880A029461448FDF7DEFF5D
:10ABD000B7E705F11801204602F0D2FFB1E7B4F95A
:10ABE000721105F1080000F0C1FB064600283FF491
:10ABF0007FAF00F083FB002000F0A2FB28B984F8AF
:10AC00009C00204601F0D6FB9BE73368002B3FF405
:10AC10006FAF05F11800FFF7FBFE92E7D42000208C
:10AC2000381F002013B58A784878402A8CBF032348
:10AC30000223984211D1CC88C87864BAC0F30013BB
:10AC4000A4B200930831234600F00F0003F076FF12
:10AC50004EF66020604302B010BD4FF0FF30FAE7BF
:10AC6000F0B5074685B015461E460C4609B9FCF7F7
:10AC70001BFDB1F97211002000F078FB45B3D4F848
:10AC8000A430DA0424D518B30068B4F97221838E95
:10AC9000C3F304139A421BD13146043006F03FFE41
:10ACA000B0B1D4F8A430DB0710D502AB94F8CC20B7
:10ACB00004F1C401204602F02CF9082806D1002333
:10ACC00002AA0F21184605F0D2FC10B905B0F0BD5C
:10ACD0000020009033462A462146384601F05CFFAA
:10ACE000F4E72DE9F04117469846054608B9FCF708
:10ACF000DBFC01F10806B0F97211304600F0D4F91E
:10AD0000044628B190F8363013F0010F08BF002434
:10AD1000D5F8A430DA07EAD5414695F8710106F076
:10AD2000BFFF00281ADB74B90322B5F9721130464F
:10AD300000F00AFA044688B13B78872B03D1838E52
:10AD400023F00803838694F83630DB0706D53B787A
:10AD5000862B05D1A38E43F00803A386BDE8F081BE
:10AD6000872BFBD0A38E23F00803F6E708B510224B
:10AD700003490FF07DFFB0FA80F0400908BD00BF25
:10AD800026CE03002DE9F041069C16461F460028FA
:10AD900035D0A1B3FFF7EAFF05461E4B9C429ABF90
:10ADA0004FF47A7044434FF0FF3487B305B176B364
:10ADB00000F038F92DB33946304600F071FA0546F7
:10ADC00010B3154B1860ACB1071D144B1448B3F900
:10ADD00000803946FDF712FF002644F6CD73C5E921
:10ADE0000164EB812D61A5F80C8039460C48FDF714
:10ADF000CDFE344600F01CF92046BDE8F081012567
:10AE0000CBE76FF08504F5E76FF00B04F2E76FF026
:10AE10001504F1E73789410030210020381F002058
:10AE2000D420002038B504460D4600F0FBF824B1CC
:10AE30001DB12046FFF79AFF20B100F0B7FA08B124
:10AE400000F05CFABDE8384000F0F2B82DE9F041BE
:10AE500006460F469846154602B10BB9FCF724FC8E
:10AE6000106838B92C68204600F0A8FB0446F0B9F9
:10AE7000286003E000F0B6FB0028F3D12C682046E0
:10AE800000F05EFA044668B120680028F7D027B1C8
:10AE9000838EC3F304139F42F1D156BB4146204633
:10AEA00000F0ACFA201C2C6018BF012018E094F8C8
:10AEB0002430002BD2D020680028D4D0042B02D11B
:10AEC000E38CDB07CFD527B1838EC3F304139F42F6
:10AED000C9D13EB92046414600F092FB2C600120CA
:10AEE000BDE8F0813146043006F019FD0028F1D1AB
:10AEF000B9E73146043006F012FD0028BFD0CDE797
:10AF000030B590F820308BB0044613B1FFF72EFF18
:10AF1000F8B194F82110154A154B1648002914BFB2
:10AF20001146194607F06EFD04F110052846FFF79B
:10AF30001DFF40B929462822684606F05DFD0146FE
:10AF40000D4807F05FFD618C0C4807F05BFD0BB00E
:10AF500030BD21462822684606F04EFD94F8202098
:10AF60000146074807F04EFDDEE700BFFACA0300BE
:10AF700022F00300FCCA03000ECB030016CB030033
:10AF800007CB030030F9081FFCF7F2BD08B510220B
:10AF900003490FF06DFEB0FA80F0400908BD00BF14
:10AFA00026CE030008B590F8361021B938220FF0EC
:10AFB00029FF012008BD0020FCE770B504461046BB
:10AFC0000E461546FFF7EEFF4CB120462B1D04F14F
:10AFD000100250F8041B43F8041B9042F9D11F2EB5
:10AFE00001D9FCF761FBAB8E23F4F87343EA061337
:10AFF000AB8670BD064A13683BB1186883420BBF2D
:10B000000023026813601A6070471846704700BF3B
:10B01000D020002001490248FDF710BE85AF020094
:10B02000D42000200148FCF7BDBB00BFF020002069
:10B030000148FCF7BBBB00BFF020002070B50F4CEF
:10B04000A38EC3F30413994205460E4604D094F828
:10B0500036303BB1002070BD58B9201DFFF796FF78
:10B060000028F4D02846054A3146FFF7A6FF0348DA
:10B07000F1E7211D06F053FCF2E700BFF8200020A5
:10B0800028B13830064B984203D30020704705485A
:10B09000F8E790F83620002AF8D13830F3E700BFFF
:10B0A00030210020F820002008B518B9FCF7FCFA80
:10B0B0000A4811E0094B93F8362062B19B8EC3F326
:10B0C000041313B109B1994205D10146044806F0B1
:10B0D00026FC0028ECD1002008BD00BFF82000208D
:10B0E000FC2000207047000010B590F8363023F0A7
:10B0F000010300F1240180F8363004461048FDF7C2
:10B100007DFD104A116821B10B689C4206D1FFF702
:10B1100071FF2046BDE81040FFF744BF0B461B6897
:10B120001868844202D09942F9D1F2E7002BF0D09E
:10B130002168196011688C4208BF1360E9E700BFFD
:10B14000D4200020D02000202DE9F0478846074673
:10B1500008B9FCF7A9FA02F007052B1F022BF8D952
:10B16000FFF76CFF002841D1FFF744FF814600281C
:10B1700057D0DFF8B4A00446564694F8360030F0B5
:10B18000010025D1A38E03F4C0631BBB2046FFF74B
:10B19000ABFF414622463846FFF70FFFA38E2B43F5
:10B1A000A386012384F836302146DAF800309BB1BB
:10B1B0001B682360DAF800301C60346099B9FFF72F
:10B1C00019FF81450446D8D133683BB9246009E0B2
:10B1D0000021EAE70146E8E72460EEE71B68236008
:10B1E00033681C6034600846BDE8F08790F836305C
:10B1F000DA0708D4828E22F007022A4343F00103C3
:10B20000828680F8363003683BB9074B1A6832B142
:10B21000126802601A68106018600146E3E7006077
:10B22000FAE70146DFE700BFD020002070B50C46EA
:10B23000054600B109B9FCF737FA0A46031D00F1CB
:10B24000140153F8040B42F8040B8B42F9D1A88E79
:10B250002083C0F3041002F092F8082206460F493A
:10B2600020460FF005FD38B12378FF2BE3D163783A
:10B2700003F00F03022BDED1002EDCD0D6F8A43071
:10B28000DB0705F10C0104F11002D4D596F8710129
:10B2900006F0F0FC0028A8BFA07670BDF6CD030034
:10B2A000F8B5154C256807460E469DB1AB8EC3F325
:10B2B0000413994201D00020F8BD291D06F02FFB90
:10B2C0000028F8D095F8363043F0080385F836307A
:10B2D0002046F1E7FFF7B2FE024620600028EAD0E0
:10B2E00031463846FFF769FE226892F8363043F05F
:10B2F000080382F83630EBE73C1F0020036810B5E6
:10B3000004468BB1011D0C48FDF778FC206890F8CD
:10B31000363023F0080380F83630FFF743FE14225E
:10B32000002120460FF06EFD044B1A68A24204BFB4
:10B3300000221A6010BD00BFD42000203021002060
:10B3400028B11430074A904203D3002070470648C2
:10B35000F8E703681BB193F83630002BF6D11430B0
:10B36000F1E700BF501F00203C1F002010B520B1A6
:10B370000D4B1C682CB900200FE00029F8D1FCF718
:10B3800093F921B1A38EC3F304139942F3D128B9E1
:10B3900094F836301B07F2D5034810BD211D06F086
:10B3A000BEFA0028E7D0F3E73C1F002010B5124C8E
:10B3B0002168B1B10B689B8E03F00703013B012BA1
:10B3C0000DD80020FFF7BCFF68B90846FFF7B8FFAB
:10B3D00001B110B90020FFF7B3FF20600146084615
:10B3E00010BD0846EEE703689B8E03F00703013BA0
:10B3F000012BF2D8E6E700BF3021002038B50C461B
:10B40000054610B1036803B109B9FCF74DF91022E4
:10B41000002120460FF0F6FC114A12680023AA42D0
:10B4200084F8203008D12B689B8E03F00703013B82
:10B43000012B94BF0023012384F821302B6804F1F1
:10B4400010011A1D143352F8040B41F8040B9A42F0
:10B45000F9D12B689B8EC3F30413638438BD00BFFE
:10B46000302100202DE9F84F05468A461F469046B8
:10B4700032B11046FFF78AFD10B97B1E7F2B01D930
:10B48000FCF712F9DFF8E8B0044681469BF8242067
:10B49000EAB9002C08BF5C4609F10109B9F1080FAF
:10B4A0000BF1300BF2D1002C46D02368002B49D190
:10B4B00051462846FFF7C2FD06462060002841D1CC
:10B4C0000146302220460FF09DFC344634E09BF8C4
:10B4D00025209742E0D15846414650F8046B06F0CB
:10B4E00033FA8742D8D8002ECAD0B28EC2F30412E3
:10B4F0009245D1D104363046FFF748FDF8B9002D0A
:10B50000CAD03146284606F00AFA0028C4D005F110
:10B51000100255F8041B46F8041B9542F9D130225D
:10B5200002FB09F9124B53F8091091F8362042F04A
:10B53000400281F836205C462046BDE8F88F002D99
:10B54000EDD0E4E7226851462846FFF736FD204655
:10B55000FFB250F8042B92F8363043F0400382F8E3
:10B56000363041463A4606F00EFA84F82570E3E795
:10B57000501F002010B590F824300446DBB9006855
:10B5800090B10D4B08229C4202D0196888420BD022
:10B59000013A03F13003F6D190F8363023F040033E
:10B5A00080F83630FFF7FEFC204630220021BDE84F
:10B5B00010400FF027BC10BD501F002028B13030C4
:10B5C000064B984203D3002070470548F8E790F8EF
:10B5D0002420002AF8D13030F3E700BFD02000202B
:10B5E000501F0020054B984206D303F5C0739842C4
:10B5F0002CBF00200120704700207047501F002002
:10B6000038B50B4610B1026802B109B9FCF74CF825
:10B61000021D00F1140452F8045B41F8045BA242DD
:10B62000F9D190F8252083F82020002183F82110FB
:10B630000268948EC4F304145C8490F824000428F7
:10B6400003F1100305D118461022BDE838400FF071
:10B65000D9BB111D143251F8040B43F8040B91426D
:10B66000F9D138BD2DE9F8431646804600B10AB934
:10B67000FCF71AF8184D0024274605F5C07995F80F
:10B6800024305BB14146281D06F05EF9B84205D969
:10B6900095F8253083429CBF07462C4630354D45F2
:10B6A000EDD134B194F82430042B0FD1E38CDB07B7
:10B6B0000CD4FFF77BFE18B944B96FF0710003E0BA
:10B6C0003146FFF79BFE0020BDE8F8833146204657
:10B6D000FFF796FFF7E700BF501F002010B50446A4
:10B6E00000F114010648FDF789FA94F8243023F09C
:10B6F000040384F824302046BDE81040FFF73ABF29
:10B70000D42000202DE9F843044600F11401164826
:10B71000FDF774FA2368988EC0F3041001F02FFE31
:10B720000546E0B100F1160604F104094946304629
:10B7300094F8258006F008F905F12607804549466A
:10B74000384694BF94F82580002606F0FDF8804521
:10B7500001D926B137463946284602F011FA20466B
:10B76000BDE8F843FFF7BABFD42000202DE9F84325
:10B770001F4613460A4601460020089DFFF772FE49
:10B78000044600283ED090F82430AF4243F0040332
:10B7900080F8243001D2FBF787FF07EA0506701C0A
:10B7A00037D01E4B1868436901332ED00EF0F3FBDF
:10B7B000691C06461DD01A4B1A48B3F9009004F1D3
:10B7C00014084146FDF71AFA0023C4E9053544F68A
:10B7D000CC73E3832462A4F81C9041461148FDF722
:10B7E000D5F9AA1C05D0AB19013301D106B1013539
:10B7F0003544FB1C0FD8BB19013308BF01373E4449
:10B80000C4E90A652046BDE8F88383685B68984709
:10B81000CEE73546F4E73E46F2E700BFC0F303004B
:10B82000381F0020D420002010B50A4B9B6900224D
:10B830001BB94FF0FF32104610BD5C6822445C8992
:10B840008C4204D10028F6D0DC688442F3D01B6817
:10B85000EEE700BFD420002038B50D46044608B9F5
:10B86000FBF722FF082BFBD84B1E1F2BF8D8FFF746
:10B87000D9FB294600222046FFF766FC054620B981
:10B88000FFF7D6FB6FF00B0038BD08220D492046AC
:10B890000FF0EEF938B12378FF2B10D1637803F065
:10B8A0000F03022B0BD1AB8E23F4C06323F00703ED
:10B8B00043F4C063AB86FFF7BBFB0020E4E76FF007
:10B8C0001500E1E7F6CD030070B505460E46FFF71B
:10B8D000A9FB00242046FFF7D3FB044668B1A38EE2
:10B8E000C3F304139E42F5D1211D284606F017F834
:10B8F0000028EFD02046FFF7F7FBBDE87040FFF7C8
:10B9000097BB38B50546FFF78DFB00242046FFF7AF
:10B91000B7FB044678B194F83630DA07F6D5211D26
:10B92000284605F0FCFF0028F0D0A38E5B0702D06C
:10B930002046FFF7D7FBBDE83840FFF779BBF8B5E5
:10B9400006460D4617460C68FFF76CFB2046FFF7CE
:10B9500097FB044668B194F83630DB07F6D526B17C
:10B96000A38EC3F304139E42F0D139462046FFF75D
:10B970005DFC2C60FFF75CFB2868003018BF0120DD
:10B98000F8BD000010B58AB001460446282268467A
:10B9900006F032F801460F4807F034F8218BC1F366
:10B9A000041111B10C4807F02DF86A46A17E04F18C
:10B9B000100006F08EF90146084807F023F8238BA3
:10B9C0001B0702D5064807F01DF8064807F05AF88D
:10B9D0000AB010BDAAE203001FCB030028CB03006E
:10B9E00033CB030022F0030010B5082209490446B6
:10B9F0000FF03EF948B12378FF2B08D1607800F0B2
:10BA00000F00831E5842584110BD0120FCE7002062
:10BA1000FAE700BFF6CD030008B5102203490FF086
:10BA200027F9B0FA80F0400908BD00BF26CE030018
:10BA3000002102F0BBBD08B5FFF736FB28B190F836
:10BA4000363013F0010F08BF002008BD38B5056877
:10BA50005DB195F836301B0707D5FFF74FFC002482
:10BA60002046FFF7ABFD044600B938BD23689D4270
:10BA7000F6D1FFF77FFDF3E7F8B5054617460698C0
:10BA80000E46A9B191F871210A2A11D128461A4609
:10BA900005F1100150F8044B42F8044B8842F9D1EB
:10BAA000B6F8722112011A8300229A76012407E067
:10BAB00040B91A4631462846FEF76AFF044628B1C7
:10BAC0002046F8BD1946FFF7B1FBEFE7D6F8A41002
:10BAD00011F4805103D03846FFF7AAFFF0E70EB10A
