:020000022000DC
:106000000002002085A4020021A40200DDA30200FA
:1060100031A4020041A4020051A4020000000000CB
:10602000000000000000000000000000C1A302000A
:1060300061A402000000000075A3020071A4020028
:106040005D61030059780300A56C030015A90200E7
:1060500031A902005D6103005D6103005D61030021
:106060005D6103006D6A0300736A03005D610300F4
:106070005D6103005D6103005D6103005D6103001C
:106080005D610300C56603005D6103005D6103009F
:106090005D6103005D6103005D6103005D610300FC
:1060A0005D6103005D610300796A03007F6A03009C
:1060B0005D6103005D61030000000000000000005E
:1060C0005D6103005D6103005D6103004DA9020095
:1060D0005D6103005D6103005D61030055720300B3
:1060E0005D6103005D6103005D610300000000006D
:1060F000000000005D6103000000000069A90200CB
:10610000F7B50D4616461F46044608B903F040FA97
:10611000006810F095F90023CDE900732A46334654
:106120003921206810F017FA0546206810F0A4F90C
:10613000281E18BF0120404203B0F0BD30B5002337
:10614000DCB241FA04F5ED0703F10103F8D590F94B
:106150000030A2405A4011404B40037030BD73B52F
:106160000D461646044608B903F012FA006810F00E
:1061700067F901230022CDE9003239212A4633464E
:10618000206810F087F90546206810F075F9281E80
:1061900018BF0120404202B070BD2DE9F3411C46FA
:1061A00005460E46174600235FFA83F847FA08F2C1
:1061B000D20703F10103F7D501230DF107023146A0
:1061C0002846FFF79DFFB0B99DF9073004FA08F49F
:1061D0005C4004EA0702534031460DF107022846AD
:1061E0008DF80730FFF7BBFF003818BF0120404291
:1061F00002B0BDE8F0814FF0FF30F9E737B5044653
:1062000008B903F0C5F90029FBD08B88B3F5807F6E
:10621000F7D84B89B3F5807FF3D8CB790F2BF0D823
:106220000FC984E80F004FF4FA7501230DF107023E
:1062300092212046FFF764FF80B99DF80730AB2B11
:1062400011D18DF805000DF1050280212046FFF7E0
:1062500086FF58B14FF0FF3003B030BD4FF0FF3034
:10626000013DE2D1F8E76FF00100F9E7A3880DF1F5
:1062700006025B42812120468DF80630FFF76FFF52
:106280000028E7D1A37903228F212046FFF785FF5D
:106290000028DFD1E379002B4AD1237AC0228F2155
:1062A0002046FFF77AFF0028D4D1637A0C228F2191
:1062B0002046FFF772FF0028CCD163890DF1070259
:1062C0005B42832120468DF80730FFF748FF002806
:1062D000C0D1012211468DF805000DF10500FFF730
:1062E0002DFFA288003A18BF01220221FFF726FFE6
:1062F000E279003A18BF01220421FFF71FFF6289EB
:10630000003A18BF01220821FFF718FF024680213A
:106310002046FFF724FF00289CD1237B02228D21F9
:106320002046FFF73AFF003818BF0120404293E7AC
:10633000013BDBB23F228E212046FFF72EFF0028D3
:10634000ABD087E713B50C4608B903F021F9002953
:10635000FBD0022301AA9421FFF7D2FE20B9BDF899
:106360000430238002B010BD6FF00300FAE713B5CC
:106370000C4608B903F00CF90029FBD00023009368
:10638000ADF804306A4606239621FFF7B9FE50B9EE
:10639000BDF800302380BDF802306380BDF80430C2
:1063A000A38002B010BD6FF00300FAE713B50C46EE
:1063B00008B903F0EDF80029FBD00023ADF8043054
:1063C00001AA01239C21FFF79BFE20B9BDF80430F0
:1063D000238002B010BD6FF00300FAE710B50C4641
:1063E000FFF7E4FF18B91A23E380012010BD6FF016
:1063F0008B00FBE710B50C46FFF7A4FF18B91A2372
:10640000E380012010BD6FF08B00FBE713B50C4655
:106410006946FFF7ACFF68B9BDF800302380BDF8CE
:1064200002306380BDF80430A3801A23E380032088
:1064300002B010BD6FF08B00FAE7000038B5002005
:1064400011F0F2FF04460C480EF0BAFE0B480EF0B5
:10645000B7FE002524B9BDE8384007480EF0B0BEAD
:10646000A2680748294601350EF03EFE284611F085
:10647000DBFF0446EEE700BFBC2B0400FCF8030082
:106480000BF9030010B508490522044618F0B5FFC2
:1064900040B106490422204618F0AFFFB0FA80F060
:1064A000400910BD0220FCE714F903008308040032
:1064B0002DE9F0478EB0904607460E461C4619F06F
:1064C00080F87F28024604D9012528460EB0BDE891
:1064D000F087394601A814F05DFF81460028F3D10A
:1064E000BDF82A5003992A46204619F05CF8BDF8F9
:1064F00030A004F80590BAF1000F0CD025441749DC
:106500002046554418F04AFF06995246204618F096
:1065100061FF85F801902146304614F0AEFD054636
:10652000C8B9F38A63B9052201990D4818F065FFCF
:1065300041F2336341F23462002808BF1346F3820C
:10654000B8F1000F02D0079BC8F80030394620464A
:1065500019F021F8B9E74FF0FF35B6E753290400E9
:1065600014F903002DE9F04F6E4B81460C460FCB1A
:10657000F5B009ADB9F1010F85E80F0000F0868094
:1065800067686949384618F0FCFF00BB05F022FC3B
:1065900041F23361044665480EF0A6FD644B654840
:1065A00019880EF0A1FD214663480EF09DFD634859
:1065B0000EF09AFD624803783BB10EF001FE4FF0F9
:1065C0000008404675B0BDE8F08F5E48F5E75E49CB
:1065D000384618F0D6FF58BBB9F1040F13D15B4908
:1065E000A06818F0CEFF024600284FD1544B5849FE
:1065F000E068FFF75DFF0028E1D056480EF0E0FDAF
:106600004FF00108DDE7B9F1030F3FD15249A0680F
:1066100018F0B7FF0546002838D1014618224C482B
:1066200018F0B4FE80222946454818F0AFFEC6E7B0
:10663000002655F8041B384618F0A3FF002808BFB1
:10664000B24606F1010618BF4FF0FF3A042E1AD0E9
:10665000BAF1FF3FEDD0BAF1010F36D1B9F1020F17
:1066600014DDA5683D49284618F08BFF0746002831
:106670004FD03B49284618F084FF00284BD1032512
:106680005746D34624E0BAF1FF3FE4D121683548AC
:106690000EF02AFD216834480EF026FD21683348AB
:1066A0000EF022FD216832480EF01EFD21683148AF
:1066B0000EF01AFD30480EF083FD30480EF080FDDC
:1066C0002F480EF07DFD2F4898E700270225BB4696
:1066D0004D45DBDABAF1000318BF012305932A49BF
:1066E00054F8250018F04DFF08B9013505904D45C7
:1066F000CCDAAB00069354F82500244B08AA0DA968
:10670000FFF7D6FE8046002844D021480EF058FD01
:10671000BCE70325B5E70027CDF814A00225BB464A
:10672000DDE700BFA82C04001AF903001FF90300DD
:10673000400D002044F903005CF9030074F90300E4
:10674000E80D002087F903009AF90300D92404001A
:10675000680E00208CF90300A0F90300A6F90300DD
:10676000A9F9030026FA03005AFA030083FA03008A
:1067700093FA0300C1FA0300D8FA0300E0FA030019
:1067800017FB030043FB0300ACF90300680D002076
:10679000AFF9030013AECDE9000053464FF49672F3
:1067A00029A9304604F072FEBBF1000F04D03A462E
:1067B000062130460FF090F8DFF840A19AF800303B
:1067C0006BB9089A5AB11046079218F0FAFE2F21B9
:1067D00003460091079A0B2130460FF00EF83268FD
:1067E00005991378013523F0300343EA0113A945D5
:1067F000137060DD00220C2130460FF06DF8069B0F
:10680000E318586818F0DDFE05469AF800301BB111
:10681000324930460FF06FF8002D50D0012130463C
:106820000FF07CF8B389AB42814646D3069B706873
:1068300023442A46596818F0B6FE4D443368284868
:10684000598849BA2A4689B20EF04EFC9AF80030AF
:10685000002B3AD12148FFF715FE0DAA21490290DD
:10686000002300910193294629A804F069FE00281D
:1068700030DD1D4A138801331380BBF1000F17D0A0
:106880001A4C1B4922681B4804F040FE87B9316846
:10689000174811F8042B0DAD02F00F02226018F01A
:1068A00082FE0FCD134C0FC495E8030084E803006B
:1068B00002F0DEF885E60025A7E70F489EE62946A8
:1068C00030460FF02BF80546B8E70C48FFF7DAFD25
:1068D0000B4AC3E70B480EF073FC72E6680D00200C
:1068E000E3F9030009690200400D0020440D002077
:1068F000480D0020500D0020C3F90300E80D0020D2
:10690000680E00200BFA03002DE9F0470368042B02
:1069100094B005460C46164609D10B68664859885E
:1069200049BA89B214B0BDE8F0470EF0DDBB062BC2
:1069300047D162480EF044FC172204A920460EF00D
:1069400046FF20B1059B13B95D480EF039FC236862
:106950005C485B785C495A09022A18BF014603F07B
:106960001F035A480EF0C0FBA389002B3CD02046E1
:106970000EF0FAFDA28938B1282805D023685B788B
:106980005B09043B012B24D86368514811460EF083
:10699000ABFB172204A920460EF019FF00287DD07A
:1069A0009DF91930002B00F08480236893F8009043
:1069B000059BEBB9474B1B78D3B947480EF000FC59
:1069C0006CE0032BB8D0454814B0BDE8F0470EF09A
:1069D000F7BB114642480EF087FBA189606800238F
:1069E000102211F02DF8D4E73E480EF0E9FBD0E775
:1069F0003848DFF8F48018F0E4FD3649024607A86D
:106A000014F0C8FC98F80030D4F800A0002B48D04F
:106A10000023CDE9003301234FF4967251462046FE
:106A200009F0300904F032FDB9F1200F01BF2268EE
:106A3000137823F030031370059B9DF81820013361
:106A400042EA03121721204605930EF045FF98F8FD
:106A500000301BB1079920460EF04DFF0021204663
:106A60000EF05CFF204B1B4A074698F800000028F8
:106A700018BF1A461046FFF705FD02902B6B0193D5
:106A80001A4B0093206800233246394604F058FD23
:106A9000002803DD164A13880133138014B0BDE8C3
:106AA000F0870D9F38460FB118F08BFDCDE90070CF
:106AB000B1E7104882E700BF7FFB03009FFB0300A4
:106AC00003FC030079FB030071FB03001BFC0300C4
:106AD0003DFC0300680D00205EFC0300EAFB0300A0
:106AE000FFF903004EFC0300E80D002009690200D5
:106AF000400D002086FC03002DE9F0438FB01746BF
:106B000006460D4618F05DFD7F28024604D9012493
:106B100020460FB0BDE8F083314601A814F03AFCDE
:106B200080460028F3D1BDF82A401C4B0399224629
:106B3000184618F038FDBDF8309000F80480B9F11F
:106B4000000F0BD0164918F029FC06994A4618F098
:106B500041FC03464C44013303F804800F492846A6
:106B600014F08BFA0446B0B9EB8A63B90522019997
:106B70000C4818F042FC41F2336341F234620028C1
:106B800008BF1346EB820FB1079B3B6031460348B9
:106B900018F001FDBCE74FF0FF34B9E714110020F5
:106BA0005329040014F90300042807B50AD1114B36
:106BB000009338231048114A114900F0F9FF4FF0B3
:106BC000FF300BE006280CD10E4B0B4800930B4A0C
:106BD0000B49412300F0ECFF6FF0010003B05DF8BA
:106BE00004FB032803D0084B00934523E2E7002071
:106BF000F4E700BFF0FC0300EBFC03004E2D0400A3
:106C0000AEFC03009FFB0300EAFB0300F0B5006845
:106C10008FB00E461446FFF7C7FF90B13E4B3F4A78
:106C200000933F493F484FF4BD7300F0C1FF3E4B16
:106C30004FF0FF321A603D480FB0BDE8F04011F050
:106C4000D0BC3B4B354A36493A4800934FF4C073A9
:106C500000F0AEFFE37C0C93A37C0B93637C0A9360
:106C6000237C0993E37B0893A37B0793637B0693C1
:106C7000237B0593E37A0493A37A0393637A0293C5
:106C8000237A0193E3790093A379627921792A48E1
:106C90002A4D0EF029FAE18A29480EF025FA2368D8
:106CA000C5F8A831A38AA5F8BC31E38AA5F8BE319E
:106CB00005F5D677231D1434186859683A4603C27F
:106CC0000833A3421746F7D17668174C3C2130466B
:106CD00018F073FB3E21871B304618F06EFB801BBB
:106CE00057EA00030CD50C4B00930C4A0C490D4895
:106CF00040F28F1300F05CFF4FF0FF3323609AE700
:106D00000138791CC21B31440E4818F04CFC012399
:106D100085F864310023F1E779FB0300E92C0400D6
:106D2000AEFC03003AFD030000020020D01000205A
:106D300040FD0300FFFC030052FD0300040200209D
:106D40009AFD03006903002013B50C460068FFF7A5
:106D50002BFFA389082B0ED9114B0093114A12491E
:106D6000124840F20B1300F023FF114802B0BDE8B7
:106D7000104011F036BC0F4A0E48002313605360D8
:106D8000A289616818F00FFC636801930A4B0093B5
:106D9000044A054909484FF4897300F009FFE4E704
:106DA0009FFD03001E2D0400AEFC0300EBFC03005E
:106DB000EC10002011020020B1FD0300FFFC0300D5
:106DC00073B50C460068FFF7EFFE63681B78662B0F
:106DD00008D100231A4A1B48137002B0BDE8704066
:106DE00011F0FFBB742B29D0174B0093174A184999
:106DF0001848194E40F24F1300F0DAFE0025A3891F
:106E0000AB420EDC0A200EF0CFF963680193134BFE
:106E100000930E4A0E490F4840F2551300F0C8FE89
:106E2000D7E76368094A5B5D09490A48CDE9006311
:106E30004FF4A97300F0BCFE0135E0E70123C9E778
:106E4000DC100020E0100020C2FD03000A2D040029
:106E5000AEFC0300EBFC0300C9FD0300CFFD030003
:106E600073B50C460068FFF79FFE63681B78662BBE
:106E700008D10023194A1A48137002B0BDE87040C7
:106E800011F0AFBB742B26D0164B0093164A17494E
:106E90001748184EDC2300F08BFE0025A389AB4277
:106EA0000DDC0A200EF080F963680193124B009309
:106EB0000D4A0E490E48E22300F07AFED9E76368D6
:106EC000094A5B5D09490A48CDE90063DF2300F008
:106ED0006FFE0135E2E70123CCE700BFF810002088
:106EE000FC100020EDFD03002F2D0400AEFC03007C
:106EF000EBFC0300F3FD0300F8FD03002DE9F34173
:106F00000C460068254EFFF74FFE63680193244B43
:106F10000093244A24492548542300F049FE0025C3
:106F20006468356250273C21204618F046FA8046B6
:106F300020B13E21204618F040FAA0B91C4B019523
:106F40000093184A184919481A4D1B4F632300F043
:106F50002FFE0024336AA34215DC184802B0BDE8B6
:106F6000F04111F03EBBA0EB080407FB0560621E78
:106F700008F10101243018F016FB356A013401359F
:106F800044443562CFE7CDE90075064A0649074813
:106F9000662300F00DFE01345035DBE704020020CB
:106FA00015FE03005E2D0400AEFC0300FFFC030091
:106FB0001DFE030028020020BFFD03000811002071
:106FC00000231A46012111F0B1BA37B5054608462B
:106FD0000C4618F0F6FA2F22034600920B212246A7
:106FE00028460EF00AFC03B030BD0000F7B50E468F
:106FF0005B21074618F0E1F95D21C51B384618F002
:10700000DCF9C41B55EA040302D4013C641B09D11A
:107010000C4B009387230C4A0C490D4800F0C8FD27
:1070200003B0F0BD282C03D90A4B00938C23F2E760
:10703000013522467919304618F0B5FA0023335548
:10704000EEE700BF32FE03003E2D0400AEFC03005D
:10705000EBFC03004EFE0300F0B5002593B028467C
:107060000EF0BAFF0546D0B140230093002202ABD8
:10707000092109F06BF80028F1DB0609EFD002AC1A
:1070800000272378FF2B0DD1637803F00F030E2B1D
:107090001BD11148104D282221460CF089FC2846AE
:1070A00013B0F0BD0D490822204618F05FF960B119
:1070B0000B491022204618F059F930B10949102225
:1070C000204618F053F90028E3D10137B74204F104
:1070D0001004D6DBC3E700BF800E0020D62E0400CC
:1070E000F62E0400E62E040000B58BB06946FFF7CB
:1070F0007DFFFFF7B1FF0146684618F042FAB0FA8B
:1071000080F040090BB05DF804FB000070B5094C3D
:107110000025266A2434AE4203DC4FF0FF352846B2
:1071200070BD2046044918F0B8F950340028F6D153
:107130000135F0E70402002080FE030070B5ECB0DA
:107140002948002104AD11F0E1F928482A4605A993
:10715000FFF7D2FC10B126480EF032F800230BAC3A
:10716000CDE900334FF49672012321A9204604F0A3
:107170008DF9002802DA1F480EF022F829681E4D0A
:107180002046FFF722FF07231C49009302221C4BD5
:1071900020460EF065FB2268137823F0300343F09D
:1071A00010031370002120460EF0B8FB0023154A8F
:1071B00000920146CDE9013305AA21A804F0C0F9E7
:1071C00005AC06460FCC0FC594E80300002E85E8F9
:1071D000030002DC0C480DF0F3FF0348FFF7F0FE5C
:1071E0000A4B18686CB070BDD010002088FE0300F8
:1071F000ABFE0300BCFE0300AC03002068270400C4
:10720000C7FE03000D6C0200CFFE03000002002049
:10721000044890F86431002B00F5D47008BF0020BA
:10722000704700BF04020020044890F86431002B2E
:1072300000F2651008BF0020704700BF0402002064
:1072400000B599B0FFF7F0FF0B4A0C49034608A8B8
:107250000DF06AFF01AA02A908A8FFF74DFC10B1C2
:1072600007480DF0ADFFFFF7DFFF014602A802F06F
:1072700013F819B05DF804FBE4FE0300F6FE03000A
:10728000ABFE03002DE9F043EDB004AE0F4614460B
:1072900098463246304BDDF8D091336005A9FFF7B0
:1072A0002BFC40B12D4B00932D4A2E492E4840F225
:1072B000172300F07DFC00230BADCDE900334FF424
:1072C0009672434621A9284604F0E0F8002808DA1F
:1072D000264B0093224A234923484FF4077300F0BA
:1072E00067FC31682846FFF770FEB9F1030F2A6882
:1072F00001D902F04DF9137823F0300343EA091362
:10730000002C137022DD012128460EF007FB3946C0
:1073100006462246686818F046F9A119759A009247
:107320000023CDE9013305AA21A804F009F90028BA
:1073300009DC0F4B01900093094A0A490A4840F2C0
:10734000312300F035FC6DB0BDE8F0830021284604
:107350000EF0E4FA0146E1E7AA0A0400ABFE0300DE
:10736000D82C0400AEFC03003AFD0300BCFE030071
:10737000FBFE030007B50948002111F0C7F8002201
:10738000074B01930748009201231146FFF77AFF4C
:10739000024803B05DF804EBFFF712BE08110020AD
:1073A000FD6E020004FF030010B596B00446FFF71F
:1073B00053FE104A0346502102A80DF0C9FE0021D9
:1073C0000D4811F0A3F802A818F0FBF80B4B01933D
:1073D00000230246009302A902232046FFF752FF32
:1073E0000548FFF7EDFD064B01221A77054B18788B
:1073F00016B010BD27FF0300FC100020616E0200D4
:1074000004020020F810002007B501230022CDE976
:10741000003211460223FFF735FF03B05DF804FB8D
:1074200007B50B48002111F071F80022094B0193B8
:107430000092012311460848FFF724FF0448FFF794
:10744000BFFD054BA3F20B3003B05DF804FB00BF9A
:10745000EC100020496D02001C05002013B5044605
:107460000021094811F052F80022084B01930092C4
:10747000012311462046FFF705FF0348FFF7A0FD53
:10748000034B187802B010BDE0100020C16D02005F
:10749000DC10002070B50F4C0025A4F12406336ADF
:1074A000AB4202DC4FF0FF3511E00B49204617F0EC
:1074B000F4FF10B901355034F1E72046FFF714FE10
:1074C0000028F7D12046FFF7C9FF0028F2D0284650
:1074D00070BD00BF28020020C302040013B50024C1
:1074E0000194049C0094FFF7CDFE02B010BD000093
:1074F00070B586B00646FFF709FE5023144D03FB16
:1075000000F424342C4405F51E72214611480DF078
:10751000EBFD2B7B8DF80C30D5F80D30CDF811300C
:10752000B5F81130ADF81530002503A920460095B7
:1075300002230B22CDF80D60FFF7D0FF064800951F
:1075400002232A462946FFF7C9FF06B070BD00BFD7
:107550000402002037FF03007C04002010B514490A
:10756000FFF744FD124B134A134850210DF0F0FD74
:1075700011480F4B114A04465021A0300DF0E8FD90
:10758000502120460A4B0E4A08440DF0E1FD2046EA
:10759000074B0C4A5021F0300DF0DAFD04F5A070D5
:1075A000034B094ABDE8104050210DF0D1BD00BF8A
:1075B000A810002052FF03002C04002069FF0300E4
:1075C00027FF03007EFF030093FF030030B5304B1D
:1075D00093F864319BB063B92E4B2F4800932F4A28
:1075E0002F4940F2712300F0E3FA4FF0FF301BB057
:1075F00030BDFFF719FE044608B117F0E2FFCDE9F0
:107600000040284902234FF4007204A803F03EFF13
:10761000002802DA6FF00100E9E7049A137823F0FA
:10762000300313700C21282204A80EF055F904A889
:1076300001F094FC0028EDDB012104A80EF06EF9A6
:1076400019490546059803F01DFB059B0193174B4F
:10765000124A134900930024054440F28B23144836
:1076600000F0A6FACDE90144124A0E4800942346E0
:10767000294603F065FFA042CCDD0F4B0C48009378
:10768000064A07494FF4257300F092FA2046AEE708
:1076900004020020DCFF0300EBFC0300C92C040003
:1076A000AEFC0300A80E0020A9FF0300B2FF0300F8
:1076B000FFFC0300AC030020BDFF030030B5304BDE
:1076C00093F864319BB063B92E4B2F4800932F4A37
:1076D0002F494FF4277300F06BFA4FF0FF301BB0C7
:1076E00030BDFFF7A1FD044608B117F06AFFCDE9F0
:1076F0000040284902234FF4007204A803F0C6FE9C
:10770000002802DA6FF00100E9E7049A137823F009
:10771000300313700C21282204A80EF0DDF804A811
:1077200001F01CFC0028EDDB012104A80EF0F6F8A6
:1077300019490546059803F0A5FA059B0193174BD7
:10774000124A134900930024054440F2B6230E4820
:1077500000F02EFACDE90144114A0E480094234668
:10776000294603F0EDFEA042CCDD0E4B0E480093FF
:10777000064A074940F2BF2300F01AFA2046AEE756
:1077800004020020DAFF0300EBFC0300B82C040025
:10779000AEFC0300A80E0020AA0A040003000400A7
:1077A000AC0300200F000400FFFC030000220C21AA
:1077B0000EF092B8F8B5054614480E4617460DF07F
:1077C000FFFC2B685B7803F01F03013B01249C4006
:1077D000A4B2012C18D145233A463146284603F07D
:1077E000C9FF2846FFF7E2FF214628460EF096F82B
:1077F000074B1B790446686823B1064903F042FA37
:107800002044F8BD0449F9E70020FAE72D00040000
:10781000040200203F000400440004002DE9F3416D
:107820001D4603680446587800F01F0001384FF0E9
:10783000010808FA00F080B202280E46174654D11B
:10784000636801932A4B2B4A2B492C4800932B2326
:1078500000F0AEF945233A463146204603F08AFF50
:107860002046FFF7A3FF264F414620460EF056F86C
:107870003B7906465BB32349606803F003FA61680D
:10788000214C0644214817F086FE6B6803F1180569
:1078900018685968224603C20833AB421446F7D130
:1078A0001A48FFF75BFE1A4B0093124A124913481D
:1078B000382300F07DF900233B7101233B773B7BAC
:1078C0000BB1FFF7FBFE304602B0BDE8F081114B73
:1078D000084A094909480093432300F069F90E4911
:1078E000606803F0CFF90644EDE70020ECE700BF45
:1078F0008C000400912D04004A000400FFFC0300EA
:10790000040200203F000400DC110020F4110020DC
:10791000A7000400B50004004400040070B504464C
:107920000068457805F01F05013D0120A84080B2A0
:1079300002281FD15868104BC68ADD8AAE4201D199
:10794000984215D00D4B0E4E01201871452320464C
:1079500003F010FF2046FFF729FF012120460DF01C
:10796000DDFF31460546606803F08CF9284470BDA0
:10797000044EEBE70020FAE7DC11002004020020AF
:107980003F000400440004002DE9F3410368DFF8E0
:107990009C805B7803F01F03013B04460125002017
:1079A0009D400E46174607F084FC082300930022F2
:1079B000184B022108F0CAFBADB2014642461548F9
:1079C0000CF05DF9012D23D145233A46314620467E
:1079D00003F0D0FE2046FFF7E9FE294620460DF0D1
:1079E0009DFF0D4B0D4A0E49009305468B230D4814
:1079F000CDF8048000F0DCF841460B4803F042F972
:107A00006068414603F03EF9284402B0BDE8F081C9
:107A10000020FAE794110020C3000400872D040021
:107A20004A000400FFFC0300110200209C1100200A
:107A300037B503685B7803F01F03013B012404FAA8
:107A400003F39BB2022B05461AD1452303F092FEA5
:107A50002846FFF7ABFE214628460DF05FFF094997
:107A60000446686803F00EF9074B00930444074A84
:107A700007480849A12300F09BF8204603B030BD19
:107A80000020FBE7D2000400D6000400792D04009A
:107A9000FFFC03004A00040073B5036804465878ED
:107AA00000F01F000138012383409BB2022B0D46DA
:107AB00016464FF0000019D10D4B0E4A98600E4B40
:107AC0000E490F480093B22300F072F82946442370
:107AD0003246204603F04EFE014628B9204602B049
:107AE000BDE870400DF01ABF4FF0FF3002B070BD1E
:107AF000040200206E2D0400EE0004004A00040081
:107B0000FFFC03000022C0E900228260704710B52C
:107B10000446852010F096FC2060872010F092FC2F
:107B20006060862010F08EFCA06010BD38B50B465A
:107B300001F10C0405462146186810F0A3FC00284A
:107B400002DC04480DF03CFB234603CB286069604F
:107B5000284638BD0301040038B50B4601F10C047A
:107B600005462146586810F08DFC002802DC0448C8
:107B70000DF026FB234603CB28606960284638BDFC
:107B80001C01040038B50B4601F10C0405462146E2
:107B9000986810F077FC002802DC04480DF010FB18
:107BA000234603CB28606960284638BD36010400AF
:107BB00037B506AC014654F8045B06480DF094FA5C
:107BC0002146284601940DF0D7FA0A200DF0ECFA70
:107BD00003B030BD4F01040010EE102A084BF6EE42
:107BE000007AA3EB620307EE103A60EE277AB7EE55
:107BF000080A67EE877A07EEC70A20EE070A704781
:107C0000DF59375FF5EE401AF1EE10FAF8B58B49FF
:107C10008B4D8C488C4CF0EE406A0AD1B5EE402A70
:107C2000F1EE10FA05D1F5EE402AF1EE10FA00F06F
:107C3000878022EE020A01EEA10A844F844E02EEF2
:107C4000A20AFFF7C9FF95ED007AD1ED007A90ED19
:107C5000006AD4ED005A7F4A7F4B26EE256A17EE64
:107C6000276A4FF0000CD0ED005AD5ED007A94ED64
:107C7000007A91ED005A90ED004AD0ED004A27EECF
:107C8000057A05EEA77AF6EE007A54EE247A91EDA5
:107C9000005AD1ED005A45EE257A62EE802A22EE96
:107CA000002A61EE801A62EE875A52EE275A22EEBF
:107CB000062A11EE872A97ED007AB5EEC07A61EEBA
:107CC000A77AF1EE10FA52EE867A40F3B08097ED83
:107CD000005A9FED626A96ED007A25EE255A05EE70
:107CE000067A86ED007A97ED005A92ED007A25EE3D
:107CF000275A05EE067A82ED007A97ED005A93ED49
:107D0000007A25EE025A05EE067A83ED007A96EDAA
:107D1000007A76EE876A92ED007A70EE870A93ED2C
:107D2000007A31EE071A4E4B93ED007A47EE256A42
:107D300093ED007A47EE270AD3ED007A07EE821A18
:107D4000DFED487A90ED006AD5ED005A94ED007AA7
:107D5000D1ED004A90ED005A60EEA70A66EEA76AE0
:107D600021EE271A60EE877A55EEE67A44EEC17A64
:107D700077EE857AC0ED007A61EE077A46EE867A74
:107D8000D1ED004A95ED005A44EEE07A77EE857A1F
:107D9000C5ED007A61EE257A50EE867AD1ED004A83
:107DA00094ED005A44EEA67A60EEA50A41EE060A6A
:107DB00077EE857A46EEC70AC4ED007AD1ED007AF7
:107DC00070EEA70AC1ED000A90ED005AD0ED005AFE
:107DD00095ED000AD5ED004A94ED006AD4ED006AF5
:107DE00091ED007AD1ED007A20EE240A05EE250A05
:107DF00006EE260A07EE270AFFF7EEFED0ED007A20
:107E000067EE807AC0ED007AD5ED007A67EE807A71
:107E1000C5ED007AD4ED007A67EE807AC4ED007A81
:107E2000D1ED007A67EE807AC1ED007AF8BDC6F830
:107E300000C0C2F800C0C3F800C074E750120020B0
:107E4000581200201C060020541200205C12002052
:107E50004C12002048120020441200200AD7233C74
:107E6000200600200AD7A33BF0B52DED108BB5EE10
:107E7000403AF1EE10FA87B0B0EE40AAB0EE608A58
:107E8000F0EE419AB0EE61CAF0EE42CAB0EE62DAAC
:107E900010D1F5EE403AF1EE10FA0BD1B5EE404AB2
:107EA000F1EE10FA06D107B0BDEC108BBDE8F04042
:107EB000FFF7A8BEB5EE40CAF1EE10FADA4FDB4E7E
:107EC000DB4DDC4C0AD1F5EE40CAF1EE10FA05D1DB
:107ED000B5EE40DAF1EE10FA00F025812CEEAC0A96
:107EE0000CEE0C0A0DEE0D0AFFF776FE2CEE00CA22
:107EF0006CEE80CA2DEE00DA23EEA30A03EE030A2D
:107F000004EE040AFFF768FED7ED005AD7ED00FA39
:107F100097ED006AD6ED007ACDED055A63EE80AAA2
:107F200026EE276AD7ED003AD5ED007A97ED007A74
:107F30008DED016A63EEA73AD4ED007AD6ED002A02
:107F4000CDED023A23EE00BA27EE277A96ED003AFD
:107F500096ED005AD5ED007A25EE275AD6ED007A37
:107F6000D4ED006AD5ED004A67EEA67AD5ED006A39
:107F7000CDED037A64EE00BA64EEA64A95ED004AB0
:107F8000D4ED006AD4ED00DACDED044AF6EE008AB5
:107F9000B0EE689A24EE264A02EEC39AD4ED006A47
:107FA0008DED004A6DEEA6DA38EEE4EA35EE47FADA
:107FB00037EE055A39EE6D7A3EEE6DEA27EE2A7AF3
:107FC00005EE0B7A6FEE2A6A34EE465A4EEE0B6AD5
:107FD00073EEA7EA05EE2B7A4EEEAB6A37EE077A20
:107FE00076EEA66A27EE077A06EEA67A17EE100A54
:107FF00015F018F941EC100B16F004FD51EC100BC4
:1080000015F04AFC9DED004A9DED016ADDED023A56
:10801000DDED037ADDED044ADDED055A8649874A38
:10802000874B36EE046A77EEE37A26EE2A7A07EE7D
:108030008B7A4FF0000C79EE646A05EE100A06EEBA
:10804000AB7A804855EEAF8A37EE077A78EEAD8A84
:1080500066EE074A4FEE054A66EE876A27EE874AC4
:108060004EEE856A0EEE054A66EE0D5A2BEEA47AA8
:108070001AEEA67A5CEEA85A6BEE266A6CEE288A97
:1080800057EE8D8A5BEE846A67EEAC7A6AEE84AA5C
:1080900056EE0C7A5BEE24AA75EE875A38EEA67A75
:1080A000D0ED006AF5EEC06AF1EE10FA77EEAA7A2A
:1080B00040F3B38090ED005A9FED636AD1ED006A02
:1080C00025EE255A45EE066AC1ED006A90ED005A8C
:1080D000D2ED006A25EE075A45EE066AC2ED006A47
:1080E00090ED005AD3ED006A25EE275A45EE066A58
:1080F000C3ED006AD1ED006A3AEE26AAD2ED006A1D
:1081000038EE268AD3ED006A79EEA69A4F4BD3ED6E
:10811000006A06EEA5AAD3ED006A06EE878A93ED03
:10812000007A47EE279ADFED4A7AD7ED006A96ED9E
:10813000006A95ED007A94ED005AD7ED005A28EECA
:10814000278A2AEE27AA69EEA79A68EE077A56EEE2
:108150004A7A45EE697A77EEA57AC7ED007A69EE3C
:10816000877A4AEE267A94ED005AD6ED005A45EE0B
:10817000487A77EEA57AC6ED007A69EE867A58EEEF
:10818000267A94ED005AD5ED005A45EE0A7A28EE8B
:10819000068A09EEA68A77EEA57A0AEE478AC5ED29
:1081A000007AD4ED007A38EE278A84ED008A97EDC4
:1081B000005AD7ED005A96ED000AD6ED004A95ED2B
:1081C000006AD5ED006A94ED007AD4ED007A20EED5
:1081D000240A05EE250A06EE260A07EE270AFFF70F
:1081E000FBFCD7ED007A67EE807AC7ED007AD6ED1A
:1081F000007A67EE807AC6ED007AD5ED007A67EEF8
:10820000807AC5ED007AD4ED007A67EE807AC4ED0D
:10821000007A07B0BDEC108BF0BDC1F800C0C2F809
:1082200000C0C3F800C071E71C06002058120020EF
:1082300054120020501200204C120020481200203E
:10824000441200205C1200200AD7233C20060020A4
:10825000A69BC43A08B5FFF78DF8012008BD08B504
:10826000FFF718F9012008BD08B5022102480CF0FB
:108270003BFF012008BD00BF6101040000B50821DB
:10828000A3B00B4801F07EFC00F018FC09480CF08C
:1082900097FF094B0093094A09490A48BE23FFF793
:1082A00087FC0948802202A912F036FCF9E700BFDA
:1082B000B81D002072010400C901040084010400FB
:1082C00091010400FFFC0300A02D040008B5642008
:1082D000FFF70EF9012008BD08B5FEF7AFF8012041
:1082E00008BD08B5FEF7ACFF012008BD70B5FEF76C
:1082F0009BFF0546FEF78CFF044628460CF060FF06
:10830000E51C04F1130615F8011F05480CF0ECFEFE
:10831000B542F8D1E18A03480CF0E6FE012070BDB9
:10832000D80104009AFD0300F0B5002693B0304652
:108330000DF052FE064610B9012013B0F0BD4023E7
:108340000093002202AB092107F000FF031EEEDBC1
:108350001D09ECD002AC00272378FF2B0AD16378EB
:1083600003F00F030E2B1AD00137AF4204F11004B3
:10837000F2DBDCE70D490822204616F0F7FF002863
:10838000F2D00B491022204616F0F0FF0028EBD067
:1083900008491022204616F0E9FF0028E4D02046C4
:1083A0000BF0F5FA04480CF00BFFDDE7D62E0400C5
:1083B000F62E0400E62E04009C0A040030B54FF0AF
:1083C00000426FF000440021C0E954420025002221
:1083D0000024C0E90011C0E956458160C0F84C1185
:1083E00080F86011C0F86421C0F86821C0F86C21E1
:1083F000C0F87011C0F87421C0F87821C0F87C2151
:1084000030BD0000000000002DE9F04FBE4BBF4D15
:108410001B68BF4EBF4F2DED0A8B9FB004460A214B
:108420001846039314F014FDBB4BB3F9002009EE7A
:10843000102AB3F90220B3F90430214604A80DF143
:10844000280A08EE102A08EE903AFFF76FFB214643
:108450005046FFF781FB214611A8FFF793FBBDF9BA
:108460004830DFEDAE7A07EE103ABDF94630B8EE8F
:10847000C77AF8EEE88A87EE27CA07EE103ABDF908
:108480004430B8EEC77AB8EEC88AC7EE27BA07EE0E
:10849000103ABDF91430B8EEC77AB8EEC99A87EE33
:1084A00027BA07EE103ABDF91230B8EEC77AC7EE18
:1084B00027AA07EE103ABDF91030B8EEC77A87EE5A
:1084C00027AA07EE103ABDF92C30B8EEC77AC7EEEE
:1084D000279A07EE903AF8EEE77A77EEE87A17EE09
:1084E000900A14F09FFE86A3D3E9002314F0F2FE55
:1084F00015F0D2F9BDF92A3007EE903AF8EEE77A96
:1085000008EE900A77EEC87A17EE900A14F08AFE09
:108510007BA3D3E9002314F0DDFE15F0BDF9BDF90E
:10852000283007EE903AF8EEE77A08EE100A77EE78
:10853000C97A17EE900A14F075FE71A3D3E90023EF
:1085400014F0C8FE15F0A8F9B0EE4C4A00EE100A7F
:10855000F0EE6B3AB0EE4B3AF0EE6A2AB0EE4A2AF1
:10856000F0EE691AB0EE681AF0EE480AFFF77CFCEC
:108570006B4800F0CBFB6B4A2968136810600B4412
:108580001B1A2B603368BA680A330A32312B336006
:10859000BA600BD9644C237813BBFEF7B7FD0028F3
:1085A00014DA62480CF00CFE0023336060480FF0D0
:1085B00057FF11A90FF066FFBDF944300BB100233E
:1085C0002B601FB0BDEC0A8BBDE8F08FFEF79EFD5F
:1085D000502303FB0070574B243018600123237095
:1085E000554B56491B680A93554BDFF880811B6831
:1085F0000B93544B1B680C93534B1B680D930DF15D
:1086000039003B7B8DF8383016F0C5FF2B68CDF86C
:108610003F3007F0D3FD1F2861D8464B1F6838460E
:1086200016F0CFFF7F2802463BD8394611A812F03A
:10863000B1FE8346002834D1BDF86A40434B1399FC
:108640002246184616F0AFFFBDF8709000F804B04F
:10865000B9F1000F0BD03E4916F0A0FE16994A461C
:1086600016F0B8FE03464C44013303F804B0374912
:1086700004A812F002FDA0B9BDF826306BB905229E
:108680001199344816F0B9FE41F2336341F2346275
:10869000002808BF1346ADF826302C48394616F09E
:1086A0007AFF00231B22139211A904AA1846CDE9D0
:1086B000113A0AF0C3F900281ADA274B274A284949
:1086C000284800934FF4C073FFF772FA03984FF4F1
:1086D0007A7114F0BDFB002388F8003064E7224B68
:1086E00000931E4A1E491F484FF4BD73FFF760FAFE
:1086F00098F80030002BE0D156E700BFAFF30080C0
:10870000399D52A246DF913FF83704002C13002018
:108710006412002004020020A412002000007A4409
:10872000681200206012002030130020DD010400D8
:1087300031020400341300201C0600201102002026
:10874000581200205412002050120020AC120020B9
:108750005329040014F9030003020400F10104008A
:1087600091010400FFFC03001B020400E84100200B
:1087700007B5ADF800106946ADF80220ADF8043039
:108780000FF088FE03B05DF804FB00002DE9F04116
:10879000964B974E1C688EB04FF47A71204614F0B9
:1087A00057FB9449944800F0E1F94FF47A61204670
:1087B00014F04EFB914B924A0293002301934FF425
:1087C000C06100928F480F2201F088FC41200FF019
:1087D00039FE1E231A4619460546FFF7C9FFFEF764
:1087E000ADFC002878DB09A8FFF78CF904AF09A8D5
:1087F000FFF78DF9844E09A93846FFF7ADF9049BC0
:108800003360059B736081480FF02AFE064607A976
:1088100030460FF037FE0A21204614F019FBBDF94F
:108820001C30002BF3D07A4EFEF770FC002867DB7B
:108830000A22114600232846FFF79AFF754B764A15
:1088400076497748009340F20A23FFF7B1F9FEF723
:1088500021FE0646684800F059FA724B1860731CF6
:1088600072D1714B00936C4A6C496D486F4E4FF456
:108870000473FFF79DF9FEF7A9FE002856DB6C4E46
:10888000012333736421204614F0E2FA337F002B76
:10889000F8D00023194628460A22FFF769FF642111
:1088A000204614F0D5FA09A8FFF7AEFD377F002F58
:1088B000F9D1604B584A59495948009340F2252351
:1088C000FFF776F95C48FEF79FFD3B460A2211460A
:1088D0002846FFF74DFF96E74F4A5049504800960B
:1088E00040F2F313FFF764F920464FF47A7114F065
:1088F000AFFA00220A2311462846FFF739FF6EE738
:10890000454A4649464800964FF40173FFF750F92F
:10891000FEF730FD20464FF47A7114F099FA0A23DD
:10892000002219462846FFF723FF7DE73A4A3B49D4
:108930003B48009640F21323FFF73AF94FF47A715F
:10894000204614F085FA96E7394F3C4B324A3349BA
:1089500033484FF0000887F80C800093019640F2EE
:108960003123FFF725F9464539DB6421204614F011
:108970006FFA334B284A29492948009340F237239C
:10898000FFF716F9502303FB06702430FEF7E6FDCF
:1089900007F50A70FEF708FD08B3FEF741FD014632
:1089A00028480CF0A1FB3B7FCBB143460A2241464D
:1089B0002846FFF7DDFE09A8FFF726FD3E7F002EC3
:1089C000F9D11C4B144A15491548009340F247232E
:1089D000FFF7EEF81848FEF717FD334676E74FF439
:1089E0007A71204614F034FA0DE700BFF83704001E
:1089F0004A0204000C2E0400681200203802040011
:108A00007D820200B8170020A41200203102040069
:108A10006A0204007F020400450204009101040080
:108A2000FFFC0300601200209E020400C902040043
:108A300004020020DE020400CC040020F70204003F
:108A4000070304001703040010B50748FFF7B6FC3E
:108A5000054B1C4603F5C070FFF7B0FC04F54070F1
:108A6000FFF7ACFC10BD00BF3813002002F024BBA0
:108A700030B5E3B001AC4FF496720E4B17A9204607
:108A800003F036F9024690B90C2120460CF024FF81
:108A9000012120460CF042FF074B05461988029839
:108AA00002F028F9034A411917A803F05DF963B0F1
:108AB00030BD00BFBC050020400D0020014802F081
:108AC000CDBC00BF2406002070B5064B064E9B1B94
:108AD0009C080025AC4200D170BD56F8253098475F
:108AE0000135F7E7643904002C39040013B5002080
:108AF0000EF09AFB014608B900F04AFD084C2046EA
:108B000013F032FC204612F0E3FE064B06480094B8
:108B100001224FF4806113F033FC02B010BD00BF9E
:108B2000F81D0020F7030400A81F002007B5134616
:108B3000002200920A46017900680FF03BF80038E5
:108B400018BF0120404203B05DF804FB07B513468F
:108B5000002200920A46017900680FF035F80038CB
:108B600018BF0120404203B05DF804FB30B5044655
:108B70008BB000B109B900F00BFD07C984E807000C
:108B80000DF05EFC0DF10F02D0212046FFF7CEFF65
:108B900038B120680DF070FC6FF0010528460BB06D
:108BA00030BD9DF80F30582BF3D1B622E02120467E
:108BB000FFF7CCFF00283FD10DF10F02F321204633
:108BC000FFF7B4FF002837D19DF80F30002BF3D109
:108BD0000193182300932179206804AB88220DF0BB
:108BE000BAFC48BB049BE360059B2361069B636161
:108BF000079BA361089BE361099B62792362A379C8
:108C0000F5211A4320468DF80F20FFF79FFF98B9F2
:108C1000627A237A920042EA4312E3791A43D2B28B
:108C2000F42120468DF80F20FFF790FF05462068BD
:108C300015B90DF021FCB1E720680DF01DFC4FF0D7
:108C4000FF35ABE71FB5044608B900F0A1FC00688A
:108C50000DF0F6FBE379032B11D106230022CDE9B9
:108C6000003204F1340321792068F7220DF073FCFF
:108C7000236808B320680DF0FFFB234841E0627AC7
:108C8000237A920042EA431242F00102D2B2F42166
:108C900020468DF80F20FFF759FF0028EAD10DF18B
:108CA0000F02F3212046FFF741FF0028E2D19DF893
:108CB0000F301B07F3D4D0E718460DF0DDFB94F816
:108CC000383094F8372094F839101B0143EA023306
:108CD000A28943EA1111C2EB13135200C2EBD10275
:108CE000B4F90E105B434A43B4F910101B134B4305
:108CF0009B1303EBE220206300EB8000803040F305
:108D00000F2004B010BD00BF0080FFFF2DE9F0412F
:108D1000054608B900F03CFCFFF794FF95F8354094
:108D200095F834302A6BB5F91A60B5F91CC02401E6
:108D300044EA033495F8363044EA1314D317B2F5F5
:108D4000FA3243F1FF33A2FB027102FB03F001EBA5
:108D5000400106FB03FEF01702FB00EEA6FB0260DB
:108D600086444FEAEC780CFB01F04FEA4E4E4EEA97
:108D7000D63E07FB08007604ACFB07C816EB0C06D2
:108D80004044B5F918C040EB0E0000EBCC00B5F93B
:108D900014C04FEAEC7E0CFB03F302FB0E33ACFB7A
:108DA00002C21344B5F916204FEAE27E514307FB95
:108DB0000E11A2FB072739441B03120A42EA016283
:108DC00043EA1C534FEA0C3C1CEB020C6A8A03F585
:108DD000004343EB2123ACFB02C102FB0311CB1781
:108DE0004A1053EA610150D0C4F5801404F00041E8
:108DF00041EA5401E407A41B40F6354661EB00014B
:108E0000A4FB060406FB014114F096FDB5F92020F1
:108E1000064602FB01F44FEAE27C430B0CFB0040E8
:108E2000A2FB06242044D20C42EA4032B5F922408B
:108E300043EAC14392194FEA613741EBE04103FB3A
:108E400007F0A3FB033606EB4006E017584304FB8C
:108E50000600A3FB043420445B0E43EAC013D2187F
:108E6000B5F91E304FEAE37441EB6061120A240148
:108E700044EA137442EA01621B01981844EB21246E
:108E8000000A40EA0460BDE8F0814FF0FF30FAE7E5
:108E900010B50C46FFF7D6FE4FF60263E380208044
:108EA000012010BD13B51723CB800C46FFF72EFF12
:108EB0000122019001A920460EF0F8FE012002B027
:108EC00010BD41F6C813584348BF00F2FF3040F3CD
:108ED0008F207047704700004FF080435722C3F83F
:108EE0001C25BFF34F8F0549054BCA6802F4E062A9
:108EF0001343CB60BFF34F8F00BFFDE700ED00E0F1
:108F00000400FA0570B50144044618468C4200D1AD
:108F100070BD14F8013B0825584046B24300002EAE
:108F2000D8B2B8BF5040013DF7D1EFE713B5094BB8
:108F3000094C1A681B7923716846082122600BF0DE
:108F4000CFF908226946601D01F072FE00236375A7
:108F500002B010BDFD030400A823002010B5044694
:108F600086B0124816F02DFB104B009010490222DB
:108F700020460CF075FC002816DB0E4903A801F012
:108F800099FE00F118030DEB0300002300F80C3CE0
:108F900003A816F016FB0849009003AB02222046F6
:108FA0000CF05EFC00EAE07006B010BDA8230020C3
:108FB000AB040400805101000719040038B50C46C9
:108FC0000168032932D120460CF0CEFA282808D1B6
:108FD000A38933B161680B440A783C2A06D09942D0
:108FE00002D34FF6FD711BE00131F5E701310A466E
:108FF00010783E2803D09A42F3D20132F8E7114BA1
:109000001D68541AA542ECD90F4B1B68224618461E
:1090100016F0C9FA00212A1B204416F0B7F90121E5
:109020000A4B1868BDE8384000F0CABF04294FF069
:10903000FF3118BF002181F47F4181F0FD0189B229
:10904000EEE700BF6026002064260020C025002037
:10905000032809D10B68597891420CBF01210421E2
:10906000044B186800F0ACBF04280CBF0221042197
:10907000F6E700BFC025002000684422FFF7E8BFE4
:1090800000684222FFF7E4BF08B50F2000F08AFF16
:10909000420708D4830709D410F0080F0CBF002042
:1090A0006FF0030008BD6FF00100FBE74FF0FF30E9
:1090B000F8E70000034637B51B68032B0846144643
:1090C00020D10B685B78412B21D12F230093124ACA
:1090D000402308210CF04BFA00281ADD22460F4CE1
:1090E00002F1180510685168234603C30832AA42EA
:1090F0001C46F7D101210A4B186803B0BDE8304087
:1091000000F05EBF042B0CBF02210421F3E7042111
:10911000F1E70821EFE700BF20260020C825002046
:10912000C025002008B50448012100F03BFD034B99
:109130001A68034B1A6008BDC4250020D4300020F3
:10914000C0250020F0B5234B9BB01960224B23496A
:109150001A6011230193224B0093054601234FF41B
:10916000007204A802F092F9002803DA6FF00100FF
:109170001BB0F0BD049A1B491378184F23F030033D
:109180001370072300930222174B04A80CF068FB0E
:10919000002104A80CF0C2FB00240646B44211D101
:1091A0000A200CF001F8114A00920023CDE90133A6
:1091B0000A482A46214602F0C3F90028D6DDFFF707
:1091C00063FFD5E717F8011B09480BF08DFF013449
:1091D000E4E700BF6426002060260020BE230020B4
:1091E00099FE030068270400C7FE0300BD8F02003C
:1091F0000304040070B5194E33789AB005460C4646
:1092000043B3304616F0DDF91549CDE900602B4631
:109210004FF4007204A802F039F9002803DA6FF065
:1092200001001AB070BD049A137823F03003137054
:10923000002104A80CF072FB00230146CDE90133A4
:10924000084A0748009402F07BF90028E7DDFFF7A1
:109250001BFFE6E76FF00200E3E700BF20260020D7
:10926000BE230020C825002070B50D4616460446D2
:1092700000B109B900F08CF9FFF754FF32462946D6
:109280002046FFF75FFF0446024800F003FD20463A
:1092900070BD00BFC425002070B50C469AB00546CD
:1092A00008B900F075F9FFF73DFF40228CB92F494E
:1092B0002846FFF747FF044678B12D4B00221A706D
:1092C0002C4800F0E7FC2C480BF07AFF20461AB03F
:1092D00070BD2648214616F0A2F8244C204616F010
:1092E00070F92649CDE9004002234FF4007204A82A
:1092F00002F0CCF8002802DA6FF00104DDE7049AEE
:10930000137823F0300313700C21282204A80CF0EA
:10931000E3FA04A8FFF722FE0028EDDB012104A8F0
:109320000CF0FCFABDF81C10064600230598282214
:1093300002F05EFD041EDFDB059911480BF0D4FE40
:10934000104A00920023CDE901330C482A46311916
:1093500002F0F6F80028CFDDFFF796FE044600285D
:10936000ABD1012000F0EAF8AAE700BFE025002019
:1093700020260020C4250020F3030400BE23002083
:1093800003000400B590020010B5FFF7CBFE0849BA
:109390000220FFF72FFF044628B1002000F0CEF88E
:1093A000044B00221A70044800F074FC204610BDE3
:1093B0007990020020260020C425002038B50C4DED
:1093C000FFF7B0FE2B782BB90A4800F063FC6FF072
:1093D000020038BD002000F0B1F807490420FFF773
:1093E00009FF002403482C7000F054FC2046F0E7ED
:1093F00020260020C42500208190020010B5154CC5
:1094000015488AB00BF0DCFE23782BB913480AB05C
:10941000BDE810400BF0D4BE1149282268460AF07E
:10942000C7FA104B1048DA8A69460BF05DFE0F4907
:109430000F480BF059FE0F490F480BF055FE0F492E
:109440000F480BF051FE21460E480BF04DFE0AB0BE
:1094500010BD00BF202600200904040024040400DD
:10946000CC250020C825002049040400A8230020A2
:10947000650404008051010075040400E02500200B
:109480008604040096040400024B1B6803B11847CD
:10949000704700BF6826002007B5074B0748B3F99F
:1094A00000300093064A074B0749006813F0F2FCAE
:1094B00003B05DF804FB00BF74260020F8370400F9
:1094C00000C5DC036C260020782600200D4B07B574
:1094D0001A880D4B1A800D4B4EF237545C8068464B
:1094E00000F039FBBDF80230A342F8D1FFF74CFF82
:1094F00028B9FFF7D1FF0220FFF7C6FFEFE70120F1
:10950000FAE700BF60310020742600206C2600209E
:109510001FB5074B0293074A0092002301930622CE
:109520004FF48061044800F0D9FD05B05DF804FBFC
:10953000A6040400CD94020088260020084B0949A7
:1095400010B50446186813F024FB34B1FFF7A4FFEC
:109550000020BDE81040FFF797BF0120F9E700BFEA
:10956000F83704007826002008B5EFF30583DBB256
:1095700043B9EFF310832BB904480BF021FE00F040
:1095800055FDFCE70149032000F03AF8AE04040061
:1095900008B5714602480BF0A7FDFFF7E5FF00BFD5
:1095A000C004040008B5FFF78FFA03480BF008FE6B
:1095B000FFF7ECF8002008BDC90404001FB5EFF365
:1095C000108372B6074B029300230193064B00935E
:1095D000072204234FF4C061044800F07FFD00F02F
:1095E000B3FE00BF45020400A5950200882A0020B2
:1095F00008B50EF0FDFABDE8084011F06FBD7047E8
:1096000008B50D4B1A680C467AB901221A60FFF7AB
:10961000F6FF214609480BF067FD0EF05DFC0A20BD
:109620000BF0C2FD06480BF0CBFDEFF3108372B6D2
:1096300000F014FEFFF750FC88300020F604040010
:109640001205040070B50D460021044600F0AAFA88
:109650000D4E70B9BFF35B8FE288BFF35B8F338829
:1096600012B21BB29A4204D06DB90121204600F01B
:1096700099FA3388BFF35B8FE380BFF35B8FA388D6
:109680000133A380012070BD603100200021FFF76D
:10969000D9BF000008B5BFF35B8FC188BFF35B8FF4
:1096A0000C4B1B8809B21BB2994201D0FFF770FF27
:1096B0008388002BFAD0013B9BB2838043B9BFF370
:1096C0005B8FC380BFF35B8FBDE8084000F0E2BA58
:1096D00008BD00BF603100202DE9F04704460E466A
:1096E0001746EFF3108872B60568C5B9DFF88890A1
:1096F000051DD4E90331A2689A1A8A4222DC1D4A68
:1097000012883280581C6269E0600B4096E80300C2
:1097100002EBC30383E8030088F3108810E055F8D8
:109720000C390360D1E900012B6983E80300284666
:109730000C2100F075FB687988F3108800F0ACFB11
:10974000012714E08FB1D9F800A00921504600F09C
:1097500067FB5146284600F0A3FC88F3108800F010
:109760007FFCEFF3108872B6C3E788F310883846A1
:10977000BDE8F08760310020D430002070B50B4682
:1097800004461046EFF3108672B6D4E902219142E6
:109790001DD0501CA060206961696568024001EB22
:1097A000C20292E8030083E803001DB986F3108823
:1097B000012070BD55F80C39636028460C2100F07B
:1097C0002FFB687986F3108800F066FBF0E778B12C
:1097D000094A156809212B61284600F021FB29461A
:1097E000204600F05DFC86F3108800F039FCDFE7CE
:1097F00086F31088DDE700BFD43000200346D0E9AF
:10980000072010B59C69141BA04201DA002010BD8E
:10981000541C0240DC61F9D4586A00EBC20203C94F
:1098200082E803001A896FEA42426FEA52421A81C3
:10983000184600F09BFB0120E9E7000008B50E4B3D
:1098400053F82130A3B11A79042A0BD103C81A693D
:1098500082E8030018460C2100F0E2FA074B0120D1
:10986000186008BD01461846BDE80840FFF7C6BFAE
:109870004FF0FF30F5E700BFDC300020D030002093
:109880002DE9F0411D46294B53F82140284B1B88F8
:109890000380064690462CB985F310884FF0FF30C0
:1098A000BDE8F0812379042B36D0224B01462046B7
:1098B0001F68FFF7A3FF78B185F310883B79062B6B
:1098C00002D01D4B1B682BB11C4B4FF080525A60CD
:1098D000BFF36F8F0120E3E7B8F1000F02D185F3EA
:1098E0001088DDE73B793E61062B14BF0521062178
:1098F000384600F095FA04F11400394600F0D0FB28
:1099000023896FEA43436FEA53432381204600F0E3
:109910002DFB85F31088D7E7D0E90001236983E8A0
:1099200003000C21204600F07BFAF2E7DC30002037
:1099300060310020D4300020D030002000ED00E065
:10994000F8B50246EFF3108672B6344D2B680BB9AA
:10995000FFF71EFE5F6A002F59D0D3E90640A042F0
:1099600055D0601C9861186A044039B9596929B901
:10997000611C03D186F310882046F8BD002C4ADB19
:1099800007EBC40103C982E80300596999B9002CA7
:109990002CDA0421184600F043FA86F31088204B95
:1099A0004FF080525A60BFF36F8F2B681B79042BE6
:1099B000CED00124E0E70D46002C55F80C19596172
:1099C0000CDBD3E907209969511A8842A9BF511CC1
:1099D0004FF0FF320240D96107EBC2022B6993E8D6
:1099E000030082E803002B79062B02D186F310884E
:1099F000DFE7002328462B610C2100F011FA68797B
:109A000086F310880E28D4D800F046FAD1E74FF03C
:109A1000FF340029AAD01A61B7E700BFD430002074
:109A200000ED00E010B50146EFF3108472B6054B6F
:109A30001B880380044B1868FFF7E0FE84F310884E
:109A400010BD00BF60310020D430002021230380EE
:109A5000FFF7F4BEEFF30583DBB20BB1FFF7F6BF00
:109A6000064B1B881BB2994201D1FFF7DBBFEFF316
:109A7000108372B60122FFF703BF00BF60310020E0
:109A800010B4EFF3058212F0FF0203D05DF8044B2F
:109A9000FFF7DCBF074B1B881BB2994203D15DF86F
:109AA000044BFFF7BFBFEFF3108372B65DF8044BB2
:109AB000FFF7E6BE60310020104B1B881BB29A42B4
:109AC0002DE9F04106460C46154601D1FFF760FD31
:109AD000EFF3108872B60A4B1F680621384600F073
:109AE0009FF996E803003C61434684E803000122A5
:109AF00029462046BDE8F041FFF7C2BE6031002094
:109B0000D430002038B5EFF3108572B60F4BB0F9A2
:109B1000002053F822400CB9FFF73AFD2379062BB9
:109B200004D085F310884FF0FF3038BD03C9236996
:109B300083E8030020460C2100F072F9607985F378
:109B4000108800F0A9F90120EFE700BFDC30002009
:109B50000021FFF7F5BE0121FFF7F2BE08B5EFF3D4
:109B6000108272B6064B1B680BB9FFF711FD586ADD
:109B700010B1D3E90630C01A82F3108808BD00BFC7
:109B8000D430002008B5064B4A1E1B6811405862AD
:109B900001D0FFF7FDFCC3E906111A6208BD00BF42
:109BA000D430002070B504460846EFF3108672B634
:109BB000236833B94FF0FF33236086F31088012008
:109BC00070BD11B986F31088FAE70F4B1D680DB907
:109BD000FFF7DEFC0321284600F022F92368013359
:109BE0000DD105F10C0323600023EB6086F3108890
:109BF000064B4FF080525A60BFF36F8FDFE7294664
:109C0000204600F04DFAF1E7D430002000ED00E0EE
:109C10002DE9F0410446EFF3108772B690F8088002
:109C2000B8F1000F04D087F310886FF08B0008E0C4
:109C300005682B683BB94FF0FF332B6087F3108822
:109C40000020BDE8F081114B1E680EB9FFF7A0FCA3
:109C50000321304600F0E4F82B68013310D106F1FF
:109C60000C032B60C6F80C8087F31088084B4FF06C
:109C700080525A60BFF36F8F237A002BE0D0D4E775
:109C80003146284600F00CFAEEE700BFD430002041
:109C900000ED00E038B50446EFF3108572B60068B9
:109CA00010B985F3108838BD431C02D1002323600E
:109CB000F7E750F80C3923600C2100F0B1F8236865
:109CC00013B94FF0FF33236085F31088034B4FF037
:109CD00080525A60BFF36F8FE5E700BF00ED00E0F0
:109CE00038B5EFF3108572B6012344680372237907
:109CF0000A2B02D985F3108838BD02681368013B2E
:109D00000333F7D8134604F10C0019461B68002BE7
:109D1000F0D09842F9D1E3680B60136813B94FF0A3
:109D2000FF3313600C21204600F07AF885F3108889
:109D30006079BDE8384000F0AFB8000008B503799D
:109D40000B2B04BF0C230371836A1A68934208D05B
:109D5000B0F9061003480BF0C7F903490D20FFF7CF
:109D60004FFC08BD1F0504004E05040010B5046833
:109D700044B123688B4206D19C4219BF1B68236003
:109D80000023036010BD1A461B68994202D094421A
:109D9000F9D1F7E7002AF5D013681B681360036850
:109DA000994208BF0260EDE770B5174C174E236863
:109DB00035683BBB15B12846FFF7C0FF00F008FB34
:109DC0002368002BFAD00020114A00211160B3FA59
:109DD00083F3104A52F823301C680C3C0B23AC422E
:109DE00023710DD008B1FFF7A9FF0B4BA16AB4F99D
:109DF00006201A801F31094A3460022000F01EFA42
:109E0000204670BD2846DFE78C300020D43000208B
:109E1000D03000209030002060310020080006166D
:109E200070B50A29037904460D461AD90A2B14D8AD
:109E30004279174B00F10C0153F8220078B1006809
:109E4000E06053F82200016043F8221011494FF0FE
:109E50000043D3400A6813430B60257170BDE16075
:109E6000F2E70A2BF9D94079094E04F10C0106EB0F
:109E70008000FFF77BFF637956F82320002AECD19E
:109E800004494FF00042DA400B6823EA0203E3E79B
:109E9000903000208C3000200B4B1B681A790A2A66
:109EA00002D95B7983420DD9EFF30583DBB21BB195
:109EB000064B01221A607047054B4FF080525A60E2
:109EC000BFF36F8F704700BFD4300020D030002028
:109ED00000ED00E008B5EFF3108372B6094B0A4AB3
:109EE0001B880A4D1BB2002442F82340084A286808
:109EF00013682146013B1360FFF792FF2C6000F0CE
:109F000023FA00BF60310020DC300020D430002074
:109F1000D830002010B50346EFF3108472B60289E2
:109F200002EA010022EA01021A8184F3108810BDBE
:109F30000C4A034610B51068EFF3108472B602891C
:109F400013420CD103610721FFF76AFF84F31088E5
:109F5000054B4FF080525A60BFF36F8F10BD84F3F2
:109F60001088FBE7D430002000ED00E010B5037945
:109F7000048A072B03D0082B0CD0002408E00389A7
:109F80001C4005D00C21FFF74BFF054B01221A6046
:109F9000204610BD03899C43EFD10124F2E700BFA6
:109FA000D030002038B5054B1D680446FFF7C0FFD0
:109FB00021462846BDE83840FFF7ACBFD43000202A
:109FC00010B5EFF3108472B6038902791943072A9A
:109FD000038A018104D0082A13D084F310880FE08B
:109FE0001942FAD00C21FFF71BFF074B01221A6020
:109FF00084F31088054B4FF080525A60BFF36F8F87
:10A0000010BD8B43E9D1EDE7D030002000ED00E03A
:10A01000431E9BB21F2B05D8034B53F8200010B1F1
:10A02000C06A704700207047DC30002010B5EFF3A5
:10A030000583DBB27BB9EFF3108472B6064B0221C5
:10A040001868FFF7EDFE84F31088044B4FF0805240
:10A050005A60BFF36F8F10BDD430002000ED00E0D8
:10A06000EFF3108072B60B4B1B681A790A2A07D9D6
:10A070005A79094B53F8221011B1096843F822109C
:10A0800080F31088054B4FF080525A60BFF36F8FFA
:10A09000704700BFD43000209030002000ED00E079
:10A0A00038B50B790A2B01D9FFF772FA4C7901F117
:10A0B0000C020346006818B110F8075CA542F8D9F5
:10A0C000C8601A6038BD03460144814202D9026863
:10A0D000824201D0C01A70470430F6E70F2A2DE9FA
:10A0E000F84F05468A469046994633D810F0030348
:10A0F0001DBFC3F10402043B5B180B46A3F13403FC
:10A1000018BFAD1833F0030324D419F0080F05EB82
:10A11000030416D02D60EFF3108B72B6274A012688
:10A12000114652F8047FC7B10136212EF9D18BF3C5
:10A1300010886FF08A063EE012600432A242FBD320
:10A14000E9E72A46FAE702212046FFF769FE8BF38A
:10A15000108830E06FF015062DE036B22A4641F83F
:10A160002640DDE90A01E68000F0A0F80C9B144AC5
:10A17000E3624FF0FF33C4E908371368206001330E
:10A1800019F0010FC4E90377C4E90577A562C4F8A3
:10A1900030A084F805802771E7611360D3D10C21CA
:10A1A0002046FFF73DFE19F0040FD0D18BF3108845
:10A1B0004046FFF771FE3046BDE8F88FDC300020E6
:10A1C000D83000200C2808B503D8034B53F82000E2
:10A1D00008B9FFF7DDF908BD302E04000C4B0D4A1D
:10A1E00010B540219A600C4CE02283F82220D977E8
:10A1F0000022A0180132302A80F80013F9D11A6920
:10A2000042F010021A615A6942F400725A6110BD9C
:10A2100000ED00E00060020000E100E0064BD3F832
:10A22000942042F00502C3F894205A6A42F4803226
:10A230005A620020704700BF00ED00E0064B21F09D
:10A240001F0142F00102C3F89800C3F89C100020DF
:10A25000C3F8A020704700BF00ED00E008B5EFF3A1
:10A260000581C1F3080119B1054810390AF03CFF16
:10A27000044BD3F8F030DB0700D500BE08BD00BFAB
:10A28000C705040000ED00E0BFF34F8F0549064B02
:10A29000CA6802F4E0621343CB60BFF34F8F00BF84
:10A2A000FDE700BF00ED00E00400FA051A4422F0CB
:10A2B000030210B54FF0773442F8044C540758BFEE
:10A2C0004FF08834A2F104035CBF42F8084CA2F1BD
:10A2D00008034FF0807243E902020D4A43F80C2C48
:10A2E0000020032243E9052043F8201C0122022418
:10A2F000194643E907246FF0020241F8242D0B228E
:10A3000041F8042D013A032AFAD1A3F1440010BD0B
:10A31000D59E0200054B064A06481968914201D1B4
:10A32000834201D3C01A70470433F6E700000020CF
:10A33000FEE7FEE700020020EFF308807047000010
:10A3400000487047000000200023E1EE103AEFF3D0
:10A35000148323F0040383F31488BFF36F8FEFF3A8
:10A36000108362B6024B4FF080525A60BFF36F8F7A
:10A3700000ED00E0114910B50C6872B6FFF714FD4E
:10A3800062B6A04208BF10BD2146BDE8104049B1E9
:10A39000EFF309821EF0100F08BF22ED108A22E9A8
:10A3A000F04F0A600068B0E8F04F1EF0100F08BFD1
:10A3B000B0EC108A80F3098870470000D430002088
:10A3C000024B4FF080525A60704700BF00ED00E032
:10A3D00030BF62B6BFF36F8F72B670470D4B0E4A37
:10A3E0000E496846904203D8984201D9002102E004
:10A3F00009468D46012104207246024202D1EFF344
:10A40000088001E0EFF309802DE9F00F6B4600F0C2
:10A4100087F800BF5801002000000420000200203F
:10A4200008B502490620FFF7EBF800BFD605040087
:10A4300008B502490520FFF7E3F800BFE205040074
:10A4400008B502490820FFF7DBF800BFF505040056
:10A4500008B502490920FFF7D3F800BF070604003A
:10A4600008B502490A20FFF7CBF800BF1B0604001D
:10A4700008B502490B20FFF7C3F800BF2D06040002
:10A48000704770471C4AD2F8883043F4700310B507
:10A49000C2F88830FFF7F4FF6A46184B184819468F
:10A4A00093421DD3174B184A184883421BD3184BAD
:10A4B000184A002093421BD321B1174A17490120A3
:10A4C000FFF7BCFEFFF7AAFEFFF7DBFF00F07EF907
:10A4D000FEF700FD15F02EF8BDE81040FFF76EB84E
:10A4E00043F8040BDCE752F8044B43F8044BDCE779
:10A4F00043F8040BDEE700BF00ED00E000000020A1
:10A50000FEE7FEE700020020883B0400400D00202B
:10A51000400D002098750020080006161F0000203E
:10A520002DE9F04F9A46564B8FB093469A6B0392A3
:10A530005A6B0492D3F82880DA6A05921A6BDB6BA7
:10A540000793504B06921A684F4B9A4204460E46A8
:10A5500002D04E480AF034FE002E62D04C480AF079
:10A560002FFE4C4B4C48198809B20AF0BDFD00255E
:10A570002F464A480AF024FE414649480AF0B4FDF5
:10A58000059948480AF0B0FD069947480AF0ACFD25
:10A59000079946480AF0A8FD18F4004F03D0039924
:10A5A00043480AF0A1FD18F0800F03D004994148F8
:10A5B0000AF09AFD40480AF003FE404859460AF066
:10A5C00093FD002E29D11BF0080F53D0314B1E886C
:10A5D00036B23046FFF71CFD3146024638480AF0D5
:10A5E00083FD38480AF0ECFD394637480AF07CFD17
:10A5F0006946364BC91A03D5354849420AF074FDFD
:10A6000020468268C36801698C4641698E46AD4622
:10A61000514691E8F00F416800682E490720FEF787
:10A62000EFFFD4E90230D4E90679D4E900120890AA
:10A630002069099060690A9019F4007F26480B91FF
:10A64000CDE90C230CBF04F1200504F124050AF028
:10A65000B7FD089B0B9900932048DDE90C230AF015
:10A6600043FDDDE90912CDF800903B461C480AF095
:10A670003BFD7EE7217F1B4810390AF035FDB0E72E
:10A6800000ED00E000000020FEE7FEE73B060400CE
:10A690005106040060310020800604002A070400EF
:10A6A0003307040043070400530704006307040052
:10A6B000730704008307040093070400980704004D
:10A6C000AA070400E90704001A0804005801002042
:10A6D000420804006F08040094060400AF0604005A
:10A6E000EC060400C307040070470000EFF310817C
:10A6F00072B6094A13680133012B136009D14FF078
:10A7000080420020C2F800011360D2F80031002B13
:10A71000FBD081F31088704764310020094A08B5E6
:10A7200013680BB9FEF734FFEFF3108172B61368AC
:10A73000013B13601BB94FF0804301225A6081F343
:10A74000108808BD64310020114A38B51378EBB980
:10A750004FF08044C4F81835C4F804310123A360D5
:10A76000D4F80431002BFBD001251570FFF7BEFF94
:10A770000023C4F80C314FF080422561D2F80C312F
:10A78000002BFBD0BDE83840FFF7C8BF38BD00BF85
:10A79000623100204FF0704393F8E02F062A12D167
:10A7A000D3F8E40F10F00F000DD1D3F8E82F02F02A
:10A7B000F002302A08D1D3F8EC0F00F0F000B0FA24
:10A7C00080F04009704700207047000008B5FFF78F
:10A7D000E1FF30B1134AD2F8FC3023F08073C2F8A5
:10A7E000FC30FFF7D7FF20B14FF080430322C3F8BE
:10A7F000A025FFF7CFFF30B14FF080430022C3F810
:10A800000C21C3F81021FFF76FFF074B0122C3F89B
:10A810004025FFF7E3FCFEF7EBFEBDE808400DF036
:10A82000FDB900BF00ED00E000E00140044B1B68F3
:10A830002BB1044B4FF080525A60BFF36F8F7047BB
:10A84000D030002000ED00E008B50C4B98420CD051
:10A85000B0F1402F0BD003F50033984209D003F537
:10A860004043984207D0FEF793FE002008BD012028
:10A87000FCE70220FAE70320F8E700BF00300040C1
:10A8800038B50D461446FFF7DFFF0A4B43F820505A
:10A89000094B43F82040094B1B56002B08DB0122D3
:10A8A000590903F01F0302FA03F3054A42F8213065
:10A8B00038BD00BF8831002078310020642E0400AC
:10A8C00000E100E0FFF7DCBF70B50E461546FFF76C
:10A8D000BBFF04460648012100EB8400FFF762F944
:10A8E000044B43F82460044B43F8245070BD00BF70
:10A8F00068310020883100207831002008B5FFF74A
:10A90000A3FF034B03EB8000BDE80840FFF7C2B98B
:10A910006831002008B5044A044B10681B6898474A
:10A92000BDE80840FFF782BF783100208831002061
:10A9300008B5044A044B50685B689847BDE8084076
:10A94000FFF774BF783100208831002008B5044A31
:10A95000044B90689B689847BDE80840FFF766BFC6
:10A96000783100208831002008B5044A044BD068B3
:10A97000DB689847BDE80840FFF758BF78310020F2
:10A980008831002009F0CEBCD0E902301847000021
:10A9900070B50E46154600211022044614F0F6FC50
:10A9A000024BE560C4E9013670BD00BF89A9020011
:10A9B0000346006838B10268904219BF136803600B
:10A9C000002119601046704708B500B109B9FEF7BB
:10A9D000DFFD4B68002BFAD0EFF3108272B60B68E4
:10A9E00033B903686BB11B680B60036819600160C1
:10A9F000406882F3108830B1BDE808400121FFF7BC
:10AA0000DFBA0960F3E708BD10B5EFF3108472B642
:10AA1000FFF7CEFF84F3108808B10023036010BD58
:10AA20002DE9F0410D46044600B109B9FEF7B0FD2D
:10AA3000EFF3108872B6002726467368002BF5D016
:10AA40003046FFF7B5FF50B90137BD4206F10806A1
:10AA5000F3D188F310880120FFF7A4FAE8E7002279
:10AA6000026088F31088BDE8F081D0E90501FFF7A6
:10AA7000ABBF000001600349C0E90523C0E9031032
:10AA8000704700BF6BAA02000A4619B9D0E9050158
:10AA9000FFF79ABF011D006812F094B801460068E4
:10AAA00010B1043112F075B87047000038B58569EF
:10AAB000044685B10A4B1868436901330CD012F083
:10AAC0002BF823696A68C11A8A4226BF9B181B1A91
:10AAD00000236B60206138BD83685B689847F0E7AE
:10AAE000F83704008369084A10B5044610682BB192
:10AAF0005A68214612F066F8206110BD2146BDE873
:10AB0000104012F046B800BFF837040083690022F5
:10AB100010B504465A60A06930B1436823B9036890
:10AB2000A36163699847F6E72046BDE81040FFF748
:10AB3000D9BF000070B505460C46EFF3108672B61B
:10AB4000FFF7B4FF05F118000368BBB92360046088
:10AB5000AB69A34206D10F4B62681868294612F010
:10AB600031F8286186F310880B4B1B682BB10B4B17
:10AB70004FF080525A60BFF36F8F70BD61685A68A2
:10AB8000914203D3891A61601846DDE7521A2360A7
:10AB90005A60DCE7F8370400D030002000ED00E018
:10ABA00070B504460D46EFF3108672B6FFF77EFFD0
:10ABB000A36904F118022BB92046FFF793FF86F32F
:10ABC000108870BD13689D4202D01A461B68F2E7D8
:10ABD0002B681360002BEFD05A6869680A445A60EA
:10ABE000EAE70000034B4161C0E9023000238361C2
:10ABF000704700BF0DAB020058B1037843B1013874
:10AC000010F8013F0BB901207047303B092BF7D9F1
:10AC10000020704738B1054B0A0901F00F019A5C1A
:10AC20005B5C027043700220704700BF682E040016
:10AC3000F8B50D465700064610B18C18A54201D153
:10AC40003846F8BD304615F8011BFFF7E3FF023622
:10AC5000F4E7F8B50E465700054610B18C18B4421B
:10AC600001D13846F8BD284614F8011DFFF7D2FF80
:10AC70000235F4E703461A46013311780029FAD168
:10AC8000101A704748B90846FFF7F4BFC2540133A1
:10AC9000CA5C002AFAD1184670470023F8E707B5C6
:10ACA000042201910DEB0201FFF7D3FF03B05DF821
:10ACB00004FB00000E4A914230B5034616D80A2222
:10ACC000012014468A420ED963B103440A25B1FB20
:10ACD000F5F405FB1412303203F8012D0A46092A57
:10ACE0002146F4D830BD62430130EBE70A20EBE7A0
:10ACF000FFC99A3BFFF7DEBF002910B50B464FEAAC
:10AD0000D17404DA10B12D2200F8012B5942FFF75B
:10AD1000D1FF204410BD2DE9FF41161E05460C460B
:10AD200004D104B0BDE8F041FFF7E6BF0CDDFFF74A
:10AD3000E3FF044625B132463021281814F026FBE3
:10AD4000A01904B0BDE8F08181EAE171A1EBE471E2
:10AD500001A8FFF7AFFF002CC6F1000807460BDA89
:10AD60006DB32D232B700124B8451DDBC6F1010204
:10AD700025B91444601CE4E70024F5E7A2EB0708BA
:10AD800028194246302114F001FB444428193A4660
:10AD90003C4401A914F007FC26442B195A1BB2426B
:10ADA00008D22E23AB55E5E7002DEFD13C44E1E777
:10ADB0000124FBE713F8012C03F80129EEE7804595
:10ADC000F6DBC6F101020124D3E7FFF7A4BF10B5FB
:10ADD000034601440A2400208B4200D110BD13F821
:10ADE000012B303A092AF9D804FB0020F4E70000CF
:10ADF00038B5064B1B6804460D46986814F092F966
:10AE000029462046BDE8384010F07EB9EC0C002001
:10AE100007B5014601A8FFF7FDFE022101A8FFF7D3
:10AE2000E7FF03B05DF804FB07B501466846FFF78E
:10AE300036FF08216846FFF7DBFF03B05DF804FB2F
:10AE400010B50446FFF716FF01462046BDE8104046
:10AE5000FFF7CEBFD8B1E1B1002340EA0102D2072B
:10AE600009D5C2070BD5CA070BD581420BD2421AAE
:10AE700008461146F7E7400849080133EDE7400866
:10AE8000EFE74908EFE7091AEDD100FA03F10846A8
:10AE900070470146FBE72DE9F84306460D46144688
:10AEA0000AB9FEF775FB11462846FFF7D3FFA0420B
:10AEB000F7D8A84239D8B5FBF0F1B4FBF0F2002581
:10AEC000B1FA81F44FF0004EC4F120002EFA04FED6
:10AED000C4F15F0C2B462C462F46DB1847EB0708C6
:10AEE00011EA0E0F18BF43F00103934278F10009F5
:10AEF00047464FEA44044FEA5E0E0FD39B1A68F1AF
:10AF0000000744F00104002C0BDA3B4300D001346D
:10AF1000C0F1200333713460BDE8F883002CF2D116
:10AF2000013801356545D8D1EFE700200446EFE749
:10AF30000D4A10B5D2F87442002303601CB1D2F858
:10AF40007C42A14207D0D2F898325BB1D2F8A0324D
:10AF5000994207D101235B4203F0240303F51D73DB
:10AF60001A44026010BD00BF3C060020F8B505463B
:10AF700016460C4669B108B9FEF70AFB03688B4216
:10AF8000FAD8426803EB02129142F5D2CC1A24118E
:10AF900001346B68A34201D800200AE028683146DA
:10AFA00000EB041027010AF0B3F90028F0D128685B
:10AFB0003844F8BDF0B593B014462F2300930646ED
:10AFC0000D46402302AA0B2120460AF0D0FA0028A1
:10AFD0001BDD23685B7803F01F03013B01249C40C9
:10AFE0000021A4B22960022702AA3046FFF7BEFF63
:10AFF0000146286010B9384613B0F0BD8B881C425A
:10B000004FF00107F0D00027F5E70227F3E7000033
:10B010002DE9F041114C0746884600252646A368D5
:10B0200043B96835B5F5027F04F16804F7D1002013
:10B03000BDE8F081E368013314BF236904F1100314
:10B040005B884345EDD1394604F11C0010F02BF824
:10B050000028E6D008357019EAE700BF3C0600205A
:10B060001FB514461A460378012B0AD10023CDE9F7
:10B0700001314068069B039401A907F0DFFC04B08E
:10B0800010BD4FF0FF30FAE70A4B10B504461868C0
:10B09000436901330AD011F03FFD20F07F42626521
:10B0A00020460621BDE810400AF016BC83685B68A4
:10B0B0009847F2E7F83704002DE9F0411C460746AF
:10B0C00000680D46904614F07CFA2389DC4304F0B6
:10B0D0000104023406460444ADB1444516D8DB07EA
:10B0E0005BBF2C232B70002301233C22EA5403F185
:10B0F00001083968024605EB080014F054FAA91952
:10B100003E2301F808302046BDE8F0814FF0FF30C3
:10B11000FAE71FB54268002A034611DB82687AB15C
:10B120001068516801AC03C490680021117001AA35
:10B13000044603CA4FF0FF329860D9601C615A6020
:10B1400004B010BD30B50368013B012B97B0044635
:10B150001CD8C56A042303609DB1502200210DEB69
:10B16000030014F013F94FF0FF33159363680133B4
:10B1700014BFA36804F10803009300226946204627
:10B18000A8472046FFF7C5FF0023236017B030BD56
:10B1900043685A1C012A13B5044605D8204602B05C
:10B1A000BDE81040FFF7CEBF013B436040F2EE2107
:10B1B000C3F106034FF4FA70994098400CF02AFF4F
:10B1C000014604F13400FFF75FFC2368022B0BD02B
:10B1D00000230093D4E9021204F1140304F1600087
:10B1E000FFF73EFF0028D9DD02B010BDF8B50468B6
:10B1F0002568002306460F4603602DB120460FF058
:10B2000052FF4FF0FF3538B9A36943B118343946BE
:10B2100020460FF048FF00B134602846F8BD0125F4
:10B22000FBE7000010B586B01222002101A814F03F
:10B23000ADF80423009341F23363ADF816300023D8
:10B240001A460E48694607F011FB00284FF000032C
:10B2500010DB0B4A0B4C12680848C4E90032214647
:10B26000094A0FF055FE01212046FFF7D9FB43683C
:10B270009847F8E7184606B010BD00BF9831002087
:10B28000D43000208C330020D9B702002DE9F843D8
:10B29000184C06460F46154604F50279A368FBB123
:10B2A000E368013314BF216904F1100104F10808B7
:10B2B0000B7803F00F03AB4212D12A460431384613
:10B2C00014F054F860B9314604F11C000FF0EBFEA5
:10B2D00058B9E369042B0BD194F82030FF2B04D02C
:10B2E00068344C45DAD14FF000084046BDE8F88399
:10B2F000FEF74EF93C0600202DE9F347994600235E
:10B30000CDE9003305461446036021B1264B009376
:10B310006846FFF76BFF2CB1244B0193214601A82F
:10B32000FFF764FFDFF88880DDF800A000244FF00D
:10B33000FF364746D8F8743243B92646631C022BC1
:10B3400008F124084FF0010416D0F3E7534502D06A
:10B35000BAF1000FF2D1019BD8F878229A4201D0BD
:10B36000002BEBD1B9F1000F0AD1644204F02404A0
:10B3700004F51D743C442C60304602B0BDE8F087F3
:10B38000D9F80010D8F88C220B7803F00F039A42FA
:10B39000D4D1002AD2D0043108F5207013F0E6FF92
:10B3A0000028CBD1E1E700BF500800208008002032
:10B3B0003C0600207FB51C4EB6F9004084BB1B4BF9
:10B3C0001B481C4DCDE901431B4B0093062223462D
:10B3D00040F65801FEF782FE30802846214640F8AC
:10B3E000084B4FF4027213F0D1FF2146302205F5CD
:10B3F000057013F0CBFF2146482205F51D7013F0B0
:10B40000C5FF4FF46172214605F52F7013F0BEFFA2
:10B410000CF0DCFDC5F81002B6F9000004B070BDF8
:10B420006FF01000FAE700BFEC3B00208208040038
:10B43000943300203C06002025B20200064BBFF3E7
:10B440005B8F53E8000F421C43E800210029F8D12C
:10B45000BFF35B8F80B270474C08002008B50369CA
:10B460000BB1FEF795F8064B5A685860C368026145
:10B470000BB9044BC36043690BB9034B436108BD6F
:10B480003C060020B9B00200B5AF02002DE9FF472D
:10B49000DDE90C6905460F4690461C4626B1337817
:10B4A0002F2B01D0FEF774F82F60FFF7C7FF8246FD
:10B4B00034B30CF08BFDCDE9004AADF80C0002234B
:10B4C00003AA012128680AF0ABF842460446034665
:10B4D000394628460AF005F9002C0CDD5EB1B9F1B9
:10B4E000000F08D02F23009332464B460B212846ED
:10B4F0000AF083F9044604EAE47004B0BDE8F0877A
:10B50000CDE90040234622462146DBE770B50446DC
:10B510000D46164601210948FEF744FB32462946EE
:10B520002046FFF7B3FE30B1002404600348FEF765
:10B53000B1FB204670BD6FF00104F7E73C06002028
:10B540002DE9F04F8FB0057803930023CDE9053343
:10B55000189E80468946C5F3011592460AB9FEF742
:10B5600017F89DF86830012B54D801238DF814305A
:10B570007B4B069316B9002D40F0E88001217948F5
:10B58000FEF710FB77494FF0000B0A468F685FBB50
:10B59000682404FB0BF4101902218160199981635E
:10B5A00004F11C0146630A4456460AF1180E30683D
:10B5B00071689446ACE80300083676456246F6D1D9
:10B5C00005AB93E80300674E68220BFB022CB444E2
:10B5D0008CE80300A5B1012D00F0A580682202FBD4
:10B5E0000B620021916046E00BF1010BBBF1050FEE
:10B5F00001F16801CAD15B48FEF74CFB00250BE066
:10B6000002FB0BF2B9F5967F324409D930469560BA
:10B61000FEF740FB6FF0150528460FB0BDE8F08F30
:10B62000156196F8BC2242B196F8E823002A78D03A
:10B6300096F81425002AD1D102254FF4967202FB08
:10B640000560682505FB0B6500F52F704A464146ED
:10B65000286113F0A8FF2A69C5F81490002ABDD00C
:10B66000062240F2EE214FF4FA70EA600CF0D2FCB0
:10B6700001220746AA603B48FEF70CFB682202FB4A
:10B680000B639B68002BB9D00834344401238DF838
:10B690001430334B0693ACB104F13405002F58D06D
:10B6A00004F15006304922463046FFF771F92F4920
:10B6B0002F4A096828463346FFF7DCF93946284601
:10B6C000FFF7E2F907AD1C220021284613F05EFEC9
:10B6D000039B6BB12E4603F1180C1868596832466B
:10B6E00003C2083363451646F7D108238DF834307A
:10B6F000009553464A46414605A8FFF7B1FC051E92
:10B700008ADC4CB12046FFF704FD1FB104F1340080
:10B71000FFF7C4F90023236015F1800F7FF46EAFAB
:10B720007AE7012589E702FB0B624FF0FF31D16018
:10B73000D8F80000D8F8041004F11002324403C213
:10B74000D8F8080010604FF4967794E737463446EF
:10B750009CE71C223946284613F018FEB2E700BFCA
:10B76000983100203C06002091B10200F837040017
:10B770008C330020F7B50E460027194615461346B0
:10B7800000973246044609F066FF00280DDD636D20
:10B79000E78106442D1A6660A58113B1002003B02D
:10B7A000F0BD2046FFF770FCF8E74FF0FF30F6E7FA
:10B7B00010B50B464FF4967206490446FFF7DAFFC0
:10B7C000014620B92046BDE810400AF0A7B84FF066
:10B7D000FF3010BD603200202DE9F04FCC06BBB029
:10B7E00006464BD500240DF158091C222146484637
:10B7F0000594B24D13F0CAFD01238DF87030A046B8
:10B80000274610ACCDF804900094002305AA04A9A3
:10B81000304607F095F8B0F1000E2FDB12D008EBA0
:10B820000E04B4F5967F724684BF4FF49674C8F543
:10B83000967205EB0800049988BF0127A04613F013
:10B84000B2FEDEE7CC46BCE80F001DAD0FC50823F5
:10B850009CE803008DF88C30169B042B85E80300D0
:10B860000FD19DF85C3095491DAD424624A8FF2BB1
:10B8700008BF754609F0CFFD002804DA3BB0BDE8EB
:10B88000F08FFDF785FE249A137803F03003302BF8
:10B890005ED151882046FFF7BBFB804628B134308B
:10B8A000FFF7FCF84046FFF74DFC249BDFF810A2A1
:10B8B000B3F802B0CDF824A0214609A8FFF796FC02
:10B8C000DDF82480B8F1000F42D0DAF860109BFA5E
:10B8D0009BF20023AAF5057A92B20A9329B1884512
:10B8E00003D1BAF88812914209D0DAF898326BB1D4
:10B8F00098450BD1BAF8AC32934207D101235B4291
:10B9000003F0240303F51D7353440A93DDF828B0B4
:10B91000BBF1000F1CD04FF0000A5346DBF80420A7
:10B92000CBF800A051460CA8FFF7E6FC0C9B1BB916
:10B93000DBF80430C3F800A000231A46CBF804A0BB
:10B9400041460AA8FFF7D8FC0A9B0BB9C8F800309B
:10B9500024994A784FEA521ABAF1020F24D01ED81D
:10B96000BAF1000F8AD10B78002A76D113F0300F8C
:10B97000C3F3011756D10321249A0B96137823F0B1
:10B98000300343EA011323F00F0313700021012356
:10B9900051708DF828300095234604228FE1AAF1DA
:10B9A0000403012B3FF66AAF11F8042B204602F086
:10B9B0000F02FFF76BFC249B80461B78002800F0E9
:10B9C000868113F0300FC3F3011200F07D81032A4A
:10B9D0003FF454AF4FF0FF39D8F848301BB108F1AD
:10B9E0003400FFF75BF8002F0CBF03230623C8F8D1
:10B9F0000030D8F82C30399F1BB1224624A940468C
:10BA000098474046FFF785FB013702D0BAF1020F95
:10BA100002D00023C8F80030B9F1FF3F3FF42EAF49
:10BA20000221A9E7022F7FF429AF20464988FFF7BA
:10BA3000EFFA044600283FF421AF436801333FF496
:10BA40001DAFC36A0760002B7FF418AF3430FFF7D7
:10BA500025F82046FFF776FB10E798063FF50EAF76
:10BA60003FB18D2124A8FFF7A3FE00283FF406AFC5
:10BA70001EE1DFF850A0CDE90677CDE90877DAF8C6
:10BA800004804FF0020BB8F1000F05D1BBF1020F9B
:10BA900014BF85218421E5E7D8F814300C9724AA37
:10BAA0000CA940469847022802D1D8F81080EAE74E
:10BAB000012809D1D8F810808346E4E760320020DD
:10BAC000500800203C0600200390002857D1DDF8E4
:10BAD000308009A84146FFF72BFADDF8E4B0039A5D
