:020000022000DC
:1060000000020020D5690200716902002D690200BA
:106010008169020091690200A1690200000000008C
:1060200000000000000000000000000011690200F4
:10603000B169020000000000C5680200C1690200E9
:1060400005750200057502000D7A0200F56C02006C
:10605000116D02000575020005750200057502004C
:1060600005750200D9770200DF770200057502008E
:106070000575020005750200057502000575020030
:106080000575020005750200057502000575020020
:106090000575020005750200057502000575020010
:1060A0000575020005750200E5770200EB77020036
:1060B00005750200057502000000000000000000E8
:1060C0000575020005750200057502002D6D0200C0
:1060D000057502000575020005750200B57F020016
:1060E000057502000575020005750200000000003C
:1060F000000000000575020000000000496D02006C
:1061000007B5084B084D1B68084C019329460198B8
:1061100003F09CFAD4F8043583F40073C4F8043512
:10612000F4E700BFF89D020040420F00000300505A
:1061300070B5064E064CA41BA4080025AC4200D145
:1061400070BD56F8253098470135F7E7449E0200A8
:106150004C9E020013B5002001F016FF014608B95D
:1061600000F046F8084C204602F0CAFF204602F034
:1061700089FA0094054B064801224FF4806102F031
:10618000C9FF02B010BD00BF400600209C9902006C
:1061900040020020704700004FF080435722C3F8B0
:1061A0001C25BFF34F8F0549054BCA6802F4E06216
:1061B0001343CB60BFF34F8F00BFFDE700ED00E05E
:1061C0000400FA0508B5EFF3058313F0FF0F08D1BB
:1061D000EFF310832BB9054801F080F900F024FAA1
:1061E000FCE70249032000F03BF800BFA29902003F
:1061F00008B57146024801F051F9FFF7E3FF00BF0F
:10620000B499020008B5FFF793FF034801F066F95F
:10621000FFF776FF002008BDC29902001FB5EFF31B
:10622000108372B6074B029300230193064B009331
:10623000072204234FF4C061044800F025FA00F05F
:106240002BFB00BFBD99020005620200F007002091
:1062500008B501F051FFBDE8084001F0A5BF704747
:1062600008B50B4B1A680C4652B901221A60FFF7A9
:10627000F6FF2146074801F011F9074801F02EF911
:10628000EFF3108372B600F0AFFAFFF785FF00BF9F
:10629000F00D0020EF9902000B9A0200F8B50446B9
:1062A0000E46EFF3108772B603683BB94FF0FF3329
:1062B000036087F3108801263046F8BD11B987F3D3
:1062C0001088F9E70F4B1D680DB9FFF791FF032107
:1062D000284600F0B9F8236801330DD105F10C030D
:1062E00023600023EB6087F31088074B4FF0805248
:1062F0005A60BFF36F8FDFE72946204600F0B0F900
:10630000F1E700BFFC0D002000ED00E038B50446C9
:10631000EFF3108572B6006810B985F3108838BDA8
:10632000431C02D100232360F7E750F80C392360A7
:106330000C2100F089F8236813B94FF0FF33236074
:1063400085F31088034B4FF080525A60BFF36F8F74
:10635000E5E700BF00ED00E0026810B592B11368F8
:106360008B4208D18A4202D10023036001E00B680E
:106370001360084610BD13461B681C68A14203D079
:106380009A42F9D10021F4E72BB10A681A60026839
:106390008A42EED1E9E71946EBE7000008B5037938
:1063A0000B2B04BF0C230371836A1A68934208D035
:1063B000B0F90610034801F071F803490D20FFF70A
:1063C0004FFF08BD189A0200479A020070B5184C9A
:1063D000184D23682E6843BB16B13046FFF7DEFF29
:1063E00000F09EFA2368002BFAD00020124B002206
:1063F0001A602368114AB3FA83F352F823301C68F9
:106400000C3C0B23B44223710DD008B1FFF7C6FF3B
:106410000B4BA16AB4F906201A801F31094A2C607F
:10642000022000F0D5F9204670BD3046DEE700BFFF
:10643000F40D0020FC0D0020000E0020080E0020AE
:10644000F80D0020080006160A2970B503790446E5
:106450000D461AD90A2B14D84679184A31B20C3095
:1064600052F821307BB11B68E36052F8213018608C
:1064700042F82100124A4FF000431168F3400B43E9
:106480001360257170BDE060F2E70A2BF9D90B4E5D
:10649000407904F10C0106EB8000FFF75DFF6279A3
:1064A00056F82230002BECD105494FF0004323FA77
:1064B00002F20B6823EA02030B60E2E7080E0020F9
:1064C000F40D00200B4B1B681A790A2A02D95B795C
:1064D00083420ED9EFF3058313F0FF0F03D0064B71
:1064E00001221A607047054B4FF080525A60BFF38B
:1064F0006F8F7047FC0D0020000E002000ED00E0C3
:1065000008B5EFF3108372B6094B0A4A1B880A4D8F
:106510001BB2002442F82340084A28681368214629
:10652000013B1360FFF790FF2C6000F0B5F900BF4E
:10653000F80D0020480E0020FC0D0020040E002065
:106540000C4B10B51B68EFF3108472B61A89104219
:106550000DD1186107211846FFF776FF84F31088E4
:10656000054B4FF080525A60BFF36F8F10BD84F31C
:106570001088FBE7FC0D002000ED00E0EFF3108237
:1065800072B60388194023EA0103038082F310885E
:106590000846704738B5064B1C680546FFF7D0FF24
:1065A000294604F10800BDE83840FFF7E7BF00BF07
:1065B000FC0D002010B5EFF3108472B60389027948
:1065C0001943072A0181038A04D0082A14D084F3CE
:1065D000108810E019400029F9D00C21FFF734FF92
:1065E000084B01221A6084F31088074B4FF0805249
:1065F0005A60BFF36F8F10BD8B430CBF0121002188
:10660000E9E700BF000E002000ED00E0431E9BB252
:106610001F2B05D8034B53F8200010B1C06A7047F8
:1066200000207047480E002010B5EFF3058313F0EB
:10663000FF0F0FD1EFF3108472B6074B02211868D9
:10664000FFF702FF84F31088044B4FF080525A602A
:10665000BFF36F8F10BD00BFFC0D002000ED00E008
:1066600038B50B790A2B01D9FFF7C2FD4C7901F13E
:106670000C02036813B9CB60026038BD13F8075CE5
:10668000AC42F8D31846F4E70F2A2DE9F84F054637
:106690008B4691469A4633D810F003031DBFC3F1D1
:1066A00004025B18043B0B46A3F1340318BFAD187A
:1066B00033F0030324D41AF0080F05EB030416D0BB
:1066C0002D60EFF3108872B62749012251F822603D
:1066D00017B2C6B10132212AF8D188F310886FF0C1
:1066E0008A073DE012600432A242FBD3E9E72A4662
:1066F000FAE702212046FFF7A7FE88F310882FE073
:106700006FF015072CE041F822402A46E780DDE9CA
:106710000A0100F08FF80C9B144AE3624FF0FF333C
:10672000C4E908361368206001331AF0010FA5622E
:10673000C4F830B084F805902671C4E90366C4E952
:106740000566E6611360D4D10C212046FFF77CFE7C
:106750001AF0040FD1D188F310884846FFF7B2FE33
:106760003846BDE8F88F00BF480E0020040E002018
:106770000C4B0D4A10B540219A600C4CE02283F876
:106780002220D9770022A0180132302A80F8001385
:10679000F9D11A6942F010021A615A6942F4007282
:1067A0005A6110BD00ED00E00060020000E100E071
:1067B000064A536843F00503536052F86C3C43F4B7
:1067C000803342F86C3C0020704700BF90ED00E041
:1067D000044B21F01F0142F001029860D9600020B3
:1067E0001A61704790ED00E008B5EFF30581C1F341
:1067F000080119B11039044800F050FE034B1B6822
:10680000DB0700D500BE08BD569A0200F0ED00E09F
:10681000BFF34F8F0549064BCA6802F4E062134389
:10682000CB60BFF34F8F00BFFDE700BF00ED00E07E
:106830000400FA05134423F0030310B54FF0773238
:106840001C1F43F8042C620742BF4FF0883243F804
:10685000082CA3F108044FF0807344E902030D4BA8
:1068600044F80C3C0022032344E9053202200123B2
:10687000224644E907306FF0020344F8201C42F836
:10688000243D0B2342F8043D013B032BFAD1A4F134
:10689000440010BD016502000023E1EE103AEFF361
:1068A000148323F0040383F31488BFF36F8FEFF393
:1068B000108362B6024B4FF080525A60BFF36F8F65
:1068C00000ED00E0114910B50C6872B6FFF77EFDCF
:1068D00062B6A04208BF10BD2146BDE8104049B1D4
:1068E000EFF309821EF0100F08BF22ED108A22E993
:1068F000F04F0A600068B0E8F04F1EF0100F08BFBC
:10690000B0EC108A80F3098870470000FC0D00206D
:10691000024B4FF080525A60704700BF00ED00E01C
:1069200030BF62B6BFF36F8F72B670470D4B0E4A21
:106930000E496846904203D8984201D9002102E0EE
:1069400009468D46012104207246024202D1EFF32E
:10695000088001E0EFF309802DE9F00F6B4600F0AD
:1069600087F800BF5801002000000420000200202A
:1069700008B502490620FFF773FC00BFF19C020036
:1069800008B502490520FFF76BFC00BFDE9C020042
:1069900008B502490820FFF763FC00BF659A0200B2
:1069A00008B502490920FFF75BFC00BFFD9C02000F
:1069B00008B502490A20FFF753FC00BF779A02008E
:1069C00008B502490B20FFF74BFC00BF899A020073
:1069D000704770471C4AD2F8883043F4700310B5F2
:1069E000C2F88830FFF7F4FF6A46184B184819467A
:1069F00093421DD3174B184A184883421BD3184B98
:106A0000184A002093421BD321B1174A174901208D
:106A1000FFF7DEFEFFF7CCFEFFF7DBFF00F02EF9FD
:106A2000FFF7B8FB02F034FEBDE81040FFF7F6BBFD
:106A300043F8040BDCE752F8044B43F8044BDCE763
:106A400043F8040BDEE700BF00ED00E0000000208B
:106A5000FEE7FEE700020020649E020040020020E4
:106A60004002002010120020080006161F0000201F
:106A70002DE9F04F9B46564B8FB090469A6B039290
:106A80005A6B04929F6ADA6A05921A6BDB6B079362
:106A9000504B06921A68504B9A420446894602D0DF
:106AA0004E4800F01BFDB9F1000F61D04C4800F0DA
:106AB00015FD4C4B4C48198809B200F0EFFC00253D
:106AC0002E464A4800F00AFD3946494800F0E6FCE7
:106AD0000599484800F0E2FC0699474800F0DEFCC2
:106AE0000799464800F0DAFC3A0403D50399444874
:106AF00000F0D4FC3B0603D50499424800F0CEFCDC
:106B0000414800F0EBFC4146404800F0C7FCB9F1B9
:106B1000000F29D118F0080F53D0324B1F883FB215
:106B20003846FFF773FD39460246394800F0B6FC97
:106B3000384800F0D3FC3146374800F0AFFC6946D6
:106B4000364BC91A03D54942354800F0A7FC204608
:106B50008268C36801698C4641698E46AD465946D4
:106B600091E8F00F416800682E490720FFF778FB95
:106B7000D4E90230D4E9066AD4E900120890206909
:106B8000099060690A901AF4007F27480B91CDE9BB
:106B90000C230CBF04F1200504F1240500F09EFC39
:106BA000089B00930B992148DDE90C2300F076FC4B
:106BB000CDF800A03346DDE909121D4800F06EFC57
:106BC0007FE7217F1B48103900F068FCB0E700BF69
:106BD00000ED00E000000020FEE7FEE7979A0200CB
:106BE000AD9A0200F80D0020DC9A0200869B02009C
:106BF0008F9B02009F9B0200AF9B0200BF9B020085
:106C0000CF9B0200DF9B0200EF9B0200F49B02007F
:106C1000069C0200459C0200769C02005801002060
:106C20009E9C0200CB9C0200F09A02000B9B02008B
:106C3000489B02001F9C0200704700000C4B1B7811
:106C4000062B12D10B4B186810F00F000DD1043336
:106C50001B6803F0F003302B08D1074B1B6813F0BF
:106C6000F00F0CBF0120002070470020704700BFCC
:106C7000E00F00F0E40F00F0EC0F00F008B5FFF7B4
:106C8000DDFF20B1114AD36823F08073D360FFF792
:106C9000D5FF10B10E4B03221A60FFF7CFFF30B1C2
:106CA0004FF080430022C3F80C21C3F81021FFF7F6
:106CB000C3FF084B0122C3F84025FFF759FDFFF73A
:106CC000C7FABDE8084001F02DBA00BFF0ED00E0C2
:106CD000A005004000E00140044B1B682BB1044BB1
:106CE0004FF080525A60BFF36F8F7047000E002044
:106CF00000ED00E008B5044A044B10681B68984793
:106D0000BDE80840FFF7E8BFDC0E0020CC0E0020F5
:106D100008B5044A044B50685B689847BDE80840D2
:106D2000FFF7DABFDC0E0020CC0E002008B5044AC5
:106D3000044B90689B689847BDE80840FFF7CCBFBC
:106D4000DC0E0020CC0E002008B5044A044BD068AD
:106D5000DB689847BDE80840FFF7BEBFDC0E0020A7
:106D6000CC0E0020036843B11A6893420BBF002386
:106D7000116803601960104670471A46FBE708B5B2
:106D800000B109B9FFF734FA4B68002BFAD0EFF3E2
:106D9000108272B60B6833B903686BB11B680B6065
:106DA000036819600160406882F3108830B10121E6
:106DB000BDE80840FFF7FEBB0960F3E708BD10B56A
:106DC000EFF3108472B6FFF7CDFF84F3108808B19B
:106DD0000023036010BD000038B1054B0A0901F023
:106DE0000F019A5C5B5C027043700220704700BF29
:106DF000119D0200F8B50D465700064610B18C18DB
:106E0000A54201D13846F8BD304615F8011BFFF701
:106E1000E3FF0644F4E738B5054601F00AFA0446F4
:106E200005F11000FFF772FA204638BD73B50A4627
:106E30000C462321054602F0E9FC684601F050F9B2
:106E40006946002241F2055311F8010B03EB43138D
:106E50000344B2FBF4F004FB102001322E5C082A3C
:106E600086EA03062E54EFD1002341F205529C42DC
:106E700001D102B070BDE95C02EB42120A44B3FBDF
:106E8000F4F104FB11310133685C50406854EEE7C3
:106E900070472DE9F84FDDF834A00B9C1AF0030F72
:106EA00007468846154699461CD00A9E2644144437
:106EB000A24219D11AF0020F05D0561B0C9BB34207
:106EC00005EB060419D82046BDE8F88F02F1010B46
:106ED0004B4641462020B8475A460C99B318994270
:106EE000F4D8E2E7A61AF8E702F1010B4B46414657
:106EF00016F8010DB8475A46DAE74B462246414696
:106F00002020B8470136D9E72DE9F04F8FB0DDE9F1
:106F10001CC5189C05939DF864901A9F0CB925F028
:106F2000100515F48066049600D00CB315F0200F00
:106F3000A6460DF1180A4FF0000414BF4FF0370BAE
:106F40004FF0570BBEFBF7F807FB18E84FFA88F62F
:106F5000B8F1090F94BF30365E44F6B2BE450AF868
:106F6000016BBEFBF7F604F1010401D3202C14D110
:106F7000AE0725D405F00106BCF1000F08D03EB1E4
:106F8000B9F1000F02D115F00C0F01D00CF1FF3C4C
:106F90000DF1180E4FF0300804E0B646D2E704F8C1
:106FA0000E8001341B9B9C4201D2202CF7D10DF1A5
:106FB000180E4FF030081EB1644501D21F2C38D98D
:106FC000EB0620D5049B002B38D1002C36D01B9B20
:106FD000A34201D0644531D1661E2ED0102F37D187
:106FE000023CAF0636D41F2C18D80EAB1E197827DA
:106FF00006F8207C01341F2C10D80EAB1E19302748
:1070000006F8207C01341F2C08D8B9F1000F27D0D6
:107010000EAB1E192D2706F8207C0134019406AC16
:10702000CDE902C50094059BFFF733FF0FB0BDE823
:10703000F08F04F80E800134BDE73446102FD0D015
:10704000022FD8D11F2CE9D80EAB1E196227CFE72B
:107050003446F5E71F2CE1D80EAB1E195827C7E7B9
:107060006E0703D50EAB1E192B27D4E72B07D5D5FA
:107070000EAB1E192027CEE738B504464518AC42A2
:1070800000D338BD291B204601F0A6F80028F8DB04
:107090000444F4E738B50C4691F840104029054601
:1070A00005D12046FFF7E8FF002384F840302DB1DA
:1070B00094F840305A1C84F84020E55438BD000054
:1070C0002DE9F04F8BB0B1F10009149EB74F9046F7
:1070D0009B4618BF074600259BF8000060B9454550
:1070E0002CBF08F1FF322A46434649460020B847E4
:1070F00028460BB0BDE8F08F25280BF1010B06D018
:107100002A466C1C43464946B8472546E4E7002317
:1071100006E02D2A15D0302A0CD143F001038B460E
:10712000594611F8012B2B2A0ED0F2D8202A0ED066
:10713000232A0FD0A2F1300009282CD80022069271
:1071400012E043F00203EAE743F00403E7E743F009
:107150000803E4E743F01003E1E706980A2404FB80
:107160000022303A06928B46594611F8012BA2F1C3
:1071700030000928F1D99BF800202E2A47D19BF82E
:107180000110A1F1300009280BF1010243F48063E2
:1071900034D8002413E02A2A09D156F8042B002AF7
:1071A000BCBF524243F0020306928B46E3E7002243
:1071B0000692E0E70A2202FB0414303C0246104625
:1071C00010F8011BA1F1300CBCF1090FF2D91146E6
:1071D00011F8010B6C2824D01CD8682828D06A2804
:1071E0002FD011468B461BF8010B69283DD063D880
:1071F000622829D1022123F00C033EE02A2907D17D
:1072000056F8044B0BF1020224EAE474DFE75A4615
:107210000024DCE7742801D07A28E2D143F480739B
:10722000E0E750786C28F9D143F44073911CD9E71A
:107230005078682802D043F08003D3E743F0C003BE
:10724000F4E743F40073CDE709D825283FF458AF9D
:1072500058287FF455AF43F020031021CBE7632873
:1072600000F0848064287FF44BAF692823F010037A
:107270004FF00A0101D06428BDD15A0548BF23F060
:107280000103692803F4007201D0642845D1002A63
:107290007FF422AFDA0506F1040A34D5326805938B
:1072A000069B0291CDE90343002A4FEAD273019372
:1072B000B8BF524200923FE0732800F08C801CD887
:1072C0006F2801D1082196E770287FF419AF56F88E
:1072D000042B43F01103002A40F0D0800A200393CE
:1072E0000523CDE90130324B00932A4643464946F7
:1072F0003846FFF7CEFD0546EEE67528B5D078286E
:107300007FF4FEAEA9E713F0400F326801D052B20D
:10731000C5E71E0648BF12B2C1E7002A7FF4DCAE03
:10732000D80506F1040A10D50593069BCDE9012185
:10733000CDE90343336800932A464346494638461D
:10734000FFF7E2FD05465646C6E613F0400F3268E9
:1073500008D0D2B20593069B0291CDE903430023E6
:107360000193A7E71E0648BF92B2F3E713F00204A9
:107370002FD001232A46079356F8040B434649466B
:10738000C0B2551CB847002C3FF4A6AEDDE9062379
:107390009342BFF4A1AE43462A4649462020B8474F
:1073A000079B6C1C013307932546EFE7916E0200A3
:1073B000219D0200434649462020B8470AF10203B6
:1073C0000793069B05EB0A020AF1010A9A45F1D3DD
:1073D000D2E7A246F2E7B246002C5AF8046B14BF7B
:1073E00021464FF0FF3131443246107808B18A42CD
:1073F00010D113F48061A2EB0602089102D0A242E0
:1074000028BF224613F00203099312D007922A469E
:10741000951B15E00132E8E7434649462020B8476E
:10742000079B591C07910699994205EB0302F3D873
:10743000EEE71346AD1AF4E71C4643464946B84703
:10744000AA1916F8010B28B1089B002BF5D0631E72
:10745000002CF1D1099B1546002B3FF474AF079B1C
:107460009C1A06E02A46434649462020B8476E1C2F
:107470003546069A63199342F4D364E705930A23C9
:10748000CDE9034310210023CDE9013100924346A9
:107490002A4649463846FFF737FD2CE70FB410B5AA
:1074A00094B016AA002152F8043B02928DF84C10B9
:1074B000009203A94FF0FF320748FFF701FE9DF845
:1074C0004C10044603A8FFF7D7FD204614B0BDE8D2
:1074D000104004B0704700BF9570020038B50546F3
:1074E00002F0EEF9044601462846FFF7C5FD0121EA
:1074F0000248FFF7C1FD601C38BD00BF099A0200B9
:1075000070477047FFF75CBA042905D8032909D2F0
:1075100041B14FF0FF3070470C2903D040F20C63AB
:107520009942F6D110F0200F00F01F00044B00F537
:10753000E07008BF4FF0A04343F8201000207047D0
:10754000000300502DE9F041214E06EBC003054633
:107550001F790024A7420AD81E4B1B682BB11E4B73
:107560004FF080525A60BFF36F8FBDE8F08156F83C
:1075700035E00EEB8403D3F84011012926D1002217
:10758000DFF858C0C3F840210C2303FB05C31A7A67
:1075900042FA04F010F0010F604617D093F809800A
:1075A00048FA04F818F0010F08D1A14022EA0102BC
:1075B0001A724FF48033A340CEF808330C236B4388
:1075C000C21821465CF80330506898470134C1E77F
:1075D000389D0200000E002000ED00E0EC0E0020BF
:1075E000032808B501D9FEF703FE0A2008BD0000F4
:1075F000032808B501D9FEF7FBFD092996BF02480B
:107600000020C84008BD00BF0024F4000328F0B5E6
:1076100002D94FF0FF30F0BD1E4D0C2444432E190B
:107620002A5173601C4B53F83050C0001C180126BF
:1076300064796E60C5F808450024C5F80445EE601D
:10764000164EB1421AD11918C5F810450C7900210F
:107650000E468C4218D86AB103449A7953B2002B73
:1076600008DB012102F01F0201FA02F25B090C495A
:1076700041F8232001232B600020CCE701340A2CA1
:107680004FEA5606DDD1C4E701F15007013145F854
:107690002760DEE7EC0E0020389D02000024F40095
:1076A00000E100E0134B03EBC00210B512798A42EF
:1076B0001CDD53F830204FF480338B40C2F8083380
:1076C0000123D2F8004203FA01F1C9430C400A4BEE
:1076D000C2F800420C2202FB003049B2037A0B4090
:1076E0000372437A19404172002010BD4FF0FF3001
:1076F000FBE700BF389D0200EC0E0020064A02EBBB
:10770000C003197952F8303003EB810301221A6467
:10771000D3F84005704700BF389D02002DE9F74FB0
:107720002A4D05EBC00B80469BF804308B428946FE
:10773000164647DDFFF7E2FF8419EFF3108301934C
:1077400072B6234955F838700C2303FB08134FF029
:10775000010A197A0AFA09F252B211431972597AD6
:1077600007EB890521EA02025A724FF480310022A8
:10777000C5F8404501FA09F1C5F84021D5F8402186
:10778000C7F804134046FFF7B9FF9BF80510114AEC
:10779000201A52F82140204086420CD2D5F84021D0
:1077A0004AB9C7F804A04046FFF7A8FF5044C5F8FF
:1077B0004005C7F800A0019B83F31088002003B0A8
:1077C000BDE8F08F4FF0FF30F9E700BF389D0200B1
:1077D000EC0E0020289D02000020FFF7B3BE012020
:1077E000FFF7B0BE0220FFF7ADBE0320FFF7AABE31
:1077F00070B50C4615460146002840F092804B4A71
:107800004B4EC2E90053C6F86C052DB11820FFF7A6
:107810007BFE1823C6F8143503211920FFF774FEE8
:10782000434B1922C3F80C25B4F5164F4FF0FF3225
:10783000C3F80825C3F8102567D01BD8B4F5165F28
:107840005DD00BD8B4F5166F54D0B4F5965F54D014
:10785000B4F5966F30D06FF0850070BDB4F5964FDB
:107860004FD0B4F5E14F4ED0B4F5615FF3D14FF492
:107870006C1223E0B4F5613F4DD00AD8B4F5963FC1
:1078800045D0B4F5E13F44D0B4F5614FE3D1294A86
:1078900014E0B4F5E12F40D005D8274A9442DAD15C
:1078A0004FF080620AE0B4F5612F38D0234A944249
:1078B000D1D14FF0805201E04FF49E22C3F824252D
:1078C0001B4B0822C3F8002575B301211C4AC3F8DD
:1078D0003815C3F834251022C3F80423D3F8002246
:1078E00042F02002C3F800221960164B04221A60ED
:1078F0000020B2E74FF41D22E0E7134ADEE7134A07
:10790000DCE7134ADAE7134AD8E7134AD6E7134A03
:10791000D4E7134AD2E7134AD0E7134ACEE7134A13
:10792000CCE76FF0120098E7284696E71C0F00207E
:107930000020004000F0EB0090D0030040420F0018
:10794000240F002000E100E000B0130000502700E9
:1079500000A04E0000F0750000509D0000903A011C
:1079600000E0D70100B0AF0300705F0700D0BE0E8B
:1079700008B508B1FEF73CFC024B01225A60C3F87F
:10798000000508BD002000402DE9F0410F4688B0F9
:10799000904608B1FEF72CFC1B4BD3F800252AB10A
:1079A00011F0005520D11C46454502D308B0BDE872
:1079B000F081A8EB0506202E28BF20263246791933
:1079C000684601F089FE0023C4F820310123C4F881
:1079D00044D5C4F84865A360D4F82031002BFBD00F
:1079E0000123E3603544DFE70122C3F82001C3F837
:1079F0004415C3F848859A60D3F82021002AFBD0AB
:107A00000122DA60D2E700BF0020004008B50D4B2C
:107A1000D3F810215AB10022C3F81021D3F83C3515
:107A20002BB1094B09491A68097858689047084BE7
:107A30001B682BB1074B4FF080525A60BFF36F8F1A
:107A400008BD00BF002000401C0F0020240F0020B4
:107A5000000E002000ED00E00129F0B5044608D139
:107A6000012A0CBF103004F1700000258572B0B9F6
:107A700002E0881E012801D90020F0BD04F17C0538
:107A80000126012A0CBFA5F160002846477A5FB99C
:107A900086720136082EEAD00C350028F1D0046039
:107AA000027241724360E8E70020F2E7017A03685E
:107AB000827A012907D12AB9D3F8D0304FF48062F5
:107AC000C3F804237047002AFCD1D3F8D0304FF418
:107AD0000002F5E7017A0368827A012907D12AB901
:107AE000D3F8D0304FF48062C3F808237047002ADF
:107AF000FCD1D3F8D0304FF40002F5E7D0F8D03005
:107B000001225A6570470268837AD2F8D02010B4F7
:107B10000BB9C2F85C31047A0121994014B94C3395
:107B200042F82340C2F86C145DF8044BFFF7BEBF67
:107B300038B5D0F8D030D3F8002104466AB100221D
:107B4000C3F80021042180F8D42043689847D4F872
:107B5000D0300122C3F8042338BDD3F85821002ABD
:107B6000FAD0D3F80054EA0502D5436806219847B5
:107B7000AB0503D56368072120469847D4F8D03079
:107B80000022C3F8582140F60172C3F800244FF4D4
:107B90008002DFE770B5857A04681646ADBB8B07B7
:107BA00001D0FEF725FB027AD4F8D030012A16D195
:107BB00076B994F8D40002280AD11A651146A36850
:107BC00004F110009847042384F8D430304670BD87
:107BD0000122C3F80016C3F804665A60F6E7C3F83A
:107BE000001794F8D410C3F80467012908D1196567
:107BF000032384F8D43004F17000A3689847E5E7C4
:107C00000229E3D10122DA64E0E7D4F8D030047A23
:107C10001420012C00FB053012D1C0F8001603EB34
:107C20008503C0F804260B4A822111605C60D3F8FA
:107C300008110029FBD00021C3F808111160C5E725
:107C400005F59475C0F80017C0F80427012243F821
:107C50002520BBE71C7C0240027A08B503680AB104
:107C6000FEF7C6FA094AD3F8D03082211160817A32
:107C700003EB810301219962D3F830110029FBD075
:107C80000021C3F83011116008BD00BF1C7C024008
:107C900008B5837A0BB9FEF7ABFA0268007AD2F81E
:107CA000D02001280CBF8020002003F0070300290A
:107CB00043EA000314BF4FF4807100210B43C2F864
:107CC000183508BDFFF7E4BF012908B50ED1012B17
:107CD00001D0FEF78DFA1278D0F8D0101AB1C1F8A1
:107CE0000435184608BDC1F80425FAE76FF0850091
:107CF000F8E7F8B5837A0468027A0546002B5DD16F
:107D000094F8D410002A4CD1032908D184F8D42047
:107D100008212B68C9B29B682846984734E0D4F8FC
:107D2000D030D3F85C11A1B3C3F85C21D3F80017AD
:107D3000D3F880740F70D3F88404C0B24870D3F8BD
:107D40008864D3F88CC446EA0C264E80D3F890643D
:107D5000D3F894C446EA0C268E80D3F89864D3F8FE
:107D60009CC4D3F8843417F0800F46EA0C26CE80EA
:107D7000DBB214BF01210221052814BF84F8D410FE
:107D800084F8D420052BC3D12846BDE8F840FFF77E
:107D90008DBED3F82821BAB3C3F82811FFF75CFFD2
:107DA000B6E7042902D184F8D430B1E7D4F8D02062
:107DB000D2F8281141B3C2F82831A9E7012AD4F832
:107DC000D0100FD1D1F86C0402FA03F318421BD083
:107DD000C1F86C340023C1F860314FF08073C1F8F2
:107DE000043395E7D1F86C241033012606FA03F327
:107DF000134209D0FFF730FFAB7AD4F8D02010330C
:107E00009E40C2F86C6483E74FF0FF3181E738B5DC
:107E100005461C4629B101292FD06FF08504204664
:107E200038BD012B01D0FEF7E3F92B68A97A12784F
:107E3000007AD3F8D03004FA01F182B148B9D3F80E
:107E400014251143C3F814152846FFF75CFE0124DE
:107E5000E5E7D3F810251143C3F81015F4E7C9433B
:107E600028B9D3F814251140C3F81415D7E7D3F86F
:107E700010251140C3F81015D1E7012BD3D111788B
:107E8000FFF706FFCBE7012908B504D002291CD073
:107E90006FF0850008BD012B01D0FEF7A9F903683A
:107EA000D3F8D010837A007A50B903F5887301EBC8
:107EB00083035B68003318BF012313700120E9E7D7
:107EC00003F5847351F82330F4E7042BE5D10368FC
:107ED000D3F8D010837A007A30B903F5947351F84F
:107EE000233013600420D5E7142000FB0313D3F8DC
:107EF0000836F6E7032908B504D0042902D06FF04C
:107F0000850008BD012B01D0FEF772F913701846E9
:107F1000F7E7000038B54FF08053D3F80431B3F1E0
:107F2000413F01D1FEF764F9144A1549D0F8D03029
:107F300049F27534032514600D6014600124C3F800
:107F40000045D3F800442405FBD5D3F8004424F4BD
:107F50000064C3F8004449F27535002415600C60D4
:107F600015600122C3F8002502F1A07280F8D44008
:107F7000C3F80023034B80225A6038BD00EC064052
:107F800014ED064000E100E008B508B1FEF730F955
:107F9000004808BD280F0020034B044A1A60044A19
:107FA000C3F8D020704700BF280F0020589D020062
:107FB000007002404548D0F8D030D3F800212DE9B8
:107FC000F04104469AB1D3F80023D5070FD501211B
:107FD000C3F80813436898473D4B1B682BB13D4BD2
:107FE0004FF080525A60BFF36F8FBDE8F081D3F835
:107FF00058215AB1D3F80023510207D54FF480021B
:10800000C3F80823012163683048E4E7D3F85C2112
:1080100052B1D3F800331A0206D52F48A3680121C4
:1080200098472D48FFF756FDD4F8D030D3F82821D3
:10803000C2B1D3F800335B0514D594F8D4100129EC
:1080400005D12648A36898472448FFF743FD94F8D4
:10805000D430022B06D12048A368012198471F483D
:10806000FFF738FDD4F8D030D3F86021002AB3D020
:10807000D3F86C24002AAFD00022C3F86021D3F8D3
:108080006C840C260127B8F1000FA5D098FAA8F54A
:10809000B5FA85F5102D10DDA5F1100070432318F9
:1080A00093F8793023B17030A368012120449847B8
:1080B00007FA05F528EA0508E5E706FB05F02318A9
:1080C0005B7E002BF4D01030EEE700BF280F0020BD
:1080D000000E002000ED00E0980F0020380F002077
:1080E000024B024603CB10605160704760000010E5
:1080F0000C212220FFF708BA10B50321084C2920D3
:10810000FFF702FA4FF40073C4F80C3503212A205C
:10811000FFF7FAF94FF48063C4F80C3510BD00BFC7
:108120000003005008B5FFF7E3FFBDE80840FFF784
:1081300033BF2DE9F84380460D46FFF751FA00F1B1
:10814000FF394E460027B74213D139464046FFF764
:108150004FFA8542044618D9BFB1791E4046FFF751
:1081600047FAC4EB4505854288BF04462046BDE872
:10817000F883BC19640821464046FFF739FAA84243
:1081800084BF671C34462646DDE7A542EED24E4545
:10819000ECD2711C4046FFF72BFA671B0744AF4235
:1081A00088BF0446E2E70000F8B50C22084E094CEF
:1081B00000251746A41BB4FBF2F4AC4200D1F8BD75
:1081C00007FB05F3F35803B198470135F5E700BF06
:1081D0004C9E0200649E0200F8B50A4D0A4C0C2326
:1081E000641B0746B4FBF3F40E4603FB0454A5429C
:1081F00001D13046F8BDAB683146384698470C355A
:10820000F5E700BF4C9E0200649E020010B50A46CE
:108210000C4601460020FFF7B7FB204610BD0020AA
:10822000FFF7A6BB00231A464FF4E1311846FFF7CB
:10823000DFBAF0B50446EFF3108772B60020824231
:1082400004D0231D68CB751B9D4202D187F3108893
:10825000F0BD751C013B11F800C0E5603340256896
:10826000013005F803C0EAE7B1F5167F08B506D07E
:10827000B1F5966F01D1FDF78FFF002008BDFEF725
:10828000C7FAFEE70AB981F87C20704707B540F6C7
:108290000833ADF800300B8D8DF8023002238DF8D5
:1082A0000330082240F202236946019300F045FCA6
:1082B000082003B05DF804FB10B508B9FDF798FF7E
:1082C0000368002BFAD01B68BDE81040DB6A184732
:1082D0002B4B2DE9F743C1F884302A4BC1E9153106
:1082E00040F202234B850C4601F150034B610025FF
:1082F0000A230D6581F82C5001F110082162A1F8C4
:108300004A30082381F84C504D63022221640093C7
:1083100041460123064600F0F3FF08B9FDF768FF68
:1083200040F2FF1304F130074FF04009C3810322EC
:10833000CDF8009001233946304600F0E1FF857307
:108340000028EBD00123C3730322CDF800902B4605
:108350003946304600F0D4FF0028DFD04FF4807358
:10836000C3814146304600F0A5FF3946304600F053
:10837000A1FFE36843F00103E36003B0BDE8F083CD
:10838000BF840200889D020037B5194B0093044654
:108390000D460123694605228DF8043000F0CDFB1F
:1083A000144B009369460422204600F0C6FB42F2BB
:1083B0000543ADF8003006238DF802302B8D8DF883
:1083C00003306946B5F848308DF804300522204660
:1083D00000F0B3FB084AB5F8483000926946052220
:1083E00020468DF8043000F0A8FB132003B030BD08
:1083F000052400200424020205240100034670B471
:108400000846EFF3108472B61E6FD96EB1420ED0DB
:108410004A1CDA669A6E5D6E013A0A40AD5C9A6F4C
:10842000511C1A443F29996782F8D050EDD984F342
:1084300010889A6F03F1D00170BCFFF73DBF537AEB
:10844000032B73B50C4615461CD1137AE3B90AB950
:10845000FDF7CEFE1368002BFAD01B681E6A0423BA
:108460000DEB030202212846B047019A04F1900661
:108470001AB1E36D314620469847402231462846DE
:10848000FFF71AFF02B070BD012BFBD100238B67F1
:10849000EFF3108172B6D4E91B2381F310889A425E
:1084A000F0D0636F93F89831032BEBD194F87C30C4
:1084B000012BE7D129462046FFF7A0FFE2E78038ED
:1084C000836F6BB9436F93F89831032B08D190F801
:1084D0007C30012B04D1836B1B689968FFF78EBF3A
:1084E0007047034690F87C00F0B540B1EFF3108779
:1084F00072B60025AA4204D187F310882A46104696
:10850000F0BDD3E91A401E6F301AA042F4D0701C9F
:10851000013C11F805C018673440586E013500F869
:1085200004C0E7E7436F2BB100F1800103F5B87099
:10853000FEF725BC70477FB50D465978212933D009
:10854000222937D020292BD1DB88072B28D1032AD9
:108550001BD1002303A9039300F0C8FA039B072B48
:1085600004461DD14379827901680079009028463C
:10857000FFF77AFE2E6E56B92268C5F88820A288C9
:10858000A5F88C20A27985F88E2001200AE02079B8
:108590006379A279216800902846B0470028EBDA79
:1085A0004FF0FF3004B070BD072205F1880100F0E4
:1085B000C4FAEAE75B8813F001034FF0010414D01A
:1085C00085F87C400022032105F1300000F08BFE8D
:1085D00008B9FDF70DFE402205F190018068FFF714
:1085E0006BFE2846FFF79EFFCFE785F87C30CCE78F
:1085F0002DE9F843DDE908950C4606469046002132
:108600004FF4A87220461F4601F000F966671DB1BD
:108610006B4235EA030301D0FDF7EAFD0022084B67
:108620006360C4E91995C4E91B22C4E9178784F87B
:108630007C2021463046BDE8F84300F04ABE00BF2A
:10864000989D02000148FEF7E6BB00BF0002002033
:108650002DE9F0410A4F06460D46044615B9A01B08
:10866000BDE8F0812A4621463846FFF73AFF8046AA
:108670003846FFF757FF4444A5EB0805EEE700BF77
:10868000C010002007B580230193054B0093054AD5
:1086900005490023FFF7ACFF03B05DF804FB00BF02
:1086A0004010002045860200C010002010B508B917
:1086B000FDF79EFD0368002BFAD01B68BDE8104053
:1086C000DB6A184710B508B9FDF792FD0368002B67
:1086D000FAD01B68BDE810409B691847F7B5CB6816
:1086E00043F001030025CB60402601230C460D76A4
:1086F0001A4629460096074600F002FE8368A363E7
:1087000000962B4601222946384600F0F9FD836881
:10871000636303B0F0BD10B50A4608B9FDF768FD04
:108720000368002BFAD01B681C6A0221A4460423AC
:10873000BDE81040604710B50A4608B9FDF758FD7E
:108740000368002BFAD01B685C6A0021A446012351
:10875000BDE810406047000010B50C46C2B980F873
:108760009B210A76886BFFF7ADFF606BFFF7AAFFCE
:108770000849A06BFFF7DFFF0649606BFFF7DBFFDF
:1087800004F13C01606B4022BDE81040FFF78EBF52
:1087900010BD00BFBA9D02002DE9F3470B7C0C46CB
:1087A00059B20029054603DBE28A206B904211D8BA
:1087B00003F01F02012A00F0B0802AB1022A00F063
:1087C000CB8002B0BDE8F0870029637C73DA43B147
:1087D000062B11D0D5F87801002840F0E080FDF795
:1087E00007FD95F89B315B00022201A92846ADF8F0
:1087F000043000F0A2F947E0638A1A0A013A052A18
:10880000E8D801A151F822F0218802002F88020047
:1088100037880200D5870200D58702009F880200B2
:10882000284600F067FB0028D4DBCAD02CE028469D
:1088300000F064FAF7E7D5F88461002ECAD013F08F
:10884000FF030BD14FF44173022269462846ADF86D
:10885000003000F072F940F20943C5E703228DF8B9
:10886000052032899A4200F0B4803668002EF8D193
:10887000B0E7284600F08EF90021284600F08AF97A
:1088800016F8011F0029F4D194F91030002B80F262
:108890008C8001232376284600F098F991E7D5F8DB
:1088A000780100238DF80430036801AA9E68042132
:1088B0000123B0478EE7052B15D0092B8AD103235E
:1088C000D5F88861DFF83091DFF830A185F898316C
:1088D000002ED9D0B76857B9D6F80C80B8F1000F80
:1088E0000DD13668F4E7638A85F89A31CCE7FB7BD3
:1088F0001BB14946B868FFF71EFF3F68EBE7D8F8A1
:10890000087017B9D8F80080E8E7FB7B1BB1514627
:10891000B868FFF710FF3F68F3E7617CA28A03F0B5
:1089200060030B4302F00F023FF45EAFD5F88831CD
:10893000002B3FF44FAF198B91420BD11969486856
:10894000C6683EB1D5F87C2104F11003127E28469A
:10895000B04768E71B68EBE7A38A03F00F0000EB62
:1089600080001B06637C4FEA80004CBFD030303063
:10897000012B28440CD04BB1032B7FF42BAF638A1F
:10898000002B7FF427AF00F0DDFC7DE7037C2BE7B5
:10899000638A002B7FF41EAF00F0E1FC74E70368EC
:1089A0005B699847002323760BE7E38A226B9A42A0
:1089B00008D20323606B2376402204F13C01FFF7C9
:1089C00075FEFEE604232376002204F17C01A06BF1
:1089D000F5E702278DF80470706800F071FF013030
:1089E00040008DF804003A4601A9284600F0A5F899
:1089F0007668013E44E700BFB89D0200B99D0200C1
:108A000073B505460C465BBB0B7E042B13D8DFE821
:108A100003F04F29243E0300137A012B20D190F854
:108A20009A318BB190F89831012B0DD1D0F87801A3
:108A300005F5CD7208B9FDF7DBFB0168CE680021B2
:108A4000B047022385F8983100232376402204F1B1
:108A50003C01606BFFF72AFE02E0137A002BF4D092
:108A600002B070BD167A012EFAD100F04EF828B18E
:108A700021462846FFF790FE2676F1E7402204F1D2
:108A80003C01606BFFF712FE02232376E8E7137ABE
:108A9000002BE5D101A9606B0193FFF73CFE236B2E
:108AA000019A1344236321462846FFF775FED7E752
:108AB000167A002ED4D11022314604F11C0000F0A9
:108AC000A5FE224652F83C3F236153686361E38A66
:108AD0002663E362E7E70000034B4B60D0F88C317C
:108AE0000B60C0F88C117047A89D020010B5D0F83B
:108AF0007C4109B9FDF77CFB237E032BFAD1606B27
:108B0000FFF709FE04F13C0010BDD0F87C319A6BF0
:108B1000D8695268196A024491420CD9D96A8842CC
:108B200009D2986A81424FF0000005D9C3E90720B5
:108B300058620120704700207047D0F87C01F8B5DA
:108B4000836BC7695D68036A9F423D4403EB020C77
:108B500009D9AB4202D2FE1A964207D9C0F820C00A
:108B600000242046F8BDAB42F8D20026AC452CBF0D
:108B7000EC1A941B426AC0F820C028BFA41B2244F0
:108B8000DB1B426233447C3022463144184400F0FF
:108B9000A3FDE6E7D0F87C21D2E90703984210B59F
:108BA00010D8946B64680444A3420BD21B1A13447C
:108BB000012083F87C10136A01331362536A013376
:108BC000536210BD013313620020FAE7D0F87C1124
:108BD000CB6ACA69486A9A1A82428B6A28BF0246DF
:108BE000886B134410B57C3141F8543C08B9FDF74B
:108BF000FFFA0368002BFAD01B68BDE81040DB6A5F
:108C0000184770B506460C4600250CB9284670BDBD
:108C100062689368127B1AB9184605442468F4E721
:108C2000A16830469847F8E770B506460C4600251F
:108C30000CB9284670BD63681B682BB1A16830462B
:108C4000984705442468F3E71846FAE770B50646E6
:108C50000C4600250CB9284670BD63685B682BB1D3
:108C6000A1683046984705442468F3E71846FAE7B8
:108C70002DE9F7434FF00009DFF87C8005460C46EC
:108C80004E4640F207571CB9484603B0BDE8F08392
:108C900061682846FFF7C8FF8DF80660A268CDF826
:108CA0000260117A937A8DF80230012904BF63F0D3
:108CB0007F038DF80230537AADF80070013BDBB2D0
:108CC000032B17D818F803308DF80330A389ADF8BB
:108CD00004300722A37B8DF8063069462846FFF74B
:108CE0002CFF61682846FFF7B1FF9DF8003024682B
:108CF0009944C8E7FDF77CFABB9D02002DE9F04FCF
:108D00008DB07B4A039201228DF8112080228DF8CC
:108D10001320322200238DF81420D0F888218DF8FA
:108D2000123004465ABBD4F880118DF8103020461A
:108D3000FFF767FFD4F8886100F1090516BB238CA3
:108D4000ADF80E50092203A920468DF81230FFF726
:108D5000F4FED4F880112046FFF778FFD4F888514C
:108D600000F10909B04640F2094A002D41D1BDF891
:108D70000E004E44B04200F0B880FDF739FA0133DE
:108D80001268CFE771682046FFF73BFF093000EB20
:108D90000508B568002745B94744D6F80C80B8F1F6
:108DA000000F0AD13D443668C8E769682046FFF7DE
:108DB00028FF073007442D68EDE7D8F80410204657
:108DC000FFF71FFFD8F80890093005444FF0000A5C
:108DD000B9F1000F03D15544D8F80080DFE7D9F886
:108DE00004102046FFF70DFF07308244D9F80090A9
:108DF000EEE769682046FFF717FF2B8BCDF81A8046
:108E00008DF81A30AB7ECDF81D808DF81D30EB7ECD
:108E10008DF81E30AA682B7F8DF81F3000F10907EE
:108E2000ADF818A0002302BB8DF81C306B6913B19C
:108E30001B898DF82030092206A92046FFF77DFE08
:108E400069682046FFF702FF37440744A9682046B7
:108E5000FFF70EFFD5F80CB0074401220026BBF146
:108E6000000F05D13E442D687FE701331268DAE731
:108E70002B8B8DF82630AB7ECDF828808DF82930ED
:108E8000EB7E8DF82C808DF82A302B7F8DF82B30DF
:108E9000DBF808108DF82720531CADF824A0DBB2B6
:108EA0000022F9B98DF82820DBF80C2012B11289C4
:108EB0008DF82C20092209A920460193FFF73DFED9
:108EC000DBF804102046FFF7C1FE09300644DBF84A
:108ED00008102046FFF7CCFE019BDBF800B00644EB
:108EE0001A46BCE701320968DBE70DB0BDE8F08F38
:108EF000090209007FB5104A838D8DF814300021D6
:108F0000CDE9012140228DF80B200C4A03924FF449
:108F10008072ADF8102002898DF81220828A8DF8B7
:108F200013200123122201A98DF81530FFF705FE49
:108F3000122007B05DF804FB120100020912007D47
:108F400010B508B9FDF754F90368002BFAD01B6877
:108F5000BDE810409B6A184710B508B9FDF748F9FD
:108F60000368002BFAD01B68BDE81040DB69184786
:108F70000129F8B5C4680ED1B4F99421531E9BB2EF
:108F80001F2B96BF254B002053F822000221BDE87D
:108F9000F840FDF70FBB062924D007292BD0042960
:108FA0001FD1D4F878010123002584F8983184F882
:108FB0009A5104F5CD7208B9FDF71AF90168CE6827
:108FC0002946B047234604F1A00283F8405083F8B5
:108FD000E05014339342F8D101260027D4F88C5185
:108FE00085B9F8BD94F8983184F89931042684F84D
:108FF00098610227F2E794F8993184F898310826AD
:109000000327EBE7EB681E4205D06B683A465B68C6
:109010002946204698472D68E2E700BF480E002009
:1090200070B5036804460D46012DD868A17A21D198
:10903000237A012B0CBF08230023EFF3108272B6B2
:109040000B44D0F89041DBB205FA03F32343C0F898
:10905000903182F31088B0F99421531E9BB21F2BDC
:1090600096BF254B002053F822000421BDE8704034
:10907000FDF7A0BA89B9D0F88C1189B1082D26D096
:10908000092D0DD1CB689B060AD54B6822469D68F9
:109090000223A8471CBBFDF7ABF8D0F8882102B922
:1090A00070BD93681BB9D36843B91268F7E7996834
:1090B0008C4201D11169E0E71B68F3E7996809B9AF
:1090C0001B68F1E78E68B442F4D00968F7E74B6893
:1090D0009D682246AC460023BDE870406047236887
:1090E000002BD8D01B68054A5D6A01232046AC4698
:1090F0001946BDE870406047480E0020F79D020009
:1091000010B54FF4D8720C46002100F07FFBC0F878
:10911000784110BD1FB50293069B0193054B009348
:109120000023FDF7B1FA002801DCFDF761F805B076
:109130005DF804FB59910200034610B5D0F8840194
:109140000860B3F89601C3F88411441CA3F8964153
:1091500008814A6010BD00002DE9F04710F5B8788D
:10916000B2B0044601D1FDF743F84A4B00261B6814
:10917000C0F8743103A9C0F87061C0F87C11FFF722
:10918000ABFC454BD4F878511B88A4F894310123EB
:10919000A4F89631414B84F89A61C4F888616B60F9
:1091A0003F4BC5E90234002DDDD02B6828461B68F3
:1091B00098473C4A04F118012046FFF7BDFF3A4AA0
:1091C00004F10C012046FFF7B7FF384A214620463C
:1091D000FFF7B2FF04F5CE77082101A8FDF726FEC0
:1091E000082201A93846FDF705FE3A4604F124019C
:1091F0002046FFF7A1FF84F89861D4F88C61F6B996
:109200002B682B4ADE68012319462846B0474FF0E9
:1092100001090720FDF7BEF98107064603D52B6833
:1092200028461B699847720710D4F307F1D54046CA
:10923000FDF7C5FD0028ECD043689847E9E773685F
:1092400031461B68204698473668D8E7EFF310830D
:1092500072B60022D4F890A1C4F8902183F310884C
:109260001427BAF1000FE0D09AFAAAF3B3FA83F305
:10927000072B09FA03F2CBBF083B07FB034307FBAD
:109280000343986BC8BFD3F8D8002AEA020AFFF755
:1092900057FEE6E7FC0D0020F80D0020718F02005C
:1092A00021900200C09D0200CB9D0200EB9D0200B8
:1092B000BF9D0200D0F8883110B5002200F5C474BB
:1092C00090B2013213B90883216010BD1C461B689F
:1092D000F6E7D0F88C3100F5C6720BB91160704713
:1092E0001A461B68F9E710B5806800B910BD83689D
:1092F0005C7A8C4202D11B7A9342F7D00068F4E783
:10930000F8B50446D0F87801069E0D4611461A4677
:1093100008B9FCF76DFF03685F683346B84702463B
:1093200078B1837A017A03EB83039B0001290CBF98
:10933000D0333033E0188681826015B1AB680360AA
:10934000A860F8BD08B583689A7A0AB9FCF750FF9F
:10935000012101741846BDE80840FFF7FDBD08B5BE
:1093600083689A7A0AB9FCF743FF00210174184612
:10937000BDE80840FFF7F0BD03682BB10B682BB9BF
:10938000C3685A1A53425341184670470123FBE7FA
:1093900003682BB1596839B91A68026012B9C26002
:1093A000184670471960FBE70023F9E738B5054612
:1093B0000C46FFF7E1FF08B9FCF71AFF2B461868C7
:1093C00098B1A04212D1EA68A24204D1AB4214BFC4
:1093D0001A460022EA6022681A601AB1536861686E
:1093E0000B44536000232360012038BD0346E6E7A9
:1093F000416903688268B1F1FF3F07D049081268EC
:109400001BB15B68994228BF1946104713B1126817
:109410005968FAE79368184738B5436904460BB9A9
:10942000FCF7E6FEEFF3108572B683685B68984739
:10943000D4E90513E26998423ABF0131091801469F
:10944000D31A0B44C4E9060385F31088184638BDC7
:109450004269013201D0FFF7DFBF83685B681847BC
:1094600038B505464468FFF7F3FF2B6833B1021B9C
:1094700000245968914203D38A1A5A60686038BD43
:10948000521A5C601B68002BF8D059680029F9D08B
:10949000EFE72DE9F04106460D461446EFF310883C
:1094A00072B6FFF7DDFF294607463046FFF764FF37
:1094B00010B13046FFF77AFF328AA24234BFA21AB7
:1094C00000226A6034460021236883B9501A2B6059
:1094D00068609BB18A1A59680A445A602560304610
:1094E000FFF786FF88F310883846BDE8F08158689A
:1094F00008448242EAD31C460146E5E7F560EDE701
:109500004369013310B5044619D0FFF7A1FF226863
:1095100082B1636851680B44181A00280FDD616935
:10952000A368490881421B6828BF01462046BDE860
:10953000104018476169A36849081B68F6E723686B
:1095400043B92046FFF754FFEFF3058313F0FF0FF5
:1095500017D010BD626859680A44626000225A60E0
:109560002046FFF715FF0028EBD0D0E902309847DE
:109570002046FFF70DFF0028F5D12046FFF770FFCA
:10958000EEE7034B4FF080525A60BFF36F8FE0E776
:1095900000ED00E008B50A4A0A484FF0FF33002109
:1095A00000F02EF8084AA0F56723A3F56F639342F5
:1095B000014604D90548BDE80840FDF76FBF08BD66
:1095C00040420F0014020020A0860100FC9D020012
:1095D000FFF796BF0021006AFEF764B8006AFEF745
:1095E0008DB8828C8A4210B538BF0A46EFF31084DA
:1095F00072B60021006AFEF791F884F3108810BD5E
:1096000070B504460D4621620D49816043611146E3
:109610002846FEF78EFD234606460146094A28469F
:10962000FDF7F4FF08B1FCF7E3FD61694B1C04D0C2
:10963000A36849081B6820469847304670BD00BFA4
:10964000389E0200D1950200FCF760BE10B586B0CE
:10965000EFF3058212F0FF0201D0FCF7C9FD4FF0D5
:10966000FF33CDE90132094B0493438A03928B42C5
:1096700038BFCA1A01AC02A90594FFF70AFF0121FD
:109680002046FCF70BFE06B010BD00BF4996020055
:1096900070B50D4E0D4D761BB61006D0002401346A
:1096A00055F8043B9847A642F9D1094E094D761B5F
:1096B000FDF726FFB61006D00024013455F8043B10
:1096C0009847A642F9D170BD649E0200649E0200D4
:1096D000649E0200649E0200844641EA000313F087
:1096E00003036DD1403A41D351F8043B40F8043BA9
:1096F00051F8043B40F8043B51F8043B40F8043B6C
:1097000051F8043B40F8043B51F8043B40F8043B5B
:1097100051F8043B40F8043B51F8043B40F8043B4B
:1097200051F8043B40F8043B51F8043B40F8043B3B
:1097300051F8043B40F8043B51F8043B40F8043B2B
:1097400051F8043B40F8043B51F8043B40F8043B1B
:1097500051F8043B40F8043B51F8043B40F8043B0B
:1097600051F8043B40F8043B403ABDD2303211D3AB
:1097700051F8043B40F8043B51F8043B40F8043BEB
:1097800051F8043B40F8043B51F8043B40F8043BDB
:10979000103AEDD20C3205D351F8043B40F8043BAB
:1097A000043AF9D2043208D0D2071CBF11F8013BA9
:1097B00000F8013B01D30B8803806046704700BF6F
:1097C000082A13D38B078DD010F003038AD0C3F17E
:1097D0000403D21ADB071CBF11F8013B00F8013B60
:1097E00080D331F8023B20F8023B7BE7043AD9D31F
:1097F000013A11F8013B00F8013BF9D20B780370F4
:109800004B7843708B78837060467047F0B486075E
:1098100046D0541E002A3CD0CAB2034602E014F1DE
:10982000FF3436D303F8012B9D07F8D1032C29D937
:10983000CDB245EA05250F2C45EA054533D9A4F1FB
:109840001006360903F1200707EB061703F1100293
:1098500042E9045542E902551032BA42F8D1721C6D
:1098600014F00C0F03EB021204F00F0613D0331F99
:1098700023F003030433134442F8045B9342FBD107
:1098800006F003042CB1C9B21C4403F8011B9C422E
:10989000FBD1F0BC704734461346002CF3D1F8E7F7
:1098A00014460346C2E71A462646E0E700000000D9
:1098B00000000000000000000000000000000000A8
:1098C00090F800F06DE9024520F007016FF0000C00
:1098D00010F0070491F820F040F049804FF00004A8
:1098E0006FF00700D1E9002391F840F000F1080083
:1098F00082FA4CF2A4FA8CF283FA4CF3A2FA8CF3BB
:109900004BBBD1E9022382FA4CF200F10800A4FA21
:109910008CF283FA4CF3A2FA8CF3E3B9D1E9042375
:1099200082FA4CF200F10800A4FA8CF283FA4CF3AC
:10993000A2FA8CF37BB9D1E9062301F1200182FA66
:109940004CF200F10800A4FA8CF283FA4CF3A2FA6C
:109950008CF3002BC6D0002A04BF04301A4612BA7A
:10996000B2FA82F2FDE8024500EBD2007047D1E97D
:10997000002304F00305C4F100004FEAC50514F00C
:10998000040F91F840F00CFA05F562EA05021CBFDD
:1099900063EA050362464FF00004A9E77573627538
:1099A00073004641494C4544204153534552544964
:1099B0004F4E2E0030782578203D3E20006D6169A5
:1099C0006E006D61696E28293A20546869732069B8
:1099D000732052494F5421202856657273696F6E67
:1099E0003A206263643039642D4845414429002A95
:1099F0002A2A2052494F54206B65726E656C207084
:109A0000616E69633A0A25730A0A002A2A2A2068C5
:109A1000616C7465642E0A007363686564756C65B7
:109A20007228293A20737461636B206F76657266C1
:109A30006C6F772064657465637465642C2070694D
:109A4000643D2568690A00535441434B204F5645F5
:109A500052464C4F5700496E7369646520697372B2
:109A60002025640A00425553204641554C54204855
:109A7000414E444C4552004445425547204D4F4EBF
:109A80002048414E444C45520044554D4D592048C4
:109A9000414E444C4552000A49535220737461634D
:109AA0006B206F766572666C6F77656400537461C6
:109AB000636B20706F696E74657220636F7272756C
:109AC000707465642C20726573657420746F2074E3
:109AD0006F70206F6620737461636B0061637469DB
:109AE0007665207468726561643A202568690A00A9
:109AF0000A436F6E74657874206265666F726520C4
:109B0000686172646661756C743A0020202072305E
:109B10003A2030782530386C780A20202072313A8B
:109B20002030782530386C780A20202072323A2094
:109B300030782530386C780A20202072333A203073
:109B4000782530386C780A0020207231323A203083
:109B5000782530386C780A2020206C723A203078D2
:109B60002530386C780A20202070633A2030782520
:109B700030386C780A20207073723A2030782530A3
:109B8000386C780A0A004653522F4641523A002058
:109B9000434653523A2030782530386C780A0020FA
:109BA000484653523A2030782530386C780A0020E5
:109BB000444653523A2030782530386C780A0020D9
:109BC000414653523A2030782530386C780A0020CC
:109BD000424641523A2030782530386C780A004DA0
:109BE0004D4641523A2030782530386C780A004D85
:109BF000697363004558435F5245543A20307825D5
:109C000030386C780A004163746976652074687234
:109C10006561643A2025686920222573220A00487C
:109C2000617264206661756C74206F636375727213
:109C3000656420696E20495352206E756D626572AD
:109C40002025640A00417474656D7074696E672024
:109C5000746F207265636F6E7374727563742073B2
:109C60007461746520666F722064656275676769E8
:109C70006E672E2E2E00496E204744423A0A20205D
:109C8000736574202470633D3078256C780A202039
:109C90006672616D6520300A202062740A000A49EC
:109CA000535220737461636B206F766572666C6FBC
:109CB000776564206279206174206C65617374201B
:109CC00025642062797465732E0A0048415244204D
:109CD0004641554C542048414E444C4552004D4558
:109CE0004D204D414E4147452048414E444C455240
:109CF000004E4D492048414E444C45520055534179
:109D00004745204641554C542048414E444C45520D
:109D100000303132333435363738394142434445E7
:109D200046296C696E280000FFFF0000FF0000005C
:109D3000FFFFFF00FFFFFFFF00900040030309004B
:109D400000A0004003030A0000A0014005031A0020
:109D500000B0014005031B00157F0200597A020084
:109D6000F57E0200C97C0200317B0200FD7A020010
:109D7000077B0200C57C0200877E02000F7E020086
:109D8000F37C0200957B02008D8202008983020031
:109D90001B00000000000000D1820200858202004A
:109DA0003F84020037850200DD86020059870200E9
:109DB000018A02000000000001010100030201010C
:109DC00055534220636F6E66696700616461667215
:109DD0007569742D666561746865722D6E7266357D
:109DE000323834302D73656E73650052494F542DEF
:109DF0006F732E6F72670000140200205A54494D91
:109E000045525F555345432066726F6D20256C7532
:109E100020487A20636C6F636B20776974686F7574
:109E200074206672657175656E637920636F6E76F6
:109E3000657273696F6E0A00E3950200DD9502009A
:109E4000D595020095950200556102002582020019
:109E50001F8202000D8202000000000000000000CE
:049E60005186020025
:109E6400001000204000000000000000000000007E
:109E7400FFFFFFFF000000000000000000000000E2
:109E840000000000000000000000000000000000CE
:109E940000000000000000000A0000002C21000067
:04000003200069D59B
:00000001FF
