:020000022000DC
:1060000000020020C97002006570020021700200C9
:10601000757002008570020095700200000000009B
:1060200000000000000000000000000005700200F9
:10603000A570020000000000B96F0200B5700200F8
:106040004D8502004D8502003D9002005975020009
:10605000757502004D8502004D8502004D850200D8
:106060004D850200058E02000B8E02004D85020058
:106070004D8502004D8502004D8502004D850200D0
:106080004D8502005D8A02004D8502004D850200AB
:106090004D8502004D8502004D8502004D850200B0
:1060A0004D8502004D850200118E0200178E020000
:1060B0004D8502004D850200000000000000000038
:1060C0004D8502004D8502004D850200917502004C
:1060D0004D8502004D8502004D850200ED950200C0
:1060E0004D8502004D8502004D8502000000000034
:1060F000000000004D85020000000000AD750200A8
:10610000F7B50D4616461F46044608B900F0F2FBE7
:10611000006802F061FB0023CDE900732A46334694
:106120003921206802F0E3FB0546206802F070FB8D
:10613000281E18BF0120404203B0F0BD30B5002337
:10614000DCB241FA04F5ED0703F10103F8D590F94B
:106150000030A2405A4011404B40037030BD73B52F
:106160000D461646044608B900F0C4FB006802F06C
:1061700033FB01230022CDE9003239212A46334680
:10618000206802F053FB0546206802F041FB281E00
:1061900018BF0120404202B070BD2DE9F3411C46FA
:1061A00005460E46174600235FFA83F847FA08F2C1
:1061B000D20703F10103F7D501230DF107023146A0
:1061C0002846FFF79DFFB0B99DF9073004FA08F49F
:1061D0005C4004EA0702534031460DF107022846AD
:1061E0008DF80730FFF7BBFF003818BF0120404291
:1061F00002B0BDE8F0814FF0FF30F9E737B5044653
:1062000008B900F077FB0029FBD08B88B3F5807FBD
:10621000F7D84B89B3F5807FF3D8CB790F2BF0D823
:106220000FC984E80F004FF4FA7501230DF107023E
:1062300092212046FFF764FF80B99DF80730AB2B11
:1062400011D18DF805000DF1050280212046FFF7E0
:1062500086FF58B14FF0FF3003B030BD4FF0FF3034
:10626000013DE2D1F8E76FF00100F9E7A3880DF1F5
:1062700006025B42812120468DF80630FFF76FFF52
:106280000028E7D1A37903228F212046FFF785FF5D
:106290000028DFD1E379002B4AD1237AC0228F2155
:1062A0002046FFF77AFF0028D4D1637A0C228F2191
:1062B0002046FFF772FF0028CCD163890DF1070259
:1062C0005B42832120468DF80730FFF748FF002806
:1062D000C0D1012211468DF805000DF10500FFF730
:1062E0002DFFA288003A18BF01220221FFF726FFE6
:1062F000E279003A18BF01220421FFF71FFF6289EB
:10630000003A18BF01220821FFF718FF024680213A
:106310002046FFF724FF00289CD1237B02228D21F9
:106320002046FFF73AFF003818BF0120404293E7AC
:10633000013BDBB23F228E212046FFF72EFF0028D3
:10634000ABD087E713B50C4608B900F0D3FA0029A3
:10635000FBD0022301AA9421FFF7D2FE20B9BDF899
:106360000430238002B010BD6FF00300FAE713B5CC
:106370000C4608B900F0BEFA0029FBD000230093B8
:10638000ADF804306A4606239621FFF7B9FE50B9EE
:10639000BDF800302380BDF802306380BDF80430C2
:1063A000A38002B010BD6FF00300FAE713B50C46EE
:1063B00008B900F09FFA0029FBD00023ADF80430A3
:1063C00001AA01239C21FFF79BFE20B9BDF80430F0
:1063D000238002B010BD6FF00300FAE710B50C4641
:1063E000FFF7E4FF18B91A23E380012010BD6FF016
:1063F0008B00FBE710B50C46FFF7A4FF18B91A2372
:10640000E380012010BD6FF08B00FBE713B50C4655
:106410006946FFF7ACFF68B9BDF800302380BDF8CE
:1064200002306380BDF80430A3801A23E380032088
:1064300002B010BD6FF08B00FAE7000007B5074B04
:10644000074C1B6801930749019805F0ABFCD4F891
:10645000043583F40073C4F80435F4E788D10200EE
:106460000003005040420F0070B5064B064E9B1BC8
:106470009C080025AC4200D170BD56F825309847E5
:106480000135F7E7B4D20200A8D2020013B500200C
:1064900003F096F8014608B900F02CFA084C2046A3
:1064A00005F024F8204604F0D5FA064B064800947F
:1064B00001224FF4806105F025F802B010BD00BF45
:1064C0009002002020C302004004002007B51346BC
:1064D000002200920A460179006803F0A7F900380B
:1064E00018BF0120404203B05DF804FB07B5134616
:1064F000002200920A460179006803F0A1F90038F1
:1065000018BF0120404203B05DF804FB30B50446DB
:106510008BB000B109B900F0EDF907C984E80700B4
:1065200002F05AF90DF10F02D0212046FFF7CEFFFD
:1065300038B1206802F06CF96FF0010528460BB005
:1065400030BD9DF80F30582BF3D1B622E021204604
:10655000FFF7CCFF00283FD10DF10F02F3212046B9
:10656000FFF7B4FF002837D19DF80F30002BF3D18F
:106570000193182300932179206804AB882202F04C
:10658000B6F948BB049BE360059B2361069B6361EE
:10659000079BA361089BE361099B62792362A3794E
:1065A000F5211A4320468DF80F20FFF79FFF98B979
:1065B000627A237A920042EA4312E3791A43D2B212
:1065C000F42120468DF80F20FFF790FF0546206844
:1065D00015B902F01DF9B1E7206802F019F94FF082
:1065E000FF35ABE71FB5044608B900F083F9006832
:1065F00002F0F2F8E379032B11D106230022CDE952
:10660000003204F1340321792068F72202F06FF997
:10661000236808B3206802F0FBF8234841E0627A5F
:10662000237A920042EA431242F00102D2B2F421EC
:1066300020468DF80F20FFF759FF0028EAD10DF111
:106640000F02F3212046FFF741FF0028E2D19DF819
:106650000F301B07F3D4D0E7184602F0D9F894F8AE
:10666000383094F8372094F839101B0143EA02338C
:10667000A28943EA1111C2EB13135200C2EBD102FB
:10668000B4F90E105B434A43B4F910101B134B438B
:106690009B1303EBE220206300EB8000803040F38B
:1066A0000F2004B010BD00BF0080FFFF2DE9F041B6
:1066B000054608B900F01EF9FFF794FF95F835403C
:1066C00095F834302A6BB5F91A60B5F91CC024016D
:1066D00044EA033495F8363044EA1314D317B2F57C
:1066E000FA3243F1FF33A2FB027102FB03F001EB2C
:1066F000400106FB03FEF01702FB00EEA6FB026062
:1067000086444FEAEC780CFB01F04FEA4E4E4EEA1D
:10671000D63E07FB08007604ACFB07C816EB0C0658
:106720004044B5F918C040EB0E0000EBCC00B5F9C1
:1067300014C04FEAEC7E0CFB03F302FB0E33ACFB00
:1067400002C21344B5F916204FEAE27E514307FB1B
:106750000E11A2FB072739441B03120A42EA016209
:1067600043EA1C534FEA0C3C1CEB020C6A8A03F50B
:10677000004343EB2123ACFB02C102FB0311CB1707
:106780004A1053EA610150D0C4F5801404F000416E
:1067900041EA5401E407A41B40F6354661EB0001D1
:1067A000A4FB060406FB014105F01EFBB5F9202001
:1067B000064602FB01F44FEAE27C430B0CFB00406F
:1067C000A2FB06242044D20C42EA4032B5F9224012
:1067D00043EAC14392194FEA613741EBE04103FBC1
:1067E00007F0A3FB033606EB4006E017584304FB13
:1067F0000600A3FB043420445B0E43EAC013D21806
:10680000B5F91E304FEAE37441EB6061120A2401CE
:1068100044EA137442EA01621B01981844EB2124F4
:10682000000A40EA0460BDE8F0814FF0FF30FAE76B
:1068300010B50C46FFF7D6FE4FF60263E3802080CA
:10684000012010BD13B51723CB800C46FFF72EFF98
:106850000122019001A9204603F062F8012002B054
:1068600010BD41F6C813584348BF00F2FF3040F353
:106870008F207047704700004FF080435722C3F8C5
:106880001C25BFF34F8F0549054BCA6802F4E0622F
:106890001343CB60BFF34F8F00BFFDE700ED00E077
:1068A0000400FA0570B50144044618468C4200D134
:1068B00070BD14F8013B0825584046B24300002E35
:1068C000D8B2B8BF5040013DF7D1EFE708B5EFF3BC
:1068D0000583DBB243B9EFF310832BB9044801F011
:1068E00021FE00F015FAFCE70149032000F03AF818
:1068F00026C3020008B57146024801F0D3FDFFF738
:10690000E5FF00BF38C3020008B5FFF7ADFD03483F
:1069100001F008FEFFF792FD002008BD41C3020010
:106920001FB5EFF3108372B6074B02930023019358
:10693000064B0093072204234FF4C061044800F083
:1069400015FA00F023FB00BF6EC3020009690200C4
:106950004008002008B502F087FFBDE8084003F0BA
:10696000FBBD704708B50B4B1A680C4652B90122A3
:106970001A60FFF7F6FF0848214601F093FD07482B
:1069800001F0D0FDEFF3108372B600F0A3FAFFF729
:1069900073FF00BF400E002073C302008FC30200CC
:1069A00070B504460846EFF3108672B6236833B913
:1069B0004FF0FF33236086F31088012070BD11B9BA
:1069C00086F31088FAE70F4B1D680DB9FFF792FFA9
:1069D0000321284600F0B2F8236801330DD105F1F8
:1069E0000C0323600023EB6086F31088064B4FF006
:1069F00080525A60BFF36F8FDFE72946204600F0D0
:106A0000A1F9F1E78C0E002000ED00E038B5044656
:106A1000EFF3108572B6006810B985F3108838BDA1
:106A2000431C02D100232360F7E750F80C392360A0
:106A30000C2100F083F8236813B94FF0FF33236073
:106A400085F31088034B4FF080525A60BFF36F8F6D
:106A5000E5E700BF00ED00E008B503790B2B04BFAC
:106A60000C230371836A1A68934208D0B0F90610A8
:106A7000034801F017FD03490D20FFF773FF08BD20
:106A80009CC30200CBC3020010B5046844B1236864
:106A90008B4206D19C4219BF1B6823600023036010
:106AA00010BD1A461B68994202D09442F9D1F7E70B
:106AB000002AF5D013681B6813600368994208BF69
:106AC0000260EDE770B5174C174E236835683BBB85
:106AD00015B12846FFF7C0FF00F09CFA2368002B91
:106AE000FAD00020114A00211160B3FA83F3104A52
:106AF00052F823301C680C3C0B23AC4223710DD0A0
:106B000008B1FFF7A9FF0B4BA16AB4F906201A8060
:106B10001F31094A3460022000F0CCF9204670BDD4
:106B20002846DFE7440E00208C0E0020880E00204F
:106B3000480E0020180F00200800061670B50A291C
:106B4000037904460D461AD90A2B14D84279174BFB
:106B500000F10C0153F8220078B10068E06053F8AE
:106B60002200016043F8221011494FF00043D34046
:106B70000A6813430B60257170BDE160F2E70A2BD0
:106B8000F9D94079094E04F10C0106EB8000FFF7BA
:106B90007BFF637956F82320002AECD104494FF09B
:106BA0000042DA400B6823EA0203E3E7480E0020C4
:106BB000440E00200B4B1B681A790A2A02D95B7914
:106BC00083420DD9EFF30583DBB21BB1064B0122E3
:106BD0001A607047054B4FF080525A60BFF36F8FB9
:106BE000704700BF8C0E0020880E002000ED00E0F2
:106BF00008B5EFF3108372B6094B0A4A1B880A4D99
:106C00001BB2002442F82340084A28681368214632
:106C1000013B1360FFF792FF2C6000F0B7F900BF53
:106C2000180F0020940E00208C0E0020900E0020E3
:106C300010B50346EFF3108472B6028902EA010030
:106C400022EA01021A8184F3108810BD0C4A03461F
:106C500010B51068EFF3108472B6028913420CD19C
:106C600003610721FFF76AFF84F31088054B4FF09B
:106C700080525A60BFF36F8F10BD84F31088FBE71A
:106C80008C0E002000ED00E038B5054B1D68044671
:106C9000FFF7DCFF21462846BDE83840FFF7C8BFB4
:106CA0008C0E002010B5EFF3108472B603890279C0
:106CB0001943072A038A018104D0082A13D084F3D8
:106CC00010880FE01942FAD00C21FFF737FF074B6D
:106CD00001221A6084F31088054B4FF080525A60ED
:106CE000BFF36F8F10BD8B43E9D1EDE7880E002015
:106CF00000ED00E0431E9BB21F2B05D8034B53F859
:106D0000200010B1C06A704700207047940E002028
:106D100010B5EFF30583DBB27BB9EFF3108472B6E5
:106D2000064B02211868FFF709FF84F31088044B13
:106D30004FF080525A60BFF36F8F10BD8C0E002051
:106D400000ED00E038B50B790A2B01D9FFF7D2FD31
:106D50004C7901F10C020346006818B110F8075C89
:106D6000A542F8D9C8601A6038BD00000F2A2DE985
:106D7000F84F05468A469046994633D810F00303EB
:106D80001DBFC3F10402043B5B180B46A3F134039F
:106D900018BFAD1833F0030324D419F0080F05EB26
:106DA000030416D02D60EFF3108B72B6274A01262C
:106DB000114652F8047FC7B10136212EF9D18BF369
:106DC00010886FF08A063EE012600432A242FBD3C4
:106DD000E9E72A46FAE702212046FFF7AFFE8BF3E8
:106DE000108830E06FF015062DE036B22A4641F8E3
:106DF0002640DDE90A01E68000F094F80C9B144A75
:106E0000E3624FF0FF33C4E90837136820600133B1
:106E100019F0010FC4E90377C4E90577A562C4F846
:106E200030A084F805802771E7611360D3D10C216D
:106E30002046FFF783FE19F0040FD0D18BF31088A2
:106E40004046FFF7B7FE3046BDE8F88F940E0020AD
:106E5000900E00200C4B0D4A10B540219A600C4C4E
:106E6000E02283F82220D9770022A0180132302AAC
:106E700080F80013F9D11A6942F010021A615A69B8
:106E800042F400725A6110BD00ED00E000600200A3
:106E900000E100E0064BD3F8942042F00502C3F86D
:106EA00094205A6A42F480325A620020704700BF30
:106EB00000ED00E0064B21F01F0142F00102C3F893
:106EC0009800C3F89C100020C3F8A020704700BFB2
:106ED00000ED00E008B5EFF30581C1F3080119B139
:106EE0000548103901F0DEFA044BD3F8F030DB0727
:106EF00000D500BE08BD00BFDAC3020000ED00E00F
:106F0000BFF34F8F0549064BCA6802F4E062134392
:106F1000CB60BFF34F8F00BFFDE700BF00ED00E087
:106F20000400FA051A4422F0030210B54FF077343A
:106F300042F8044C540758BF4FF08834A2F10403C0
:106F40005CBF42F8084CA2F108034FF0807243E99D
:106F500002020D4A43F80C2C0020032243E90520CD
:106F600043F8201C01220224194643E907246FF04C
:106F7000020241F8242D0B2241F8042D013A032A84
:106F8000FAD1A3F1440010BDF16B02000023E1EE41
:106F9000103AEFF3148323F0040383F31488BFF350
:106FA0006F8FEFF3108362B6024B4FF080525A603E
:106FB000BFF36F8F00ED00E0114910B50C6872B699
:106FC000FFF780FD62B6A04208BF10BD2146BDE8B4
:106FD000104049B1EFF309821EF0100F08BF22EDF7
:106FE000108A22E9F04F0A600068B0E8F04F1EF006
:106FF000100F08BFB0EC108A80F3098870470000BA
:107000008C0E0020024B4FF080525A60704700BF38
:1070100000ED00E030BF62B6BFF36F8F72B670470D
:107020000D4B0E4A0E496846904203D8984201D94A
:10703000002102E009468D460121042072460242E9
:1070400002D1EFF3088001E0EFF309802DE9F00FA2
:107050006B4600F087F800BF5801002000000420B4
:107060000002002008B502490620FFF77BFC00BFA4
:10707000E9C3020008B502490520FFF773FC00BF11
:10708000F5C3020008B502490820FFF76BFC00BFFA
:1070900008C4020008B502490920FFF763FC00BFDD
:1070A0001AC4020008B502490A20FFF75BFC00BFC2
:1070B0002EC4020008B502490B20FFF753FC00BFA5
:1070C00040C40200704770471C4AD2F8883043F42D
:1070D000700310B5C2F88830FFF7F4FF6A46184B0A
:1070E0001848194693421DD3174B184A1848834233
:1070F0001BD3184B184A002093421BD321B1174AC7
:1071000017490120FFF7D6FEFFF7C4FEFFF7DBFFAC
:1071100000F07EF9FFF7AEFB05F0ACF8BDE81040DB
:10712000FFF7FEBB43F8040BDCE752F8044B43F8CF
:10713000044BDCE743F8040BDEE700BF00ED00E0A2
:1071400000000020FEE7FEE70002002010D302004E
:107150009002002090020020D81600200800061699
:107160001F0000202DE9F04F9A46564B8FB09346F2
:107170009A6B03925A6B0492D3F82880DA6A0592CC
:107180001A6BDB6B0793504B06921A684F4B9A426F
:1071900004460E4602D04E4801F0C4F9002E62D0DB
:1071A0004C4801F0BFF94C4B4C48198809B201F02A
:1071B00079F900252F464A4801F0B4F9414649487B
:1071C00001F070F90599484801F06CF906994748B3
:1071D00001F068F90799464801F064F918F4004F86
:1071E00003D00399434801F05DF918F0800F03D0F4
:1071F0000499414801F056F9404801F093F940489C
:10720000594601F04FF9002E29D11BF0080F53D039
:10721000314B1E8836B23046FFF76CFD31460246D0
:10722000384801F03FF9384801F07CF939463748D1
:1072300001F038F96946364BC91A03D53548494239
:1072400001F030F920468268C36801698C464169C3
:107250008E46AD46514691E8F00F416800682E49D0
:107260000720FFF77FFBD4E90230D4E90679D4E99F
:10727000001208902069099060690A9019F4007F53
:1072800026480B91CDE90C230CBF04F1200504F135
:10729000240501F047F9089B0B9900932048DDE98C
:1072A0000C2301F0FFF8DDE90912CDF800903B4610
:1072B0001C4801F0F7F87EE7217F1B48103901F0E8
:1072C000F1F8B0E700ED00E000000020FEE7FEE787
:1072D0004EC4020064C40200180F002093C40200D0
:1072E0003DC5020046C5020056C5020066C5020043
:1072F00076C5020086C5020096C50200A6C502003A
:10730000ABC50200BDC50200FCC502002DC60200CF
:107310005801002055C6020082C60200A7C4020020
:10732000C2C40200FFC40200D6C5020070470000BC
:10733000EFF3108172B6094A13680133012B136011
:1073400009D14FF080420020C2F800011360D2F84A
:107350000031002BFBD081F3108870471C0F0020F8
:10736000094A08B513680BB9FFF7C4FAEFF31081A7
:1073700072B61368013B13601BB94FF080430122C2
:107380005A6081F3108808BD1C0F0020114A38B5DF
:107390001378EBB94FF08044C4F81835C4F80431C1
:1073A0000123A360D4F80431002BFBD00125157014
:1073B000FFF7BEFF0023C4F80C314FF08042256177
:1073C000D2F80C31002BFBD0BDE83840FFF7C8BF26
:1073D00038BD00BF1A0F00204FF0704393F8E02F24
:1073E000062A12D1D3F8E40F10F00F000DD1D3F814
:1073F000E82F02F0F002302A08D1D3F8EC0F00F0A9
:10740000F000B0FA80F0400970470020704700009B
:1074100008B5FFF7E1FF30B1134AD2F8FC3023F092
:107420008073C2F8FC30FFF7D7FF20B14FF08043E4
:107430000322C3F8A025FFF7CFFF30B14FF0804300
:107440000022C3F80C21C3F81021FFF76FFF074B90
:107450000122C3F84025FFF7FDFCFFF77BFABDE8EA
:10746000084002F017BA00BF00ED00E000E0014064
:10747000044B1B682BB1044B4FF080525A60BFF392
:107480006F8F7047880E002000ED00E008B50C4BB0
:1074900098420CD0B0F1402F0BD003F50033984246
:1074A00009D003F54043984207D0FFF723FA0020A4
:1074B00008BD0120FCE70220FAE70320F8E700BF3F
:1074C0000030004038B50D461446FFF7DFFF0A4B89
:1074D00043F82050094B43F82040094B1B56002B22
:1074E00008DB0122590903F01F0302FA03F3054ADE
:1074F00042F8213038BD00BF400F0020300F00207F
:1075000014CB020000E100E0FFF7DCBF70B50E46CF
:107510001546FFF7BBFF04460648012100EB840037
:10752000FFF73EFA044B43F82460044B43F8245021
:1075300070BD00BF200F0020400F0020300F002042
:1075400008B5FFF7A3FF034B03EB8000BDE808403D
:10755000FFF75CBA200F002008B5044A044B1068FE
:107560001B689847BDE80840FFF782BF300F002036
:10757000400F002008B5044A044B50685B689847E8
:10758000BDE80840FFF774BF300F0020400F002017
:1075900008B5044A044B90689B689847BDE80840CA
:1075A000FFF766BF300F0020400F002008B5044AE7
:1075B000044BD068DB689847BDE80840FFF758BF28
:1075C000300F0020400F00200346006838B10268E9
:1075D000904219BF1368036000211960104670477C
:1075E00008B500B109B9FFF785F94B68002BFAD04F
:1075F000EFF3108272B60B6833B903686BB11B6886
:107600000B60036819600160406882F3108830B134
:10761000BDE808400121FFF745BB0960F3E708BD5D
:1076200010B5EFF3108472B6FFF7CEFF84F3108825
:1076300008B10023036010BD38B1054B0A0901F001
:107640000F019A5C5B5C027043700220704700BFC0
:1076500018CB0200F8B50D465700064610B18C183D
:10766000A54201D13846F8BD304615F8011BFFF799
:10767000E3FF0236F4E700000E4A914230B50346BC
:1076800016D80A22012014468A420ED963B1034457
:107690000A25B1FBF5F405FB1412303203F8012D75
:1076A0000A46092A2146F4D830BD62430130EBE78F
:1076B0000A20EBE7FFC99A3B002910B50B464FEAB9
:1076C000D17404DA10B12D2200F8012B5942FFF7D2
:1076D000D3FF204410BD2DE9FF41161E05460C4680
:1076E00004D104B0BDE8F041FFF7E6BF0CDDFFF7C1
:1076F000E3FF044625B132463021281804F0ACFDE2
:10770000A01904B0BDE8F08181EAE171A1EBE47158
:1077100001A8FFF7B1FF002CC6F1000807460BDAFD
:107720006DB32D232B700124B8451DDBC6F101027A
:1077300025B91444601CE4E70024F5E7A2EB070830
:1077400028194246302104F087FD444428193A465E
:107750003C4401A904F0BCFD26442B195A1BB2423B
:1077600008D22E23AB55E5E7002DEFD13C44E1E7ED
:107770000124FBE713F8012C03F80129EEE780450B
:10778000F6DBC6F101020124D3E7FFF7A4BFD8B1AD
:10779000E1B1002340EA0102D20709D5C2070BD5A7
:1077A000CA070BD581420BD2421A08461146F7E7A9
:1077B000400849080133EDE74008EFE74908EFE7E3
:1077C000091AEDD100FA03F1084670470146FBE7BC
:1077D0002DE9F84306460D4614460AB9FFF78AF824
:1077E00011462846FFF7D3FFA042F7D8A84239D860
:1077F000B5FBF0F1B4FBF0F20025B1FA81F44FF0E3
:10780000004EC4F120002EFA04FEC4F15F0C2B469A
:107810002C462F46DB1847EB070811EA0E0F18BF5E
:1078200043F00103934278F1000947464FEA4404CC
:107830004FEA5E0E0FD39B1A68F1000744F0010473
:10784000002C0BDA3B4300D00134C0F1200333712C
:107850003460BDE8F883002CF2D10138013565456C
:10786000D8D1EFE700200446EFE738B5054602F02F
:10787000BDFE044605F11000FFF7C8F8204638BDEC
:1078800038B5054602F0CAFE044605F11000FFF7C0
:10789000BDF8204638BD0028BFBF00F1FF306FEAB9
:1078A00040406FEA504000B2704730B5044607C907
:1078B00085B0002584E8070000F08EFF00950DF1EB
:1078C0000F03217920680F2201F0B0FF9DF80F30DF
:1078D0003D2B27D1E27963790095134343F0800370
:1078E000217920688DF80F30202201F0A9FF009542
:1078F000237A21792068212201F0A2FF0095637A82
:1079000021792068222201F09BFF0095A37921793B
:107910002068232201F094FF206800F079FF2846B8
:1079200005B030BD4FF0FF30FAE7F0B585B0044642
:10793000002602270068ADF80C600D4600F04CFFF1
:10794000019600972179206803AB282200F0CFFF31
:10795000BDF80C302B80CDE9007603AB217920688F
:107960002A2200F0C4FFBDF80C306B80CDE9007610
:1079700003AB217920682C2200F0B9FFB5F9000093
:10798000FFF789FF0246B5F90200FFF784FF0346BF
:10799000BDF90C00FFF77FFF4FF47A7190FBF1F017
:1079A00092FBF1F2A88093FBF1F320682A806B80B0
:1079B00000F02EFF05B0F0BD10B50C46FFF7B5FF87
:1079C0004FF60F53E380032010BD00007FB504463F
:1079D00000B109B9FEF78EFF07C9002584E807004A
:1079E00000F0FAFE0095122221792068802301F030
:1079F00027FF354B0F21186804F0D4F90095217941
:107A000020680DF10F030F2201F010FFA84206DAE3
:107A1000206800F0FDFE4FF0FF3004B070BD9DF80F
:107A20000F30692B4BD06A2B4BD108232373E3799A
:107A3000627900259B00009543EA0213DBB22179AD
:107A400020688DF80F30102201F0FAFE237AA27917
:107A500000959B0043EA0213DBB221798DF80F30C9
:107A600006461122206801F0EBFEA37962790095A9
:107A7000934238BF1346DB0043F00603DBB22179A3
:107A80008DF80F3006440A22206801F0D9FEA27A50
:107A9000637A009543EAC203DBB221798DF80F3097
:107AA00006440822206801F0CBFE0644206800F05E
:107AB000AFFEAE42B4BF6FF001002846ADE704232D
:107AC000B4E76FF00200A8E784D10200F0B585B0FA
:107AD0000446002700680D4600F07EFE00972179DD
:107AE00020680DF10F031E2201F0A0FE00972179FE
:107AF00020680DF10F03282201F098FE9DF80F3049
:107B00002B800097217906460DF10F03292220686A
:107B100001F08CFE2B889DF80F2043EA02232B8076
:107B20000097217906440DF10F032A22206801F005
:107B30007DFE9DF80F306B800097217906440DF192
:107B40000F032B22206801F071FE6B889DF80F2037
:107B500043EA02236B800097217906440DF10F035D
:107B60002C22206801F062FE9DF80F30AB80009758
:107B7000217906440DF10F032D22206801F056FEF5
:107B8000AB889DF80F2043EA02230644AB802068AF
:107B900000F03EFEBE421EDBE379032B01D9FEF767
:107BA000A9FE0E4A32F913102B8847F6FF7213FB19
:107BB00001F393FBF2F32B806B8813FB01F393FB30
:107BC000F2F36B80AB88384613FB01F393FBF2F3BF
:107BD000AB8005B0F0BD4FF0FF30FAE73CCB0200C0
:107BE000F0B585B00446002700680D4600F0F4FDAE
:107BF0000097217920680DF10F031E2201F016FE77
:107C00000097217920680DF10F03222201F00EFE6A
:107C10009DF80F302B800097217906460DF10F0358
:107C20002322206801F002FE2B889DF80F2043EAF2
:107C300002232B800097217906440DF10F032422A3
:107C4000206801F0F3FD9DF80F306B8000972179DB
:107C500006440DF10F032522206801F0E7FD6B8833
:107C60009DF80F2043EA02236B8000972179064498
:107C70000DF10F032622206801F0D8FD9DF80F308A
:107C8000AB800097217906440DF10F03272220686D
:107C900001F0CCFDAB889DF80F2043EA0223064497
:107CA000AB80206800F0B4FDBE421EDB237A032BBC
:107CB00001D9FEF71FFE0E4A32F913102B8847F642
:107CC000FF7213FB01F393FBF2F32B806B8813FB22
:107CD00001F393FBF2F36B80AB88384613FB01F39F
:107CE00093FBF2F3AB8005B0F0BD4FF0FF30FAE745
:107CF00034CB0200F0B585B00746002500680E467B
:107D000000F06AFD00950DF10F03397938682022E3
:107D100001F08CFD0346AB42386805DA00F078FDCF
:107D20004FF0FF3005B0F0BD00950DF10F0339792C
:107D30009DF80F40212201F079FD0346002B3868A1
:107D4000ECDB9DF80F3044EA032400F061FD3A7B40
:107D50001923934024B21C44A4B264235C4314410D
:107D600034802846DEE710B50C46FFF7AFFE00284A
:107D7000A3BF4FF60953E38003206FF08B0010BDC3
:107D800010B50C46FFF72CFF0028A3BF4FF60A736F
:107D9000E38003206FF08B0010BD10B50C46FFF799
:107DA000A9FF0028A3BF4FF60263E38001206FF014
:107DB0008B0010BD73B50A460C462321054604F01E
:107DC0004BFA684601F02AFD6946002241F205534C
:107DD00011F8010B03EB43130344B2FBF4F004FB73
:107DE000102001322E5C082A86EA03062E54EFD1B9
:107DF000002341F205529C4201D102B070BDE95C02
:107E000002EB42120A44B3FBF4F104FB11310133DB
:107E1000685C50406854EEE79A4238BF8854704717
:107E200070472DE9F84F98460D9B15469A07DDE9F6
:107E30000B4906460F4623D02A460A9B03EB040A49
:107E40001444A24220D10D9B9B0705D5A2EB050A45
:107E5000D14505EB0A0420D82046BDE8F88F4346FB
:107E600039462020B0470AF1010ACA450AEB0B0245
:107E7000F5D3A9EB04024C4588BF00222A44DCE775
:107E8000A246A5EB040BF0E702F1010B1AF8010D75
:107E900043463946B0475A46D3E743462246394619
:107EA0002020B0470AF1010AD2E72DE9F04F8FB048
:107EB0009046189C9DF864A01A9F0593DDE91C2547
:107EC0000CB925F0100515F48066049600D014B3A3
:107ED00015F0200F14BF4FF041094FF06109A4467F
:107EE0000DF1180B0024A9F10A09BCFBF7FE07FBF2
:107EF0001ECE4FFA8EF6BEF1090F94BF30364E44B7
:107F000076B2BC450BF8016BBCFBF7F604F101043B
:107F100001D3202C12D115F0020F0DF1180C1ED137
:107F200005F001063AB136B1BAF1000F02D115F0F1
:107F30000C0F00D0013A4FF0300E07E0B446D4E702
:107F4000202C06D006AB03F804E001341B9B9C42B6
:107F5000F6D326B13026944201D2202C32D1EB0642
:107F600022D5049B9BBB94B31B9BA34201D094429C
:107F70002DD1661E2AD0102F4BD1023CAF064CD417
:107F8000202C4CD004F138030DEB0306782706F8BB
:107F9000207C0134202C42D004F138030DEB030681
:107FA000302706F8207C0134202C38D0BAF1000F9D
:107FB0001FD004F138030DEB03062D2706F8207CB3
:107FC00001342DE00CF804600134C4E73446102F6E
:107FD000D4D0022FDED1202C21D004F138030DEBB8
:107FE00003066227D3E704F138030DEB0306582795
:107FF000CDE76E0705D504F138030DEB03062B27FB
:10800000DCE72B070CD504F138030DEB0306202722
:10801000D4E7022F3446BFD1DFE7202CE3D1202460
:10802000CDE90225CDE900C4059B4246FFF7F9FEE4
:108030000FB0BDE8F08F38B504464518AC4200D308
:1080400038BD291B204602F09DFA0028F8DB0444C5
:10805000F4E738B50C4691F840104029054605D1A3
:108060002046FFF7E8FF002384F840302DB194F854
:1080700040305A1C84F84020E55438BD2DE9F04FBB
:108080008DB01F460B1E0693B24B169E914614BF31
:1080900083469B460025387860B94D4506992CBF2C
:1080A00009F1FF322A464B460020D84728460DB03A
:1080B000BDE8F08F252807F1010706D02A4606996A
:1080C0006C1C4B46D8472546E5E700230DE02D2ADA
:1080D00022D0302A06D0A2F1300009280FD84FF064
:1080E00000082BE043F001030F46394611F8012B3D
:1080F0002B2A14D0EBD8202A14D0232A15D02A2AD0
:1081000032D156F8048BB8F1000FBCBF43F0020324
:10811000C8F100080F4618E043F00203E4E743F01B
:108120000403E1E743F00803DEE743F01003DBE775
:108130000A2000FB0822A2F130080F46394611F848
:10814000012BA2F130000928F2D93A782E2A47D122
:108150007978A1F13000092807F1010243F4806326
:1081600035D800240A2707E04FF00008EDE707FBA9
:108170000411A1F130040246104610F8011BA1F1D0
:10818000300CBCF1090FF2D917463A4612F8011B20
:108190006C292ED026D8682932D06A2939D03A469F
:1081A000174617F8010B782888D8632834D8622836
:1081B00000F05981632800F0A18025283FF47EAFAC
:1081C00058287FF47BAF43F02003102256E02A2981
:1081D00005D156F8044B023724EAE474D5E7174674
:1081E0000024D2E7742901D07A29D8D143F48073CE
:1081F000D6E779786C29F9D143F44073BA1CCFE7FC
:108200007978682902D043F08003C9E743F0C003BE
:10821000F4E743F40073C3E7A0F16401C9B201229B
:108220008A404D490A401BD1732800F0AC80702869
:108230007FF444AF56F8041B43F011030A200029D1
:1082400040F00381CDE9020305230193434B0093E2
:1082500006994B462A465846FFF7E3FD05461AE7BE
:108260006F2840F00281082208E07828ADD023F082
:10827000100364284FF00A0200F0FF8023F00C0383
:10828000FBE058060DD596F90010CDE90224CDE9A2
:10829000048300294FEAD1730193B8BF494200918A
:1082A00013E0190640F1FC80B6F90010EDE7002953
:1082B0007FF4F1AED80506F1040A0FD5CDE90483A9
:1082C000CDE902240191336800932A4606994B4672
:1082D0005846FFF7EAFD56460546DCE6590607D53F
:1082E0003178CDE904830023CDE902240193D6E758
:1082F000316813F0800F18BF89B2F2E713F002045F
:1083000025D04FF0010A6B1C0793069916F8040B51
:108310004B462A46D847002C33D0079A544626E0CD
:1083200006994B462020D84705EB0A020AF1010ABC
:10833000D045F5D8B8F1000F08F1FF3308BF00238E
:1083400008F1010A1D4408BF4FF0020ADBE7A2460C
:10835000EAE700BF217E02002108120095C6020054
:10836000551C06994B462020D84701342A46A04583
:10837000F6D8079AA8EB0A03D04538BF00231A4461
:108380000792079D87E63246002C52F8046B07924D
:1083900014BF21464FF0FF3131443246107808B106
:1083A000914211D1A2EB060A13F48062099202D025
:1083B000A24528BFA24613F002030A931BD1AAEBE1
:1083C00005032A46089308E00132E7E7531C0B93A4
:1083D00006994B462020D8470B9A089BD318434553
:1083E000F4D3A8EB0A03D04538BF00230AF10102F9
:1083F00002EB030A1D44AB1B089304E01C460699DC
:108400004B462A46D847089B9D1916F8010B28B100
:10841000099B002BF3D0631E002CEFD10A9B93B174
:108420002A46AAEB050405E0561C06994B46202077
:10843000D847324613199845F6D8A8EB0A03D04519
:1084400038BF00231D44079E25E6CDE90403102311
:10845000CDE901230091039406994B462A465846DC
:10846000FFF723FDFAE6022208E73FF6FEAE692891
:1084700023F010037FF4FDAE0A22590548BF23F014
:108480000103692803F4007102D064287FF40FAF60
:1084900000297FF400AED90506F1040A7FF5F1AE9C
:1084A0003168F2E60FB410B594B016AA002152F864
:1084B000043B02928DF84C10009203A94FF0FF325A
:1084C0000748FFF7DBFD9DF84C10044603A8FFF7B3
:1084D000B2FD204614B0BDE8104004B0704700BFA4
:1084E000538002000CB41FB506AC0A4654F8043B96
:1084F0000094014604480394FFF7C0FD04B0BDE8B2
:10850000104002B0704700BF197E020007B501217C
:108510008DF807000DF10700FFF78DFD012003B076
:108520005DF804FB38B5054603F0E0FE044601465D
:108530002846FFF780FD03480121FFF77CFD601C02
:1085400038BD00BF8DC3020070477047FEF7B2BD53
:1085500002F01803102B70B5C2F3C105D4B23BD0A2
:1085600002F00702AB00032A30D8DFE802F0021E57
:108570002708A20648BF43F4407343F0030366078D
:1085800005D0012D25D0032D01D143F00C0301228C
:108590008A4001F5E07164064CBFC0F80825C0F8B8
:1085A0000C2540F82130002070BDA6064CBF43F4D6
:1085B000E06343F4C06343F00103E0E7A20602D5A1
:1085C00043F4A063F7E743F48063F4E743F0020366
:1085D000D5E743F00403DAE76FF08500E4E7000035
:1085E0000C2907D841F21903CB40DB0706D44FF022
:1085F000FF30704740F20C639942F8D110F0200F21
:1086000000F01F00044B00F5E07008BF4FF0A043DE
:1086100043F82010002070470003005010F0200F96
:108620000A4A08BF4FF0A04200F01F03D2F8141509
:1086300001209840014214BFD2F80435D2F8103519
:108640001840003818BF0120704700BF00030050D9
:1086500000F01F0200F020000123002803FA02F3BB
:10866000054A08BF4FF0A04211B1C2F80835704763
:10867000C2F80C35704700BF000300500C23054AB8
:108680004343D358044AC3F80823044B03EB800048
:10869000FEF7BCB968CB020002020001500F0020B7
:1086A00038B54FF0402540F40073C5F80433044654
:1086B00001211A48FEF774F9D5F8043113B10023EB
:1086C000C5F80431022C0BD04FF04023D3F84C15E1
:1086D000D3F84825914203D0D3F82421002AF5D0BD
:1086E0004FF04023D3F824210AB9002038BD0022DE
:1086F000C3F82421D3F8C424910705D50222C3F876
:10870000C4246FF00500F1E7D3F8C4245207ECD578
:108710000422C3F8C4246FF00400E7E7500F0020E0
:1087200038B59DF8105018B912B1581EFE2801D95D
:10873000FEF7E0F815F009001BD14FF04024C4F813
:108740008815C4F84425C4F848356B075CBF4FF45E
:108750000073C4F800324FF001034CBFC4F80002AC
:108760000220A36048BF4FF08070BDE83840FFF79B
:1087700097BF6FF05E0038BD38B5054608B1FEF70B
:10878000B9F84FF04024124801210560FEF708F9BE
:1087900040F20C61C4F800550B20FFF721FF40F2B6
:1087A0000C610C20FFF71CFF0B23C4F808350C23C9
:1087B000C4F80C354FF0CC73C4F8243505492A466B
:1087C0002046FEF7A1FE0623C4F8003538BD00BFE1
:1087D000500F00207D86020008B5024608B1FEF762
:1087E00089F80A494FF04020FEF790FE4FF04023F1
:1087F0000B22C3F808250C22C3F80C254FF0CC72CD
:10880000C3F824250622C3F8002508BD7D86020092
:1088100008B5034608B1FEF76DF84FF04020C0F8E8
:108820000035BDE80840FEF78BBE00002DE9F3419E
:10883000089F9DF824800E4614461D4618B913B1B2
:108840007B1EFB2B01D9FEF755F818F0090F24D138
:1088500001211348FEF7A4F818F0020F1148E3B203
:108860001BBF240A04700124022414BF4370037048
:108870003A462946204403F02BFDE319094ACDF876
:10888000008031460020FFF74BFF04460448FEF706
:10889000BDF8204602B0BDE8F0816FF05E04F8E755
:1088A000540F0020580F002010B59DF8084018B94B
:1088B00012B1581EFE2801D9FEF71CF814F00D0F56
:1088C00012D14FF04020BDE81040C0F88815C0F824
:1088D0003425C0F838354FF48053C0F800320123F6
:1088E00003600220FFF7DCBE6FF05E0010BD37B5FD
:1088F000069C9DF81C50ADF8062018B913B1621EF5
:10890000FE2A01D9FDF7F6FF15F00D0F24D14FF027
:1089100040220220C2F88815A90743BFBDF80610FF
:1089200049BAADF80610012148BF0221C2F8481526
:108930004FF040220DF10601C2F84415C2F834355B
:108940004FF48453C2F83845C2F8003201239360D3
:10895000FFF7A6FE03B030BD6FF05E00FAE700003F
:108960002DE9F34102F1604CBCF5802F9DF8208089
:1089700006460F4615461C4606D2CDF8208002B0AA
:10898000BDE8F041FFF7CCBE013BFE2B01D9FDF75E
:10899000B1FF01210B48FEF703F8224629460A4899
:1089A00003F096FC2346084ACDF80080394630464D
:1089B000FFF7B6FE04460348FEF728F8204602B04B
:1089C000BDE8F081540F0020580F002000234FF421
:1089D00040311A0102F180420133092BC2F8081913
:1089E000F7D1FEE708B5FEF7D1FC064B01225A602D
:1089F00005494FF4003008600021C3F808151A60DB
:108A000008BD00BF0010014000E100E0014BD3F8B9
:108A10000405704700100140064B1960064B1A60B0
:108A2000064B20F07F404FF48032C3F84005C3F876
:108A300004237047641000206010002000100140E3
:108A4000024B4FF48032C3F80823704700100140F6
:108A5000014B01221A6070470010014010B5134C01
:108A6000D4F84031012B0BD10023C4F840314FF42E
:108A700080330F4AC4F808330E4B10681B689847C0
:108A8000D4F80431012B07D100230B4AC4F8043178
:108A90000A4B10681B689847094B1B682BB1094BA0
:108AA0004FF080525A60BFF36F8F10BD001001402D
:108AB0006010002064100020581000205C1000207E
:108AC000880E002000ED00E00B4B012210B51A606B
:108AD000D3F80021002AFBD0D3F80845002201205A
:108AE000C3F800215860192363430B804FF60263DB
:108AF0004A808A80CB8010BD00C00040F8B5204E6F
:108B000006EBC00305461F790024A74209D81D4B78
:108B10001B682BB11C4B4FF080525A60BFF36F8F14
:108B2000F8BD56F835C00CEB8403D3F84011012989
:108B300023D100221548C3F840210C2303FB050371
:108B40001A7A42FA04FE1EF0010F16D093F809E0DB
:108B50004EFA04FE1EF0010F08D1A14022EA0102E4
:108B60001A724FF48033A340CCF808330C236B43C4
:108B7000C2182146C358506898470134C5E700BF62
:108B800094CB0200880E002000ED00E06810002069
:108B9000032808B501D9FDF7ADFE0A2008BD000085
:108BA000032808B501D9FDF7A5FE092996BF02489B
:108BB0000020C84008BD00BF0024F4000328F0B521
:108BC00002D94FF0FF30F0BD1F4D0C2444432E1945
:108BD0002A5173601D4BC60053F8304003EBC000B0
:108BE000012540796560C4F808050020C4F8040533
:108BF000E560174DA9421AD19919C4F810050879F2
:108C000000210D46884218D86AB133449A7993F905
:108C10000630002B07DB0123510902F01F029340AD
:108C20000C4A42F82130012323600020CBE70130B9
:108C30000A284FEA5505DDD1C3E701F1500701319C
:108C400044F82750DEE700BF6810002094CB0200F4
:108C50000024F40000E100E0F0B5164E06EBC0037E
:108C60001B798B4222DDEFF3108772B6124B0C2575
:108C700005FB003301241D7A8C4025431D725D7A6B
:108C800025EA04045C7287F3108856F8304004EB40
:108C900081030020C3F84025C3F84001D3F84031D8
:108CA0004FF480338B40C4F80433F0BD4FF0FF30F5
:108CB000FBE700BF94CB020068100020134B03EBCE
:108CC000C00210B512798A421DDD53F830204FF4EE
:108CD00080338B40C2F80833D2F80042012303FAF4
:108CE00001F124EA01040A4BC2F800420C2202FB03
:108CF0000030037A23EA01030372437A23EA010373
:108D00004372002010BD4FF0FF30FBE794CB020010
:108D100068100020064B03EBC00253F83030127984
:108D200003EB820301221A64D3F84005704700BFA9
:108D300094CB02002DE9F84FDFF8A48008EBC00ABD
:108D400005469AF804308B42164642DDFFF7E2FFF3
:108D50008419EFF3108772B61F4B58F835B00C2208
:108D600002FB05334FF001091A7A09FA01F00243B8
:108D70001A725A7A0BEB810822EA00025A72002317
:108D8000C8F84045C8F84031D8F840314FF4803336
:108D90008B40CBF804332846FFF7BCFF9AF8052038
:108DA0000E4B53F82230241A1C40A6420CD2D8F89D
:108DB00040314BB9CBF804902846FFF7ABFF48444D
:108DC000C8F84005CBF8009087F310880020BDE874
:108DD000F88F4FF0FF30FAE76810002084CB0200D4
:108DE00094CB0200024B53F8303001221A607047D6
:108DF00094CB0200024B53F8303001221A617047C5
:108E000094CB02000020FFF779BE0120FFF776BE69
:108E10000220FFF773BE0320FFF770BE70B50C464B
:108E200015460146002840F093804B4A4B4EC2E95C
:108E30000053C6F86C052DB11820FFF7D1FB18239D
:108E4000C6F8143503211920FFF7CAFB434B19223A
:108E5000C3F80C25B4F5614F4FF0FF32C3F8082575
:108E6000C3F8102552D020D8B4F5615F47D011D88F
:108E7000B4F5965F41D008D8B4F5966F2FD0B4F50D
:108E8000166F37D06FF0850070BDB4F5165FF9D15D
:108E9000334A26E0B4F5E14F34D0B4F5164F33D061
:108EA000B4F5964FEED12F4A1BE02F4A944233D0AF
:108EB0000AD8B4F5E13F2BD0B4F5613F2AD0B4F520
:108EC000963FDFD1294A0CE0B4F5612F27D0284A1C
:108ED000944226D0B4F5E12FD4D1264A01E04FF4D4
:108EE0009E22C3F824251D4B0822C3F80025DDB9B6
:108EF0000020C9E74FF41D22F3E71F4AF1E74FF4C2
:108F00006C12EEE71D4AECE71D4AEAE71D4AE8E766
:108F10001D4AE6E71D4AE4E74FF08062E1E71C4A9C
:108F2000DFE74FF08052DCE701211A4AC3F8381519
:108F3000C3F834251022C3F80423D3F8002242F0EA
:108F40002002C3F800221960134B04221A60CFE7F5
:108F50006FF0120098E700BF9C1000200020004036
:108F60000050270000A04E0090D0030000903A016E
:108F700040420F0000705F0700B0130000F0750062
:108F800000509D0000F0EB0000E0D70100B0AF03FF
:108F900000D0BE0E9810002000E100E008B508B136
:108FA000FDF7A8FC024B01225A60C3F8000508BD7A
:108FB000002000402DE9F0410D4688B0164608B16A
:108FC000FDF798FC1C4CD4F800352BB111F000577C
:108FD00023D16B46B74202D308B0BDE8F081A6EBBF
:108FE0000708B8F1200F28BF4FF020084246184666
:108FF000E91903F06DF90022C4F820210122C4F818
:1090000044050346C4F84885A260D4F82021002A0C
:10901000FBD00122E2604744DCE70123C4F82001D1
:10902000C4F84415C4F84825A360D4F82031002BB7
:10903000FBD00123E360CFE70020004008B50D4BD3
:10904000D3F810215AB10022C3F81021D3F83C35CF
:109050002BB1094B09491A68097858689047084BA1
:109060001B682BB1074B4FF080525A60BFF36F8FD4
:1090700008BD00BF002000409C1000209810002078
:10908000880E002000ED00E00129F0B504460ED165
:10909000012A4FF0000507BF1030A57604F17000DB
:1090A00084F87A50046002724172436003E0881EC3
:1090B000012801D90020F0BD04F11C050126012A78
:1090C00014BF05F160072F46384697F809C0BCF178
:1090D000000F07D1BE720136082E05D00C350028CE
:1090E000EDD0DFE70020F6E70028DBD1E2E7017AE8
:1090F0000368827A012907D12AB9D3F8D0304FF416
:109100008062C3F804237047002AFCD1D3F8D03022
:109110004FF40002F5E7017A0368827A012907D14A
:109120002AB9D3F8D0304FF48062C3F808237047CF
:10913000002AFCD1D3F8D0304FF40002F5E7D0F884
:10914000D03001225A6570470268837AD2F8D02065
:1091500010B40BB9C2F85C31047A0121994014B9FA
:109160004C3342F823405DF8044BC2F86C14FFF70F
:10917000BEBF38B5D0F8D030D3F8002104466AB16C
:109180000022C3F800210421436880F8D4209847C6
:10919000D4F8D0300122C3F8042338BDD3F85821C5
:1091A000002AFAD0D3F80054EA0502D54368062114
:1091B0009847AB0503D56368072120469847D4F844
:1091C000D0300022C3F8582140F60172C3F80024C1
:1091D0004FF48002DFE70000F8B5867A04680F4696
:1091E0001546A6BB8B0701D0FDF784FB017AD4F8A6
:1091F000D030012915D16AB994F8D420022A09D1B6
:10920000196504F11000A3689847042384F8D4304A
:109210002846F8BD0122C3F80076C3F804565A6008
:10922000F6E7C3F80077C3F8042794F8D4100129AF
:1092300008D11965032384F8D43004F17000A368C1
:109240009847E5E70229E3D10122DA64E0E7017AF1
:10925000D4F8D0301422012902FB063214D1C2F80E
:10926000007603EB8603C2F804560C4A8220C2F84B
:109270001C0C5960D3F808110029FBD00021C3F859
:109280000811C2F81C1CC3E706F59476C2F80077F3
:10929000C2F80457012243F82620B9E700700240C3
:1092A000027A08B503680AB1FDF724FB0A4AD3F82D
:1092B000D0308221C2F81C1C817A03EB810301218A
:1092C0009962D3F830110029FBD00021C3F8301186
:1092D000C2F81C1C08BD00BF0070024008B5837AAC
:1092E0000BB9FDF707FB0039027A18BF012103F023
:1092F000070343EA0123511E4A424A4143EAC2138B
:109300000268D2F8D020C2F8183508BDFFF7E6BFD2
:1093100038B5044621B101292DD06FF0850038BD44
:10932000012B01D0FDF7E6FA2168A57A1278007AC0
:10933000D1F8D010AB4082B148B9D1F8142513430D
:10934000C1F814352046FFF7FFFE0120E7E7D1F80A
:1093500010251343C1F81035F4E7DB4328B9D1F8E1
:1093600014251340C1F81435EFE7D1F81025134048
:10937000C1F81035E9E7012BD4D11178FFF7AEFF22
:10938000E3E7012908B50ED1012B01D0FDF7B2FAB0
:109390001278D0F8D0101AB1C1F80435012008BDF8
:1093A000C1F80425FAE76FF08500F8E7032908B54E
:1093B00004D0042902D06FF0850008BD012B01D034
:1093C000FDF798FA13700120F7E7012908B504D0DA
:1093D00002291CD06FF0850008BD012B01D0FDF7DC
:1093E00089FA0368D3F8D010837A007A50B903F56C
:1093F000887301EB83014B68003B18BF0123137096
:109400000120E9E703F5847351F82330F4E7042BD6
:10941000E5D10368817A007AD3F8D03030B901F50C
:10942000947153F8213013600420D5E7142000FB19
:109430000133D3F80836F6E7F8B5837A0468027A80
:109440000546002B5BD194F8D410002A4AD1032999
:1094500007D184F8D4200821A368C9B228469847C8
:1094600033E0D4F8D030D3F85C1199B3C3F85C2161
:10947000D3F80027D3F880641670D3F88414C9B2E7
:109480005170D3F88804D3F88C7440EA07205080D8
:10949000D3F89004D3F8947440EA07209080D3F86E
:1094A0009804D3F89C7416F0800F40EA0720D0800F
:1094B0000CBF02220122052908BF002284F8D42013
:1094C000D3F88434DBB2052BC5D12846BDE8F8407B
:1094D000FFF70DBED3F8282182B3C3F82811FFF798
:1094E000DFFEB8E7042902D184F8D430B3E7D4F81A
:1094F000D020D2F8281109B3C2F82831ABE7012AED
:10950000D4F8D0600ED1D6F86C149A40114215D020
:109510000023C6F86C24C6F860314FF08073C6F89B
:10952000043398E7D6F86C24103301279F403A4261
:1095300004D0FFF7B5FEC6F86C748CE74FF0FF312E
:109540008AE700004FF0805310B5D3F80431B3F12F
:10955000413F01D1FDF7CEF9174AD0F8D03049F29A
:1095600075310324C2F8001CC2F8144DC2F8001C67
:109570000121C3F80015D3F800140905FBD5D3F871
:10958000001421F40061C3F8001449F2753400217D
:10959000C2F8004CC2F8141DC2F8004C0122C3F8F6
:1095A000002502F1A07280F8D410C3F80023034B09
:1095B00080225A6010BD00BF00E0064000E100E0DC
:1095C00008B508B1FDF796F9004808BDA4100020C1
:1095D000034B044A1A60044AC3F8D020704700BF06
:1095E000A4100020B4CB0200007002402DE9F0412D
:1095F000444CD4F8D030D3F80021A2B1D3F80023E2
:10960000D00710D50121C3F8081363682046984796
:109610003D4B1B682BB13D4B4FF080525A60BFF35E
:109620006F8FBDE8F081D3F858215AB1D3F80023E9
:10963000510207D54FF48002C3F80823314863680C
:109640000121E4E7D3F85C2152B1D3F800331A02C8
:1096500006D52F48A368012198472D48FFF75BFDE9
:10966000D4F8D030D3F82821C2B1D3F800335B0549
:1096700014D594F8D410012905D12648A368984739
:109680002448FFF748FD94F8D430022B06D1204837
:10969000A368012198471F48FFF73DFDD4F8D0305B
:1096A000D3F86021002AB3D0D3F86C24002AAFD0BD
:1096B0000022C3F86021D3F86C840C260127B8F18E
:1096C000000FA5D098FAA8F5B5FA85F5102D10DD94
:1096D000A5F110007043231893F8793023B170304E
:1096E000A36801212044984707FA05F528EA0508F0
:1096F000E5E706FB05F023185B7E002BF4D0103065
:10970000EEE700BFA4100020880E002000ED00E06E
:1097100014110020B4100020092810B528D8012108
:109720001548FDF73DF9154B15490122C3F80025F1
:10973000D3F82C06884212D0C3F83026C3F82C1672
:109740001049C3F818150021C3F81415C3F8F4150F
:10975000C3F81011DA60D3F81021002AFBD0074BB0
:1097600005480024C3F80045FDF750F9204610BD18
:109770004FF0FF30FBE700BF801100200070004079
:109780007C11002000120200092838B50D4601D9CD
:10979000FDF7B0F8022938D8092818BF441C4FF04B
:1097A00001011B4808BF0D24FDF7FAF8194B0122EF
:1097B0000021C3F80025C3F8F055C3F81045C3F8DD
:1097C00000111A60D3F80021002AFBD00022C3F850
:1097D000042101225A600F4BD3F80421002AFBD048
:1097E0000022C3F8142101229A60D3F81421002A20
:1097F000FBD000220648C3F80025FDF707F9064B09
:10980000B3F9000020EAE07038BD4FF0FF30FBE70D
:1098100080110020007000407C110020024A0346A5
:1098200003CA1860596070476000001013B59DF8B6
:109830001040019401240094FFF759F802B010BDC4
:109840001FB58DF80F309DF8183001930123009358
:109850000DF10F03FEF7EAFF05B05DF804FB0C21E4
:109860002220FEF7BDBE000010B50321084C2920C0
:10987000FEF7B6FE4FF40073C4F80C3503212A201E
:10988000FEF7AEFE4FF48063C4F80C3510BD00BF88
:109890000003005008B5FFF7E2FF0020FEF76CFF61
:1098A000FFF7A0F8BDE80840FFF792BE2DE9F843A6
:1098B00006460C46FFF76CF900F1FF38C14600255B
:1098C0004D4510D129463046FFF76AF9A0420746B8
:1098D00016D2B5B1691E3046FFF762F9C7EB4404F2
:1098E00084420ED90EE005EB09077F083946304661
:1098F000FFF756F984423CBF7D1C4F46B946DFE76F
:1099000002D83846BDE8F8834545FAD2A0EB0408F2
:10991000691C3046FFF744F98044A045E1E70000A8
:10992000032A70B515D80D4601EB82060024B54216
:1099300011D11F4D002355F8046BA64216D21D4CC1
:1099400054F82350C4790534E31AC371D5B9002300
:1099500015E0FCF7CFFF55F8043BA34201DD1C46A0
:10996000E5E75B429C42B8BF1C46E0E70133052BAC
:10997000E1D1ECE751F8234020F813400133934242
:10998000F8D170BD6E0800249442FAD051F824300A
:10999000002BB7BFF31A9B19B3FBF5F35B42A8BFCB
:1099A000B3FBF5F31BB220F814300134ECE700BF31
:1099B000F8CB0200E4CB0200222806D8034B53F870
:1099C000201011B10248FEF76DBD70472CCC02008B
:1099D000A4C602000F30C0B21E289ABF014B185C0B
:1099E000002070470CCC02002DE9F0410D4686B0F6
:1099F000044608B1032905D93F4806B0BDE8F04147
:109A0000FEF790BD3D48FEF74DFDA3791F2B0FD10A
:109A1000032D01D0FCF76EFFB4F90030B4F9022039
:109A2000B4F90410364806B0BDE8F041FEF73ABD7F
:109A3000202B07D0DFF8EC800027AF420CD106B016
:109A4000BDE8F081032DE5D1B4F90030B4F902206E
:109A5000B4F904102B48E6E7A3791B2B03D828FAA6
:109A600003F3DB0720D494F90700FFF7B3FF0646A2
:109A70000920FEF74BFD012D18D023483946FEF78B
:109A800011FD34F91710AEB120483246FEF70AFD39
:109A9000A079012803D9192801D0FFF78DFF1C48B0
:109AA000FEF740FD0137C8E70026E1E71948FEF759
:109AB000F9FCE6E794F907201AB91748FEF7F2FC1B
:109AC000E6E7531DDBB2042B0CD803A8FDF75DFEBF
:109AD00008289FD800F118036B4403F80C6C0F485A
:109AE00003A9EBE70B460C2100920DEB01000C4A99
:109AF000FEF7F8FCF3E700BFA7C60200C5C60200E8
:109B0000CBC60200DCC60200EDC60200F8C60200A9
:109B100028C90200F3C6020000C7020006C70200FF
:109B20000CC702008F01020838B505680C46A8680A
:109B3000297BFFF729FE2B6998470D232080A3710D
:109B40002B79E371012038BD08B5B1F90020037A03
:109B500032B9007903F00101FEF77AFD012008BD5A
:109B6000DB43F6E738B5057A00790C46FEF756FD7B
:109B700005F0010568401923C0B2E3802080012070
:109B800038BD000070B5144C14492046FCF736FB74
:109B9000002805DABDE8704011480021FEF782BCBC
:109BA000104A114D114B5460164610469560D36013
:109BB00000F090F90E4BF36106F11000C6E905457F
:109BC00000F088F90B4BF362C6E9094506F1200065
:109BD000BDE8704000F07EB9B411002060CD0200F5
:109BE00012C702008411002044C7020014C30200FF
:109BF00008C30200FCC2020070B5104C1049204698
:109C0000FCF784FC002805DABDE870400D4800210F
:109C1000FEF748BC0C4A0D4D0D4B546016461046DD
:109C20009560D36000F056F90A4BF361C6E905452B
:109C300006F11000BDE8704000F04CB9E4110020BE
:109C400070CD02004DC70200C41100207DC7020084
:109C500008CB0200FCCA020010B50C4C0C4920468F
:109C6000FDF723FE002805DABDE810400948002171
:109C7000FEF718BC084A094B54609360BDE81040D9
:109C8000074BD360104600F025B900BF301200200A
:109C90007CCD020084C7020020120020B5C702005C
:109CA00028CB020070B5144C14492046FDF78EFEF7
:109CB000002805DABDE8704011480021FEF7F2BB2C
:109CC000104A114D114B5460164610469560D360F2
:109CD00000F000F90E4BF36106F11000C6E90545EE
:109CE00000F0F8F80B4BF362C6E9094506F12000D5
:109CF000BDE8704000F0EEB86C12002088CD020084
:109D0000BDC702003C120020EFC702005CCB02007E
:109D100050CB020044CB020010B50A4C0A4B0B4852
:109D200023600021FEF7BEFB094A0A4B9360052021
:109D3000094B5460D360FFF7EFFCBDE810400448C6
:109D400000F0C8B88C12002094CD0200F8C70200C1
:109D50007C12002027C802003CCD02002DE9F74309
:109D60001A4C1B4D1B4EDFF87090002741F2110872
:109D7000E18823686C600C29AB6024D828FA01F3D1
:109D800013F0010F0CBF33464B46EB602079FEF712
:109D900027FC237A13F0060F08D003F00403ADF874
:109DA0000030EB6869465B682046984728460137D3
:109DB00000F090F8032F04F10C0405F11005D7D141
:109DC00003B0BDE8F083034BDFE700BFA8CD02007E
:109DD0009012002054CD020048CD0200054A002315
:109DE0005360054B1B6893601046044BD36000F032
:109DF00071B800BFC012002080CB020074CB0200FB
:109E000010B5104C1049204600F082FA28B1BDE888
:109E100010400E480021FEF745BB0D490D4B0E4A80
:109E20004C608B604C618B610C460C4BCA600846E1
:109E3000CB6100F04FF804F11000BDE8104000F0D5
:109E400049B800BFF0120020CCCD020050C802007B
:109E5000D01200207FC8020024D1020018D10200D5
:109E600010B50B4C0B49204601F0E4FC20B1BDE8D5
:109E700010400948FEF756BB084A094B54609360EE
:109E8000BDE81040074BD360104600F023B800BF78
:109E900010130020D4CD020086C802000013002059
:109EA0008CC802006CD1020008B5FFF735FFFFF740
:109EB00055FFFFF793FFFFF765FEFFF79DFEFFF7E6
:109EC000CBFEFFF7EFFEFFF79BFFBDE80840FFF773
:109ED000C7BF0000074A136840B10021016013B9F1
:109EE0001060002070471A461B68F8E76FF01200F8
:109EF000704700BF18130020054B02461868002366
:109F0000934200DA00B9704700680133F8E700BFF8
:109F10001813002018B1C36840681B6818476FF019
:109F20001200704718B1C36840685B6818476FF04B
:109F3000120070476FF085007047000000F0C0020B
:109F4000402A00F03F0306D0802A0BD072B1FF28D0
:109F500010D109490BE0052B0CD8084A52F8231000
:109F600029B970471C2B05D8054AF7E7054906486B
:109F7000FEF798BA704700BFDCCD0200C8CF0200E0
:109F8000F4CD0200E6CD0200A4C60200012810B5FF
:109F90000B4608DC0948FEF7C5FA0948FEF7C2FA85
:109FA0000124204610BD0749586802F087F904468D
:109FB0000028EFD1FEF70AFDF3E700BF9BC80200BF
:109FC000A2C80200B9C8020073B50C46064669462D
:109FD0002046FFF79FFF051E05DC0D483146FEF7C2
:109FE00061FA02B070BDA2680A4B0B48002A08BF94
:109FF0001A463146FEF756FAE368187AFFF79EFFD5
:10A000000648FEF78FFAE9B26846FFF7EDFCE8E78D
:10A01000C7C80200BDC80200EEC80200B7C80200EF
:10A0200001282DE9F34706460C4622DC4E4B1C68FE
:10A030004CB14E484E4DFEF775FA00213CB9002058
:10A0400002B0BDE8F0874B48FEF76CFAF7E74A48E4
:10A050004E1CFEF727FAE368187AFFF76FFFA16836
:10A060004648002908BF2946FEF71CFA24683146F5
:10A07000E4E74F684249384602F020F948BB022E17
:10A0800005D121683F483A46FEF70CFAD7E7A468A5
:10A090003D49204602F012F968B9334B1C68002C88
:10A0A000CDD02146451CFFF78FFF3848FEF73AFA1E
:10A0B00024682846F3E7204602F046F80446FFF7F6
:10A0C0001BFF014608B93248BEE72046FFF77CFF78
:10A0D000B5E73049384602F0F1F80546002840D18E
:10A0E000032E03DC21682C483A46CDE7A06802F035
:10A0F0002BF80746FFF700FF804608B92748A3E77B
:10A10000033E032EA8BF0326083400950195E946B7
:10A110006D4604EB860A54F8040F02F015F8544516
:10A1200025F8020BF7D1124BD8F808201C48002A5A
:10A1300008BF1A463946FEF7B5F9F1B24846FFF7AF
:10A1400053FC49464046FFF7EDFE0028394606DC41
:10A1500086300CBF13481448FEF7A4F96FE7134884
:10A16000FAE721681248F7E71813002004C9020033
:10A17000BDC8020013C9020024C9020029C9020097
:10A180002EC9020033C9020051C9020028C90200C9
:10A1900055C9020076C902007CC90200B7C9020095
:10A1A000D5C90200F1C9020014CA02003BCA02006C
:10A1B00064CA020008B5FCF7A3FE002008BD08B57C
:10A1C000FCF75AFB002008BD08B50248FEF7AAF9C3
:10A1D000002008BD7ACA020030B5044685B008B92F
:10A1E000FCF788FB49BA0068ADF80C10FEF7F4FAEA
:10A1F0000023009321792068022303AAFEF7B0FB15
:10A2000005462068FEF704FB281E18BF01204042C7
:10A2100005B030BD4269013201D001F049BC83680C
:10A220005B6818477FB50E46044608B9FCF762FB29
:10A230000029FBD04FF22D31FFF7CEFF054620B1AC
:10A240004FF0FF35284604B070BD2068FEF7C4FA11
:10A25000009521792068032303AAFEF725FB054614
:10A260002068FEF7D5FA002DEAD1FF233122022122
:10A2700003A8FCF717FB9DF80E30834201BFBDF821
:10A280000C305BBA23F4874323F06C030CBF33809C
:10A290006FF00105D6E7000073B54379827903EBCF
:10A2A00043031344174A32F813100446FFF794FF90
:10A2B000054618BB144B1E6863799BB101213046DB
:10A2C00001F070FD0DF106012046FFF7ABFF28B944
:10A2D000BDF806309B0705D56FF0030005462846FC
:10A2E00002B070BD3046FFF795FFA279074BA06022
:10A2F00033F81230E3600123E371F0E74FF0FF35EC
:10A30000EDE700BFDAD0020084D10200D4D0020011
:10A3100037B5044608B9FCF7EDFA0029FBD00B6805
:10A3200003600B7903714B7943718B79837100233F
:10A33000C0E90233C37143F29301FFF74DFF1A4B9B
:10A340001D680121284601F02DFD43F2A20120469F
:10A35000FFF742FF18B14FF0FF3003B030BD0221CC
:10A36000284601F01FFD43F241012046FFF734FF6C
:10A370000028F0D10121284601F014FD0DF106015D
:10A380002046FFF74FFF0028E7D1BDF8063013B194
:10A390006FF00200E1E76379002BDED0204603B0C6
:10A3A000BDE83040FFF778BF84D102002DE9FF41BE
:10A3B0000F461646044608B9FCF79CFA09B9002A6C
:10A3C000FAD0E37923B33A4BD3F800804046FFF745
:10A3D00021FFD4E90213421A9A4204D21944091AFD
:10A3E000404601F0DFFC6379E3B92068FEF7F4F939
:10A3F0000023009321792068062302AAFEF754FA6D
:10A4000005462068FEF704FAA5B14FF0FF3505E0D8
:10A410002046FFF741FF05460028D4D0284604B067
:10A42000BDE8F0814FF460412046FFF7D5FE0028DB
:10A43000DBD0EAE763796BB9E571FF2331220221B2
:10A4400002A8FCF72FFA9DF80A3083420CD06FF077
:10A450000105E3E74046FFF7DDFE6279154BA0609A
:10A4600053F82230E360E8E7FF23312202210DF1A7
:10A470000B00FCF717FA9DF80D308342E7D15FB16E
:10A48000BDF808305BBA9BB244F25C4253431B0CEC
:10A49000A3F58C53143B3B80002EBFD0BDF80B308E
:10A4A0005BBA9BB242F2107253431B0C3380B5E788
:10A4B00084D1020000D1020038B50E4B83420C4615
:10A4C00014D10D4D2B783BB90C4A0D49FFF76EFFA7
:10A4D00060B90C4B01221A7000232B70074B1B88AC
:10A4E00023804FF61B63E380012001E06FF08B00B7
:10A4F00038BD00BFF0120020201300201C130020E4
:10A500001E1300202113002038B50E4B83420C4649
:10A5100014D10D4D2B783BB90C4A0D49FFF746FF7E
:10A5200060B90C4B01221A7000232B70084B1B885A
:10A5300023804FF60263E380012001E06FF08B007F
:10A5400038BD00BFF0120020211300201C13002092
:10A550001E13002020130020F8B5084E084B0025DC
:10A560009B1B0C27B3FBF7F4AC4200D1F8BD07FBF3
:10A5700005F3F35803B198470135F5E7F0D202002F
:10A5800008D30200F8B50A4D0A4C0C23641B074699
:10A59000B4FBF3F40E4603FB0454A54201D130464C
:10A5A000F8BDAB683146384698470C35F5E700BF33
:10A5B000F0D2020008D3020010B50A460C4601464C
:10A5C0000020FEF7F7FC204610BD0020FEF7E6BC99
:10A5D000034B044A4FF4E1310020FEF71FBC00BFDB
:10A5E00000020020E9A50200FDF73FB970B5EFF3C6
:10A5F000108572B6D0E90134C268141B9C421FBF9B
:10A6000003F1FF3304681340561C17BFC6604FF0B8
:10A61000FF30E154002085F3108870BDF0B503468B
:10A62000EFF3108772B60020824204D01C1D70CC5C
:10A63000751BA54202D187F31088F0BD751C013C43
:10A6400011F800C0DD6034401D68013005F804C019
:10A65000EAE7B1F5167F08B506D0B1F5966F01D1DE
:10A66000FCF70AF9002008BDFCF74AFCFEE70AB92E
:10A6700081F87C20704707B540F60833ADF800300C
:10A680000B8D8DF8023002238DF80330082240F242
:10A6900002236946019300F03EFC082003B05DF8F8
:10A6A00004FB00002B4B2DE9F743C1F884302A4B03
:10A6B0000962C1E9153140F202234B8501F15003D3
:10A6C0004B610A230026A1F84A3001F11008082343
:10A6D0000E6581F82C6081F84C604E6309640C466D
:10A6E0000093022201234146054601F000F808B913
:10A6F000FCF700F940F2FF1304F130074FF0400976
:10A70000C3810322CDF8009001233946284600F08A
:10A71000EEFF86730028EBD00123C3730322CDF82C
:10A72000009033463946284600F0E1FF0028DFD08C
:10A730004FF48073C3814146284600F0B1FF39468B
:10A74000284600F0ADFFE36843F00103E36003B087
:10A75000BDE8F08341A8020030D1020037B5194BA3
:10A76000009304460D460123694605228DF8043006
:10A7700000F0D1FB144B009369460422204600F000
:10A78000CAFB42F205412A8DADF800100621B5F84A
:10A7900048308DF802108DF80320694605222046C6
:10A7A0008DF8043000F0B7FB084AB5F84830009245
:10A7B0006946052220468DF8043000F0ACFB1320DA
:10A7C00003B030BD0524002004240202052401004A
:10A7D00010B508B9FCF78EF80368002BFAD01B6897
:10A7E000BDE81040DB6A184770B4034608465A6F4C
:10A7F00092F89821032A21D193F87C20012A1DD1B7
:10A80000EFF3108472B61E6FD96EB1420ED04A1C9F
:10A81000DA669A6E5D6E013A0A40AD5C9A6F511C21
:10A820001A443F29996782F8D050EDD984F31088F3
:10A8300070BC9A6F03F1D001FFF7CABF70BC7047BC
:10A8400050F8083C803823B9836B1B689968FFF780
:10A85000CBBF704773B5537A032B0C4615461CD1FA
:10A86000137AE3B90AB9FCF745F81368002BFAD05C
:10A870001B681E6A04230DEB030202212846B04721
:10A88000019A04F190061AB1E36D314620469847CB
:10A89000402231462846FFF79BFF02B070BD012BD6
:10A8A000FBD100238B67EFF3108172B6D4E91B2331
:10A8B00081F310889A42F0D02946204602B0BDE8C4
:10A8C0007040FFF791BF0346104693F87C20F0B527
:10A8D00042B1EFF3108772B60022904203D187F3A2
:10A8E00010881046F0BD03F1680470CC751BA542BA
:10A8F000F5D0751C013C11F802C01D6734405D6E37
:10A90000013205F804C0E8E7436F2BB100F1800184
:10A9100003F5B870FCF764BE70477FB50C465978F4
:10A92000212933D0222937D020292CD1DB88072BAD
:10A9300029D1032A1BD1002303A9039300F0C4FAF1
:10A94000039B072B05461ED1437982790168007964
:10A9500000902046FFF77DFE266E5EB92B68C4F896
:10A960008830AB88A4F88C30AB7984F88E30012025
:10A9700004B070BD28796B79AA79296800902046C7
:10A98000B0470028EADA4FF0FF30F1E7072204F180
:10A99000880100F0C0FAEAE75B8813F0010315D0E4
:10A9A000012384F87C300022032104F1300000F000
:10A9B00091FE08B9FBF79EFF8068402204F19001E8
:10A9C000FFF706FF2046FFF79FFFD0E784F87C30B3
:10A9D000CDE700002DE9F843DDE908960C46054671
:10A9E000904600214FF4A87220461F4601F034FC27
:10A9F00065671EB1734236EA030301D0FBF77AFFA5
:10AA0000054B6360C4E91996C4E9178721462846B7
:10AA1000BDE8F84300F054BE40D102000148FCF705
:10AA20002FBF00BF00020020F8B505460C460646C1
:10AA30000CB9701BF8BD224631460548FFF743FFAD
:10AA400007460348FFF760FF3E44E41BF0E700BF02
:10AA5000E413002007B580230193054B0093054ABA
:10AA600005490023FFF7B6FF03B05DF804FB00BF04
:10AA7000621300201DAA0200E413002010B508B9DB
:10AA8000FBF738FF0368002BFAD01B68BDE81040C5
:10AA90009B691847F7B5CB6843F001030026CB60EC
:10AAA000402701230C460E761A463146009705468C
:10AAB00000F01DFE8368A3630122334600973146F0
:10AAC000284600F014FE8368636303B0F0BD10B540
:10AAD0000A4608B9FBF70EFF0368002BFAD01B6883
:10AAE0001C6A0221A4460423BDE81040604710B54B
:10AAF0000A4608B9FBF7FEFE0368002BFAD01B6874
:10AB00005C6A0021A4460123BDE81040604710B5EF
:10AB100008B9FBF7EFFE0368002BFAD01B68BDE80D
:10AB20001040DB6A1847000010B50C46C2B980F827
:10AB30009B210A76886BFFF7A1FF606BFFF79EFFF2
:10AB4000A06B0849FFF7D3FF606B0649FFF7CFFF03
:10AB5000606B04F13C014022BDE81040FFF7D7BF15
:10AB600010BD00BF50D102002DE9F3410C460B7C13
:10AB700091F910100029054603DBE28A206B904210
:10AB800010D803F01F02012A00F0BB80022A00F057
:10AB9000D780002A40F0FC800029637C75DA43B13D
:10ABA000062B11D0D5F87801002840F0EC80FBF797
:10ABB000A1FE95F89B315B00022201A92846ADF861
:10ABC000043000F0A8F948E0638A1A0A013A052A1D
:10ABD000E8D801A151F822F0F1AB020001AC02006B
:10ABE00009AC0200A5AB0200A5AB020073AC0200E9
:10ABF000284600F06FFB0028D4DB00F0C9802CE071
:10AC0000284600F063FAF6E7D5F88461002EC9D033
:10AC100013F0FF030BD14FF441730222694628461B
:10AC2000ADF8003000F077F940F20943C4E70322A1
:10AC30008DF8052032899A4200F0B4803668002EE3
:10AC4000F8D1AFE7284600F091F90021284600F03E
:10AC50008DF916F8011F0029F4D194F91030002B5A
:10AC60002ADA01232846237602B0BDE8F04100F03D
:10AC700099B9D5F8780100238DF80430036801AA4A
:10AC80009E6804210123B0478CE7052B11D0092BC6
:10AC900088D10323D5F8886185F89831002EDCD05F
:10ACA000B768C7B9D6F80C80B8F1000F1BD1366869
:10ACB000F4E7638A85F89A31E38A226B9A426AD272
:10ACC0000323606B2376402204F13C0102B0BDE80F
:10ACD000F041FFF71CBFFB7B1BB13B49B868FFF796
:10ACE00006FF3F68DDE7D8F8087017B9D8F800808C
:10ACF000DAE7FB7B1BB13549B868FFF7F8FE3F6820
:10AD0000F3E7617CA28A03F060030B4302F00F02B9
:10AD10003FF452AFD5F88831002B3FF443AF198B85
:10AD200091420BD119694868C6683EB1D5F87C21BB
:10AD300004F11003127E2846B0475CE71B68EBE77E
:10AD4000A38A142203F00F001B06637C02FB00F0B1
:10AD50004CBFD0303030012B28440DD0032B04D011
:10AD6000002B7FF41FAF037C26E7638A002B7FF460
:10AD700019AF00F0DDFC70E7638A002B7FF412AF9F
:10AD800000F0E3FC69E703685B69984700232376DA
:10AD900002B0BDE8F0810423A06B2376002204F109
:10ADA0007C0193E702278DF80470706801F09EFA29
:10ADB000013040008DF804003A4601A9284600F011
:10ADC000AAF87668013E44E752D1020051D1020050
:10ADD00073B505460C466BBB0B7E042B13D8DFE81E
:10ADE00003F0512B26400300137A012B22D190F857
:10ADF0009A318BB190F89831012B0DD1D0F87801B0
:10AE000005F5CD7208B9FBF775FD0168CE68002124
:10AE1000B047022385F898310023606B23764022E7
:10AE200004F13C0102B0BDE87040FFF770BE137A38
:10AE3000002BF2D002B070BD167A012EFAD100F0CC
:10AE400052F828B121462846FFF78EFE2676F1E714
:10AE5000606B402204F13C01FFF759FE0223237688
:10AE6000E8E7137A002BE5D1606B019301A9FFF7A6
:10AE70002EFE236B019A1344236321462846FFF7D5
:10AE800073FED7E7167A002ED4D13146102204F192
:10AE90001C0001F0E1F9E36B2361236C6361E38A39
:10AEA000266321462846E36202B0BDE87040FFF702
:10AEB0005BBE0000034B4B60D0F88C310B60C0F8D8
:10AEC0008C11704754D1020010B5D0F87C4109B9FB
:10AED000FBF710FD237E032BFAD1606BFFF7F7FD24
:10AEE00004F13C0010BDD0F87C319A6BD8695268EF
:10AEF000196A024491420CD9D96A884209D2986AE7
:10AF000081424FF0000005D9C3E9072058620120B3
:10AF1000704700207047D0F87C01F8B5836BC76993
:10AF20005D68036A9F423D4403EB020408D9AB42CB
:10AF300002D2FE1A964206D9046200252846F8BDC0
:10AF4000AB42F9D20026AC422CBFED1A951B426AE7
:10AF5000046228BFAD1B2A44DB1B426233447C30B1
:10AF60002A463144184401F0B3F9E7E7D0F87C21D0
:10AF7000D2E90703984210B510D8946B6468044472
:10AF8000A3420BD21B1A1344012083F87C10136ACE
:10AF900001331362536A0133536210BD01331362EC
:10AFA0000020FAE7D0F87C11C869CA6A4B6A121A05
:10AFB0009A4228BF1A468B6A886B134410B57C31BD
:10AFC00041F8543C08B9FBF795FC0368002BFAD014
:10AFD0001B68BDE81040DB6A184770B506460C4692
:10AFE00000250CB9284670BD62689368127B1AB1BF
:10AFF000A16830469847034624681D44F1E770B5C0
:10B0000006460C4600250CB9284670BD63681B68CF
:10B010001BB1A16830469847034624681D44F2E7F7
:10B0200070B506460C4600250CB9284670BD63680D
:10B030005B681BB1A16830469847034624681D44ED
:10B04000F2E700002DE9F7434FF00009DFF87880C0
:10B0500005460C464E4640F207571CB9484603B019
:10B06000BDE8F08361682846FFF7C9FFA268CDF804
:10B070000360117A937A8DF80230012904BF63F0DE
:10B080007F038DF80230537AADF80070013BDBB2DC
:10B09000032B17D818F803308DF80330A389ADF8C7
:10B0A00004300722A37B8DF8063069462846FFF757
:10B0B00032FF61682846FFF7B3FF9DF8003024682F
:10B0C0009944CAE7FBF716FC64D102002DE9F04F62
:10B0D0008DB07F4A039200230122ADF810308DF825
:10B0E000112080228DF8132032228DF81420D0F800
:10B0F00088218DF81230044652BBD4F880118DF8A7
:10B1000010302046FFF769FFD4F88851093015BB8D
:10B11000238CADF80E00092203A920468DF81230C9
:10B12000FFF7F9FED4F880112046FFF779FFD4F835
:10B13000886100F10907A84640F20949002E42D172
:10B14000BDF80E002F44B84200F0BF80FBF7D2FBE1
:10B1500012680133D0E700F1090769682046FFF75C
:10B160003CFFAE680744002046B9D5F80C80074480
:10B17000B8F1000F0BD12D68B819C8E7716800F15C
:10B1800007082046FFF729FF36684044ECE7D8F867
:10B1900004102046FFF721FF0936D8F808A006441E
:10B1A0000020BAF1000F03D1D8F800800644DFE791
:10B1B000DAF8041000F107092046FFF70EFFDAF86D
:10B1C00000A04844EDE771682046FFF718FF338B75
:10B1D000CDF81A808DF81A30B37ECDF81D808DF829
:10B1E0001D30F37E8DF81E30B268337F8DF81F302E
:10B1F00082460935ADF8189000230ABB8DF81C3043
:10B20000736913B11B898DF82030092206A92046E5
:10B21000FFF781FE71682046FFF702FFAA448244CF
:10B22000B1682046FFF70EFF0AEB0005D6F80CA028
:10B2300001220020BAF1000F05D1366805447DE7F0
:10B2400012680133D9E7338B8DF82630B37ECDF801
:10B2500028808DF82C808DF82930F37E8DF82A30E7
:10B2600002F1010B337FDAF808108DF82B308DF8DE
:10B270002720ADF8249000F109035FFA8BFB002230
:10B2800001BB8DF82820DAF80C2012B112898DF854
:10B290002C20092209A920460193FFF73CFEDAF889
:10B2A00004102046FFF7BCFE019BDAF808100344A7
:10B2B00020460193FFF7C6FE019BDAF800A0184470
:10B2C0005A46B7E709680132DAE70DB0BDE8F08FFA
:10B2D000090209007FB50022ADF808208DF80A2088
:10B2E0000F4A019240228DF80B200E4A03924FF430
:10B2F0008072ADF810200289838D8DF81220828A29
:10B300008DF813208DF814301222012301A98DF835
:10B310001530FFF700FE122007B05DF804FB00BFF8
:10B32000120100020912007D10B508B9FBF7E2FA1C
:10B330000368002BFAD01B68BDE810409B6A1847D1
:10B3400010B508B9FBF7D6FA0368002BFAD01B68D2
:10B35000BDE81040DB6918470129F8B5C4680ED173
:10B36000B4F99421531E9BB21F2B96BF254B00208E
:10B3700053F822000221BDE8F840FBF793BC0629F0
:10B3800024D007292BD004291FD1D4F87801012318
:10B39000002584F8983184F89A5104F5CD7208B9E3
:10B3A000FBF7A8FA0168CE682946B047234604F1A6
:10B3B000A00283F8405083F8E05014339A42F8D149
:10B3C00001260027D4F88C5185B9F8BD94F898313E
:10B3D00084F89931042684F898610227F2E794F8FA
:10B3E000993184F8983108260327EBE7EB681E4271
:10B3F00005D06B683A465B682946204698472D6819
:10B40000E2E700BF940E00200368012970B50A46E8
:10B410000446D86823D1237A591E4B424B41A17A66
:10B4200001EBC301C9B202FA01F1EFF3108372B666
:10B43000D0F890211143C0F8901183F31088B0F92F
:10B440009421531E9BB21F2B98BF264BBDE8704022
:10B4500094BF53F8220000200421FBF723BCA37AF9
:10B460008BB9D0F88C1189B1082A26D0092A0DD1C0
:10B47000CB689B060AD54B6822469D680223A847E5
:10B480001CBBFBF737FAD0F8883103B970BD996857
:10B4900019B9D96841B91B68F7E78D68AC4201D189
:10B4A0001969E0E70968F3E78D680DB90968F1E704
:10B4B000AE68B442F4D02D68F7E74B689D68224629
:10B4C000AC460023BDE8704060472368002BD8D00D
:10B4D0001B68054A5D6A01232046AC461946BDE853
:10B4E00070406047940E002068D1020038B50446D1
:10B4F0000D464FF4D872002100F0AEFEC4F878512A
:10B5000038BD00001FB50293069B0193054B0093C5
:10B510000023FBF72BFC002801DCFBF7EBF905B05F
:10B520005DF804FB49B5020010B50346D0F884016C
:10B530000860B3F89601C3F88411441CA3F896413F
:10B5400008814A6010BD00002DE9F0474C4BB2B0B5
:10B550001B68C0F87431002603A9C0F87061C0F8F8
:10B560007C11044600F5B878FFF7A4FC454BD4F8ED
:10B5700078511B88A4F894310123A4F89631424BEA
:10B5800084F89A61C4F888616B60404BC5E9023465
:10B590000DB9FBF7AFF92B6828461B6898473C4A62
:10B5A00004F118012046FFF7BFFF3A4A04F10C01ED
:10B5B0002046FFF7B9FF384A21462046FFF7B4FF7F
:10B5C00004F5CE77082101A8FCF7F4FB082201A9B5
:10B5D0003846FCF73FF83A4604F124012046FFF7CD
:10B5E000A3FF84F89861D4F88C61F6B92B682B4AD4
:10B5F000DE68012319462846B0474FF001090720AD
:10B60000FBF742FB8107064603D52B6828461B69DA
:10B610009847720710D4F307F1D54046FCF700F8BD
:10B620000028ECD043689847E9E7736831461B6807
:10B63000204698473668D8E7EFF3108372B60022A9
:10B64000D4F890A1C4F8902183F310881427BAF19C
:10B65000000FE0D09AFAAAF3B3FA83F3072B09FAA2
:10B6600003F2CBBF083B07FB034307FB0343986B85
:10B67000C8BFD3F8D8002AEA020AFFF755FEE6E76A
:10B680008C0E0020180F002059B3020009B40200EC
:10B6900086CA020091CA0200B1CA020069D1020042
:10B6A00010B5D0F8882100F5C4730020441C1AB9E5
:10B6B00080B20883196010BD1B6820461A68F5E740
:10B6C000D0F88C2100F5C6730AB9196070471B6861
:10B6D0001A68F9E710B5806800B910BD83685C7A14
:10B6E0008C4202D11B7A9342F7D00068F4E7F8B598
:10B6F0000446D0F87801069E0D4611461A4608B950
:10B70000FBF7F8F803685F683346B84778B1837A87
:10B7100014225343027A012A0CBFD033303323441E
:10B720009E81986015B1AA681A60AB601846F8BD92
:10B7300008B503468068827A0AB9FBF7DBF8012175
:10B740001974BDE80840FFF7FBBD08B503468068E3
:10B75000827A0AB9FBF7CEF800211974BDE80840D7
:10B76000FFF7EEBD2DE9F04F0C4685B008B9FBF7A9
:10B77000C1F885798B1801936B09012B2B4B4FF086
:10B78000010705F01F050CBF9A464FF0A04A07FAC3
:10B7900005F5EFF31083029372B6DFF894B0019BC6
:10B7A0009C4205D3029B83F3108805B0BDE8F08F5F
:10B7B00014F8016B4FF008083946F20900290CBF54
:10B7C0000F210821002A4FEA46030CBF4FF005095C
:10B7D0004FF00C090220DEB2894417460391FDF7B1
:10B7E00099FA039981440A1800210220FDF734FADE
:10B7F0004A4601210220FDF72FFA0220FDF7F2FA56
:10B80000DBF84021002AFBD0CAF80855DBF84421B8
:10B81000002AFBD0CAF80C55022008F1FF38FDF7CA
:10B82000E9FA18F0FF08C7D1B9E700BF00030050DC
:10B8300000A0014010B5034628B321B30A6812B333
:10B8400000220260426003C983E8030099790F482F
:10B850004B09012B01F01F0118BF4FF0A040FCF76E
:10B8600077FE034618B16FF00404204610BD02466F
:10B8700007490220FDF7A2F904460028F3D102206F
:10B88000FDF7B8FAF1E76FF01504EEE7000300509A
:10B890000024F40082B001EB4101431801925A7078
:10B8A0009DF8052042549DF806209A7002B070471A
:10B8B0002DE9F3410E788F7891F804800446002535
:10B8C000A288AA420ED8216802EB42022046FFF766
:10B8D00049FF0B4B5021186800F064FA032002B0B6
:10B8E000BDE8F0818DF804608DF805708DF8068054
:10B8F000A9B2019A2068FFF7CDFF0135E0E700BF4C
:10B9000088D1020010B50446006A4369013314D09F
:10B9100000F0CEF880B1626B94F83840A2FB0023AF
:10B92000C4F1200003FA00F0A4F12001E240024338
:10B9300023FA01F142EA010010BD83685B68984771
:10B94000E8E730B4436C90F840501944C36BC5F13C
:10B950002004A1FB0313A5F12002E94003FA04F43B
:10B96000214323FA02F20A4330BC00F12401006AA9
:10B9700000F0F4B82DE9F04104460F4615460021C9
:10B9800048221E4600F068FC1D4BA3601D4B276239
:10B99000C4E90B340DB9FAF7ADFF002EFBD03246E7
:10B9A000294604F13400FBF713FF2A46314604F11F
:10B9B0003C00FBF70DFFB5424FF0FF3319D294F86E
:10B9C0003850616BC5F12000A1FB031303FA00F0AE
:10B9D000A5F12002E94023FA02F2014311434B1C76
:10B9E00061610AD0A36820461B68BDE8F0414908A0
:10B9F0001847B5FBF6F563616564BDE8F08100BFEB
:10BA000078D10200CDBB020000F12401006A00F0F1
:10BA10008CB80346006838B10A6822B9D868431A5E
:10BA2000584258417047012070470346006848B1AA
:10BA3000416831B902681A600AB9DA60704701607A
:10BA4000704700207047416902688368B1F1FF3F89
:10BA500007D01B6849081AB15268914228BF1146A5
:10BA6000184712B11B685168FAE79B68184738B548
:10BA700005460C46FFF7CDFF08B9FAF73BFF28460D
:10BA80000246006898B1A042FAD1EB68A34204D103
:10BA9000AA4214BF13460023EB60236813601BB156
:10BAA0005A6861680A445A6000232360012038BD47
:10BAB00038B5436904460BB9FAF71CFFEFF310855C
:10BAC00072B683685B6898470246A069E369824260
:10BAD0003DBF61690131891811461B1A5818C4E924
